{
	"contracts/MKNFT.sol": {
		"MKNFT": {
			"abi": [
				{
					"inputs": [
						{
							"internalType": "string",
							"name": "name_",
							"type": "string"
						},
						{
							"internalType": "string",
							"name": "symbol_",
							"type": "string"
						}
					],
					"stateMutability": "nonpayable",
					"type": "constructor"
				},
				{
					"anonymous": false,
					"inputs": [
						{
							"indexed": true,
							"internalType": "address",
							"name": "owner",
							"type": "address"
						},
						{
							"indexed": true,
							"internalType": "address",
							"name": "approved",
							"type": "address"
						},
						{
							"indexed": true,
							"internalType": "uint256",
							"name": "tokenId",
							"type": "uint256"
						}
					],
					"name": "Approval",
					"type": "event"
				},
				{
					"anonymous": false,
					"inputs": [
						{
							"indexed": true,
							"internalType": "address",
							"name": "owner",
							"type": "address"
						},
						{
							"indexed": true,
							"internalType": "address",
							"name": "operator",
							"type": "address"
						},
						{
							"indexed": false,
							"internalType": "bool",
							"name": "approved",
							"type": "bool"
						}
					],
					"name": "ApprovalForAll",
					"type": "event"
				},
				{
					"anonymous": false,
					"inputs": [
						{
							"indexed": true,
							"internalType": "address",
							"name": "from",
							"type": "address"
						},
						{
							"indexed": true,
							"internalType": "address",
							"name": "to",
							"type": "address"
						},
						{
							"indexed": true,
							"internalType": "uint256",
							"name": "tokenId",
							"type": "uint256"
						}
					],
					"name": "Transfer",
					"type": "event"
				},
				{
					"inputs": [],
					"name": "MAX_NFT",
					"outputs": [
						{
							"internalType": "uint256",
							"name": "",
							"type": "uint256"
						}
					],
					"stateMutability": "view",
					"type": "function"
				},
				{
					"inputs": [
						{
							"internalType": "address",
							"name": "to",
							"type": "address"
						},
						{
							"internalType": "uint256",
							"name": "tokenId",
							"type": "uint256"
						}
					],
					"name": "approve",
					"outputs": [],
					"stateMutability": "nonpayable",
					"type": "function"
				},
				{
					"inputs": [
						{
							"internalType": "address",
							"name": "owner",
							"type": "address"
						}
					],
					"name": "balanceOf",
					"outputs": [
						{
							"internalType": "uint256",
							"name": "",
							"type": "uint256"
						}
					],
					"stateMutability": "view",
					"type": "function"
				},
				{
					"inputs": [
						{
							"internalType": "uint256",
							"name": "tokenId",
							"type": "uint256"
						}
					],
					"name": "getApproved",
					"outputs": [
						{
							"internalType": "address",
							"name": "",
							"type": "address"
						}
					],
					"stateMutability": "view",
					"type": "function"
				},
				{
					"inputs": [
						{
							"internalType": "address",
							"name": "owner",
							"type": "address"
						},
						{
							"internalType": "address",
							"name": "operator",
							"type": "address"
						}
					],
					"name": "isApprovedForAll",
					"outputs": [
						{
							"internalType": "bool",
							"name": "",
							"type": "bool"
						}
					],
					"stateMutability": "view",
					"type": "function"
				},
				{
					"inputs": [
						{
							"internalType": "address",
							"name": "to",
							"type": "address"
						},
						{
							"internalType": "uint256",
							"name": "tokenId",
							"type": "uint256"
						}
					],
					"name": "mint",
					"outputs": [],
					"stateMutability": "nonpayable",
					"type": "function"
				},
				{
					"inputs": [],
					"name": "name",
					"outputs": [
						{
							"internalType": "string",
							"name": "",
							"type": "string"
						}
					],
					"stateMutability": "view",
					"type": "function"
				},
				{
					"inputs": [
						{
							"internalType": "uint256",
							"name": "tokenId",
							"type": "uint256"
						}
					],
					"name": "ownerOf",
					"outputs": [
						{
							"internalType": "address",
							"name": "owner",
							"type": "address"
						}
					],
					"stateMutability": "view",
					"type": "function"
				},
				{
					"inputs": [
						{
							"internalType": "address",
							"name": "from",
							"type": "address"
						},
						{
							"internalType": "address",
							"name": "to",
							"type": "address"
						},
						{
							"internalType": "uint256",
							"name": "tokenId",
							"type": "uint256"
						}
					],
					"name": "safeTransferFrom",
					"outputs": [],
					"stateMutability": "nonpayable",
					"type": "function"
				},
				{
					"inputs": [
						{
							"internalType": "address",
							"name": "from",
							"type": "address"
						},
						{
							"internalType": "address",
							"name": "to",
							"type": "address"
						},
						{
							"internalType": "uint256",
							"name": "tokenId",
							"type": "uint256"
						},
						{
							"internalType": "bytes",
							"name": "_data",
							"type": "bytes"
						}
					],
					"name": "safeTransferFrom",
					"outputs": [],
					"stateMutability": "nonpayable",
					"type": "function"
				},
				{
					"inputs": [
						{
							"internalType": "address",
							"name": "operator",
							"type": "address"
						},
						{
							"internalType": "bool",
							"name": "approved",
							"type": "bool"
						}
					],
					"name": "setApprovalForAll",
					"outputs": [],
					"stateMutability": "nonpayable",
					"type": "function"
				},
				{
					"inputs": [
						{
							"internalType": "bytes4",
							"name": "interfaceId",
							"type": "bytes4"
						}
					],
					"name": "supportsInterface",
					"outputs": [
						{
							"internalType": "bool",
							"name": "",
							"type": "bool"
						}
					],
					"stateMutability": "pure",
					"type": "function"
				},
				{
					"inputs": [],
					"name": "symbol",
					"outputs": [
						{
							"internalType": "string",
							"name": "",
							"type": "string"
						}
					],
					"stateMutability": "view",
					"type": "function"
				},
				{
					"inputs": [
						{
							"internalType": "uint256",
							"name": "tokenId",
							"type": "uint256"
						}
					],
					"name": "tokenURI",
					"outputs": [
						{
							"internalType": "string",
							"name": "",
							"type": "string"
						}
					],
					"stateMutability": "view",
					"type": "function"
				},
				{
					"inputs": [
						{
							"internalType": "address",
							"name": "from",
							"type": "address"
						},
						{
							"internalType": "address",
							"name": "to",
							"type": "address"
						},
						{
							"internalType": "uint256",
							"name": "tokenId",
							"type": "uint256"
						}
					],
					"name": "transferFrom",
					"outputs": [],
					"stateMutability": "nonpayable",
					"type": "function"
				}
			],
			"devdoc": {
				"kind": "dev",
				"methods": {},
				"version": 1
			},
			"evm": {
				"assembly": "    /* \"contracts/MKNFT.sol\":90:554  contract MKNFT is ERC721 {... */\n  mstore(0x40, 0x80)\n    /* \"contracts/MKNFT.sol\":143:148  10000 */\n  0x2710\n    /* \"contracts/MKNFT.sol\":121:148  uint public MAX_NFT = 10000 */\n  0x06\n  sstore\n    /* \"contracts/MKNFT.sol\":155:240  constructor(string memory name_, string memory symbol_) ERC721(name_, symbol_){... */\n  callvalue\n  dup1\n  iszero\n  tag_1\n  jumpi\n  0x00\n  dup1\n  revert\ntag_1:\n  pop\n  mload(0x40)\n  sub(codesize, bytecodeSize)\n  dup1\n  bytecodeSize\n  dup4\n  codecopy\n  dup2\n  dup2\n  add\n  0x40\n  mstore\n  dup2\n  add\n  swap1\n  tag_2\n  swap2\n  swap1\n  tag_3\n  jump\t// in\ntag_2:\n    /* \"contracts/MKNFT.sol\":218:223  name_ */\n  dup2\n    /* \"contracts/MKNFT.sol\":225:232  symbol_ */\n  dup2\n    /* \"contracts/ERC721.sol\":1147:1152  name_ */\n  dup2\n    /* \"contracts/ERC721.sol\":1140:1144  name */\n  0x00\n    /* \"contracts/ERC721.sol\":1140:1152  name = name_ */\n  swap1\n  dup2\n  tag_7\n  swap2\n  swap1\n  tag_8\n  jump\t// in\ntag_7:\n  pop\n    /* \"contracts/ERC721.sol\":1171:1178  symbol_ */\n  dup1\n    /* \"contracts/ERC721.sol\":1162:1168  symbol */\n  0x01\n    /* \"contracts/ERC721.sol\":1162:1178  symbol = symbol_ */\n  swap1\n  dup2\n  tag_9\n  swap2\n  swap1\n  tag_8\n  jump\t// in\ntag_9:\n  pop\n    /* \"contracts/ERC721.sol\":1074:1185  constructor(string memory name_, string memory symbol_) {... */\n  pop\n  pop\n    /* \"contracts/MKNFT.sol\":155:240  constructor(string memory name_, string memory symbol_) ERC721(name_, symbol_){... */\n  pop\n  pop\n    /* \"contracts/MKNFT.sol\":90:554  contract MKNFT is ERC721 {... */\n  jump(tag_11)\n    /* \"#utility.yul\":7:82   */\ntag_12:\n    /* \"#utility.yul\":40:46   */\n  0x00\n    /* \"#utility.yul\":73:75   */\n  0x40\n    /* \"#utility.yul\":67:76   */\n  mload\n    /* \"#utility.yul\":57:76   */\n  swap1\n  pop\n    /* \"#utility.yul\":7:82   */\n  swap1\n  jump\t// out\n    /* \"#utility.yul\":88:205   */\ntag_13:\n    /* \"#utility.yul\":197:198   */\n  0x00\n    /* \"#utility.yul\":194:195   */\n  dup1\n    /* \"#utility.yul\":187:199   */\n  revert\n    /* \"#utility.yul\":211:328   */\ntag_14:\n    /* \"#utility.yul\":320:321   */\n  0x00\n    /* \"#utility.yul\":317:318   */\n  dup1\n    /* \"#utility.yul\":310:322   */\n  revert\n    /* \"#utility.yul\":334:451   */\ntag_15:\n    /* \"#utility.yul\":443:444   */\n  0x00\n    /* \"#utility.yul\":440:441   */\n  dup1\n    /* \"#utility.yul\":433:445   */\n  revert\n    /* \"#utility.yul\":457:574   */\ntag_16:\n    /* \"#utility.yul\":566:567   */\n  0x00\n    /* \"#utility.yul\":563:564   */\n  dup1\n    /* \"#utility.yul\":556:568   */\n  revert\n    /* \"#utility.yul\":580:682   */\ntag_17:\n    /* \"#utility.yul\":621:627   */\n  0x00\n    /* \"#utility.yul\":672:674   */\n  0x1f\n    /* \"#utility.yul\":668:675   */\n  not\n    /* \"#utility.yul\":663:665   */\n  0x1f\n    /* \"#utility.yul\":656:661   */\n  dup4\n    /* \"#utility.yul\":652:666   */\n  add\n    /* \"#utility.yul\":648:676   */\n  and\n    /* \"#utility.yul\":638:676   */\n  swap1\n  pop\n    /* \"#utility.yul\":580:682   */\n  swap2\n  swap1\n  pop\n  jump\t// out\n    /* \"#utility.yul\":688:868   */\ntag_18:\n    /* \"#utility.yul\":736:813   */\n  0x4e487b7100000000000000000000000000000000000000000000000000000000\n    /* \"#utility.yul\":733:734   */\n  0x00\n    /* \"#utility.yul\":726:814   */\n  mstore\n    /* \"#utility.yul\":833:837   */\n  0x41\n    /* \"#utility.yul\":830:831   */\n  0x04\n    /* \"#utility.yul\":823:838   */\n  mstore\n    /* \"#utility.yul\":857:861   */\n  0x24\n    /* \"#utility.yul\":854:855   */\n  0x00\n    /* \"#utility.yul\":847:862   */\n  revert\n    /* \"#utility.yul\":874:1155   */\ntag_19:\n    /* \"#utility.yul\":957:984   */\n  tag_53\n    /* \"#utility.yul\":979:983   */\n  dup3\n    /* \"#utility.yul\":957:984   */\n  tag_17\n  jump\t// in\ntag_53:\n    /* \"#utility.yul\":949:955   */\n  dup2\n    /* \"#utility.yul\":945:985   */\n  add\n    /* \"#utility.yul\":1087:1093   */\n  dup2\n    /* \"#utility.yul\":1075:1085   */\n  dup2\n    /* \"#utility.yul\":1072:1094   */\n  lt\n    /* \"#utility.yul\":1051:1069   */\n  0xffffffffffffffff\n    /* \"#utility.yul\":1039:1049   */\n  dup3\n    /* \"#utility.yul\":1036:1070   */\n  gt\n    /* \"#utility.yul\":1033:1095   */\n  or\n    /* \"#utility.yul\":1030:1118   */\n  iszero\n  tag_54\n  jumpi\n    /* \"#utility.yul\":1098:1116   */\n  tag_55\n  tag_18\n  jump\t// in\ntag_55:\n    /* \"#utility.yul\":1030:1118   */\ntag_54:\n    /* \"#utility.yul\":1138:1148   */\n  dup1\n    /* \"#utility.yul\":1134:1136   */\n  0x40\n    /* \"#utility.yul\":1127:1149   */\n  mstore\n    /* \"#utility.yul\":917:1155   */\n  pop\n    /* \"#utility.yul\":874:1155   */\n  pop\n  pop\n  jump\t// out\n    /* \"#utility.yul\":1161:1290   */\ntag_20:\n    /* \"#utility.yul\":1195:1201   */\n  0x00\n    /* \"#utility.yul\":1222:1242   */\n  tag_57\n  tag_12\n  jump\t// in\ntag_57:\n    /* \"#utility.yul\":1212:1242   */\n  swap1\n  pop\n    /* \"#utility.yul\":1251:1284   */\n  tag_58\n    /* \"#utility.yul\":1279:1283   */\n  dup3\n    /* \"#utility.yul\":1271:1277   */\n  dup3\n    /* \"#utility.yul\":1251:1284   */\n  tag_19\n  jump\t// in\ntag_58:\n    /* \"#utility.yul\":1161:1290   */\n  swap2\n  swap1\n  pop\n  jump\t// out\n    /* \"#utility.yul\":1296:1604   */\ntag_21:\n    /* \"#utility.yul\":1358:1362   */\n  0x00\n    /* \"#utility.yul\":1448:1466   */\n  0xffffffffffffffff\n    /* \"#utility.yul\":1440:1446   */\n  dup3\n    /* \"#utility.yul\":1437:1467   */\n  gt\n    /* \"#utility.yul\":1434:1490   */\n  iszero\n  tag_60\n  jumpi\n    /* \"#utility.yul\":1470:1488   */\n  tag_61\n  tag_18\n  jump\t// in\ntag_61:\n    /* \"#utility.yul\":1434:1490   */\ntag_60:\n    /* \"#utility.yul\":1508:1537   */\n  tag_62\n    /* \"#utility.yul\":1530:1536   */\n  dup3\n    /* \"#utility.yul\":1508:1537   */\n  tag_17\n  jump\t// in\ntag_62:\n    /* \"#utility.yul\":1500:1537   */\n  swap1\n  pop\n    /* \"#utility.yul\":1592:1596   */\n  0x20\n    /* \"#utility.yul\":1586:1590   */\n  dup2\n    /* \"#utility.yul\":1582:1597   */\n  add\n    /* \"#utility.yul\":1574:1597   */\n  swap1\n  pop\n    /* \"#utility.yul\":1296:1604   */\n  swap2\n  swap1\n  pop\n  jump\t// out\n    /* \"#utility.yul\":1610:1856   */\ntag_22:\n    /* \"#utility.yul\":1691:1692   */\n  0x00\n    /* \"#utility.yul\":1701:1814   */\ntag_64:\n    /* \"#utility.yul\":1715:1721   */\n  dup4\n    /* \"#utility.yul\":1712:1713   */\n  dup2\n    /* \"#utility.yul\":1709:1722   */\n  lt\n    /* \"#utility.yul\":1701:1814   */\n  iszero\n  tag_66\n  jumpi\n    /* \"#utility.yul\":1800:1801   */\n  dup1\n    /* \"#utility.yul\":1795:1798   */\n  dup3\n    /* \"#utility.yul\":1791:1802   */\n  add\n    /* \"#utility.yul\":1785:1803   */\n  mload\n    /* \"#utility.yul\":1781:1782   */\n  dup2\n    /* \"#utility.yul\":1776:1779   */\n  dup5\n    /* \"#utility.yul\":1772:1783   */\n  add\n    /* \"#utility.yul\":1765:1804   */\n  mstore\n    /* \"#utility.yul\":1737:1739   */\n  0x20\n    /* \"#utility.yul\":1734:1735   */\n  dup2\n    /* \"#utility.yul\":1730:1740   */\n  add\n    /* \"#utility.yul\":1725:1740   */\n  swap1\n  pop\n    /* \"#utility.yul\":1701:1814   */\n  jump(tag_64)\ntag_66:\n    /* \"#utility.yul\":1848:1849   */\n  0x00\n    /* \"#utility.yul\":1839:1845   */\n  dup5\n    /* \"#utility.yul\":1834:1837   */\n  dup5\n    /* \"#utility.yul\":1830:1846   */\n  add\n    /* \"#utility.yul\":1823:1850   */\n  mstore\n    /* \"#utility.yul\":1672:1856   */\n  pop\n    /* \"#utility.yul\":1610:1856   */\n  pop\n  pop\n  pop\n  jump\t// out\n    /* \"#utility.yul\":1862:2296   */\ntag_23:\n    /* \"#utility.yul\":1951:1956   */\n  0x00\n    /* \"#utility.yul\":1976:2042   */\n  tag_68\n    /* \"#utility.yul\":1992:2041   */\n  tag_69\n    /* \"#utility.yul\":2034:2040   */\n  dup5\n    /* \"#utility.yul\":1992:2041   */\n  tag_21\n  jump\t// in\ntag_69:\n    /* \"#utility.yul\":1976:2042   */\n  tag_20\n  jump\t// in\ntag_68:\n    /* \"#utility.yul\":1967:2042   */\n  swap1\n  pop\n    /* \"#utility.yul\":2065:2071   */\n  dup3\n    /* \"#utility.yul\":2058:2063   */\n  dup2\n    /* \"#utility.yul\":2051:2072   */\n  mstore\n    /* \"#utility.yul\":2103:2107   */\n  0x20\n    /* \"#utility.yul\":2096:2101   */\n  dup2\n    /* \"#utility.yul\":2092:2108   */\n  add\n    /* \"#utility.yul\":2141:2144   */\n  dup5\n    /* \"#utility.yul\":2132:2138   */\n  dup5\n    /* \"#utility.yul\":2127:2130   */\n  dup5\n    /* \"#utility.yul\":2123:2139   */\n  add\n    /* \"#utility.yul\":2120:2145   */\n  gt\n    /* \"#utility.yul\":2117:2229   */\n  iszero\n  tag_70\n  jumpi\n    /* \"#utility.yul\":2148:2227   */\n  tag_71\n  tag_16\n  jump\t// in\ntag_71:\n    /* \"#utility.yul\":2117:2229   */\ntag_70:\n    /* \"#utility.yul\":2238:2290   */\n  tag_72\n    /* \"#utility.yul\":2283:2289   */\n  dup5\n    /* \"#utility.yul\":2278:2281   */\n  dup3\n    /* \"#utility.yul\":2273:2276   */\n  dup6\n    /* \"#utility.yul\":2238:2290   */\n  tag_22\n  jump\t// in\ntag_72:\n    /* \"#utility.yul\":1957:2296   */\n  pop\n    /* \"#utility.yul\":1862:2296   */\n  swap4\n  swap3\n  pop\n  pop\n  pop\n  jump\t// out\n    /* \"#utility.yul\":2316:2671   */\ntag_24:\n    /* \"#utility.yul\":2383:2388   */\n  0x00\n    /* \"#utility.yul\":2432:2435   */\n  dup3\n    /* \"#utility.yul\":2425:2429   */\n  0x1f\n    /* \"#utility.yul\":2417:2423   */\n  dup4\n    /* \"#utility.yul\":2413:2430   */\n  add\n    /* \"#utility.yul\":2409:2436   */\n  slt\n    /* \"#utility.yul\":2399:2521   */\n  tag_74\n  jumpi\n    /* \"#utility.yul\":2440:2519   */\n  tag_75\n  tag_15\n  jump\t// in\ntag_75:\n    /* \"#utility.yul\":2399:2521   */\ntag_74:\n    /* \"#utility.yul\":2550:2556   */\n  dup2\n    /* \"#utility.yul\":2544:2557   */\n  mload\n    /* \"#utility.yul\":2575:2665   */\n  tag_76\n    /* \"#utility.yul\":2661:2664   */\n  dup5\n    /* \"#utility.yul\":2653:2659   */\n  dup3\n    /* \"#utility.yul\":2646:2650   */\n  0x20\n    /* \"#utility.yul\":2638:2644   */\n  dup7\n    /* \"#utility.yul\":2634:2651   */\n  add\n    /* \"#utility.yul\":2575:2665   */\n  tag_23\n  jump\t// in\ntag_76:\n    /* \"#utility.yul\":2566:2665   */\n  swap2\n  pop\n    /* \"#utility.yul\":2389:2671   */\n  pop\n    /* \"#utility.yul\":2316:2671   */\n  swap3\n  swap2\n  pop\n  pop\n  jump\t// out\n    /* \"#utility.yul\":2677:3530   */\ntag_3:\n    /* \"#utility.yul\":2776:2782   */\n  0x00\n    /* \"#utility.yul\":2784:2790   */\n  dup1\n    /* \"#utility.yul\":2833:2835   */\n  0x40\n    /* \"#utility.yul\":2821:2830   */\n  dup4\n    /* \"#utility.yul\":2812:2819   */\n  dup6\n    /* \"#utility.yul\":2808:2831   */\n  sub\n    /* \"#utility.yul\":2804:2836   */\n  slt\n    /* \"#utility.yul\":2801:2920   */\n  iszero\n  tag_78\n  jumpi\n    /* \"#utility.yul\":2839:2918   */\n  tag_79\n  tag_13\n  jump\t// in\ntag_79:\n    /* \"#utility.yul\":2801:2920   */\ntag_78:\n    /* \"#utility.yul\":2980:2981   */\n  0x00\n    /* \"#utility.yul\":2969:2978   */\n  dup4\n    /* \"#utility.yul\":2965:2982   */\n  add\n    /* \"#utility.yul\":2959:2983   */\n  mload\n    /* \"#utility.yul\":3010:3028   */\n  0xffffffffffffffff\n    /* \"#utility.yul\":3002:3008   */\n  dup2\n    /* \"#utility.yul\":2999:3029   */\n  gt\n    /* \"#utility.yul\":2996:3113   */\n  iszero\n  tag_80\n  jumpi\n    /* \"#utility.yul\":3032:3111   */\n  tag_81\n  tag_14\n  jump\t// in\ntag_81:\n    /* \"#utility.yul\":2996:3113   */\ntag_80:\n    /* \"#utility.yul\":3137:3211   */\n  tag_82\n    /* \"#utility.yul\":3203:3210   */\n  dup6\n    /* \"#utility.yul\":3194:3200   */\n  dup3\n    /* \"#utility.yul\":3183:3192   */\n  dup7\n    /* \"#utility.yul\":3179:3201   */\n  add\n    /* \"#utility.yul\":3137:3211   */\n  tag_24\n  jump\t// in\ntag_82:\n    /* \"#utility.yul\":3127:3211   */\n  swap3\n  pop\n    /* \"#utility.yul\":2930:3221   */\n  pop\n    /* \"#utility.yul\":3281:3283   */\n  0x20\n    /* \"#utility.yul\":3270:3279   */\n  dup4\n    /* \"#utility.yul\":3266:3284   */\n  add\n    /* \"#utility.yul\":3260:3285   */\n  mload\n    /* \"#utility.yul\":3312:3330   */\n  0xffffffffffffffff\n    /* \"#utility.yul\":3304:3310   */\n  dup2\n    /* \"#utility.yul\":3301:3331   */\n  gt\n    /* \"#utility.yul\":3298:3415   */\n  iszero\n  tag_83\n  jumpi\n    /* \"#utility.yul\":3334:3413   */\n  tag_84\n  tag_14\n  jump\t// in\ntag_84:\n    /* \"#utility.yul\":3298:3415   */\ntag_83:\n    /* \"#utility.yul\":3439:3513   */\n  tag_85\n    /* \"#utility.yul\":3505:3512   */\n  dup6\n    /* \"#utility.yul\":3496:3502   */\n  dup3\n    /* \"#utility.yul\":3485:3494   */\n  dup7\n    /* \"#utility.yul\":3481:3503   */\n  add\n    /* \"#utility.yul\":3439:3513   */\n  tag_24\n  jump\t// in\ntag_85:\n    /* \"#utility.yul\":3429:3513   */\n  swap2\n  pop\n    /* \"#utility.yul\":3231:3523   */\n  pop\n    /* \"#utility.yul\":2677:3530   */\n  swap3\n  pop\n  swap3\n  swap1\n  pop\n  jump\t// out\n    /* \"#utility.yul\":3536:3635   */\ntag_25:\n    /* \"#utility.yul\":3588:3594   */\n  0x00\n    /* \"#utility.yul\":3622:3627   */\n  dup2\n    /* \"#utility.yul\":3616:3628   */\n  mload\n    /* \"#utility.yul\":3606:3628   */\n  swap1\n  pop\n    /* \"#utility.yul\":3536:3635   */\n  swap2\n  swap1\n  pop\n  jump\t// out\n    /* \"#utility.yul\":3641:3821   */\ntag_26:\n    /* \"#utility.yul\":3689:3766   */\n  0x4e487b7100000000000000000000000000000000000000000000000000000000\n    /* \"#utility.yul\":3686:3687   */\n  0x00\n    /* \"#utility.yul\":3679:3767   */\n  mstore\n    /* \"#utility.yul\":3786:3790   */\n  0x22\n    /* \"#utility.yul\":3783:3784   */\n  0x04\n    /* \"#utility.yul\":3776:3791   */\n  mstore\n    /* \"#utility.yul\":3810:3814   */\n  0x24\n    /* \"#utility.yul\":3807:3808   */\n  0x00\n    /* \"#utility.yul\":3800:3815   */\n  revert\n    /* \"#utility.yul\":3827:4147   */\ntag_27:\n    /* \"#utility.yul\":3871:3877   */\n  0x00\n    /* \"#utility.yul\":3908:3909   */\n  0x02\n    /* \"#utility.yul\":3902:3906   */\n  dup3\n    /* \"#utility.yul\":3898:3910   */\n  div\n    /* \"#utility.yul\":3888:3910   */\n  swap1\n  pop\n    /* \"#utility.yul\":3955:3956   */\n  0x01\n    /* \"#utility.yul\":3949:3953   */\n  dup3\n    /* \"#utility.yul\":3945:3957   */\n  and\n    /* \"#utility.yul\":3976:3994   */\n  dup1\n    /* \"#utility.yul\":3966:4047   */\n  tag_89\n  jumpi\n    /* \"#utility.yul\":4032:4036   */\n  0x7f\n    /* \"#utility.yul\":4024:4030   */\n  dup3\n    /* \"#utility.yul\":4020:4037   */\n  and\n    /* \"#utility.yul\":4010:4037   */\n  swap2\n  pop\n    /* \"#utility.yul\":3966:4047   */\ntag_89:\n    /* \"#utility.yul\":4094:4096   */\n  0x20\n    /* \"#utility.yul\":4086:4092   */\n  dup3\n    /* \"#utility.yul\":4083:4097   */\n  lt\n    /* \"#utility.yul\":4063:4081   */\n  dup2\n    /* \"#utility.yul\":4060:4098   */\n  sub\n    /* \"#utility.yul\":4057:4141   */\n  tag_90\n  jumpi\n    /* \"#utility.yul\":4113:4131   */\n  tag_91\n  tag_26\n  jump\t// in\ntag_91:\n    /* \"#utility.yul\":4057:4141   */\ntag_90:\n    /* \"#utility.yul\":3878:4147   */\n  pop\n    /* \"#utility.yul\":3827:4147   */\n  swap2\n  swap1\n  pop\n  jump\t// out\n    /* \"#utility.yul\":4153:4294   */\ntag_28:\n    /* \"#utility.yul\":4202:4206   */\n  0x00\n    /* \"#utility.yul\":4225:4228   */\n  dup2\n    /* \"#utility.yul\":4217:4228   */\n  swap1\n  pop\n    /* \"#utility.yul\":4248:4251   */\n  dup2\n    /* \"#utility.yul\":4245:4246   */\n  0x00\n    /* \"#utility.yul\":4238:4252   */\n  mstore\n    /* \"#utility.yul\":4282:4286   */\n  0x20\n    /* \"#utility.yul\":4279:4280   */\n  0x00\n    /* \"#utility.yul\":4269:4287   */\n  keccak256\n    /* \"#utility.yul\":4261:4287   */\n  swap1\n  pop\n    /* \"#utility.yul\":4153:4294   */\n  swap2\n  swap1\n  pop\n  jump\t// out\n    /* \"#utility.yul\":4300:4393   */\ntag_29:\n    /* \"#utility.yul\":4337:4343   */\n  0x00\n    /* \"#utility.yul\":4384:4386   */\n  0x20\n    /* \"#utility.yul\":4379:4381   */\n  0x1f\n    /* \"#utility.yul\":4372:4377   */\n  dup4\n    /* \"#utility.yul\":4368:4382   */\n  add\n    /* \"#utility.yul\":4364:4387   */\n  div\n    /* \"#utility.yul\":4354:4387   */\n  swap1\n  pop\n    /* \"#utility.yul\":4300:4393   */\n  swap2\n  swap1\n  pop\n  jump\t// out\n    /* \"#utility.yul\":4399:4506   */\ntag_30:\n    /* \"#utility.yul\":4443:4451   */\n  0x00\n    /* \"#utility.yul\":4493:4498   */\n  dup3\n    /* \"#utility.yul\":4487:4491   */\n  dup3\n    /* \"#utility.yul\":4483:4499   */\n  shl\n    /* \"#utility.yul\":4462:4499   */\n  swap1\n  pop\n    /* \"#utility.yul\":4399:4506   */\n  swap3\n  swap2\n  pop\n  pop\n  jump\t// out\n    /* \"#utility.yul\":4512:4905   */\ntag_31:\n    /* \"#utility.yul\":4581:4587   */\n  0x00\n    /* \"#utility.yul\":4631:4632   */\n  0x08\n    /* \"#utility.yul\":4619:4629   */\n  dup4\n    /* \"#utility.yul\":4615:4633   */\n  mul\n    /* \"#utility.yul\":4654:4751   */\n  tag_96\n    /* \"#utility.yul\":4684:4750   */\n  0xffffffffffffffffffffffffffffffffffffffffffffffffffffffffffffffff\n    /* \"#utility.yul\":4673:4682   */\n  dup3\n    /* \"#utility.yul\":4654:4751   */\n  tag_30\n  jump\t// in\ntag_96:\n    /* \"#utility.yul\":4772:4811   */\n  tag_97\n    /* \"#utility.yul\":4802:4810   */\n  dup7\n    /* \"#utility.yul\":4791:4800   */\n  dup4\n    /* \"#utility.yul\":4772:4811   */\n  tag_30\n  jump\t// in\ntag_97:\n    /* \"#utility.yul\":4760:4811   */\n  swap6\n  pop\n    /* \"#utility.yul\":4844:4848   */\n  dup1\n    /* \"#utility.yul\":4840:4849   */\n  not\n    /* \"#utility.yul\":4833:4838   */\n  dup5\n    /* \"#utility.yul\":4829:4850   */\n  and\n    /* \"#utility.yul\":4820:4850   */\n  swap4\n  pop\n    /* \"#utility.yul\":4893:4897   */\n  dup1\n    /* \"#utility.yul\":4883:4891   */\n  dup7\n    /* \"#utility.yul\":4879:4898   */\n  and\n    /* \"#utility.yul\":4872:4877   */\n  dup5\n    /* \"#utility.yul\":4869:4899   */\n  or\n    /* \"#utility.yul\":4859:4899   */\n  swap3\n  pop\n    /* \"#utility.yul\":4588:4905   */\n  pop\n  pop\n    /* \"#utility.yul\":4512:4905   */\n  swap4\n  swap3\n  pop\n  pop\n  pop\n  jump\t// out\n    /* \"#utility.yul\":4911:4988   */\ntag_32:\n    /* \"#utility.yul\":4948:4955   */\n  0x00\n    /* \"#utility.yul\":4977:4982   */\n  dup2\n    /* \"#utility.yul\":4966:4982   */\n  swap1\n  pop\n    /* \"#utility.yul\":4911:4988   */\n  swap2\n  swap1\n  pop\n  jump\t// out\n    /* \"#utility.yul\":4994:5054   */\ntag_33:\n    /* \"#utility.yul\":5022:5025   */\n  0x00\n    /* \"#utility.yul\":5043:5048   */\n  dup2\n    /* \"#utility.yul\":5036:5048   */\n  swap1\n  pop\n    /* \"#utility.yul\":4994:5054   */\n  swap2\n  swap1\n  pop\n  jump\t// out\n    /* \"#utility.yul\":5060:5202   */\ntag_34:\n    /* \"#utility.yul\":5110:5119   */\n  0x00\n    /* \"#utility.yul\":5143:5196   */\n  tag_101\n    /* \"#utility.yul\":5161:5195   */\n  tag_102\n    /* \"#utility.yul\":5170:5194   */\n  tag_103\n    /* \"#utility.yul\":5188:5193   */\n  dup5\n    /* \"#utility.yul\":5170:5194   */\n  tag_32\n  jump\t// in\ntag_103:\n    /* \"#utility.yul\":5161:5195   */\n  tag_33\n  jump\t// in\ntag_102:\n    /* \"#utility.yul\":5143:5196   */\n  tag_32\n  jump\t// in\ntag_101:\n    /* \"#utility.yul\":5130:5196   */\n  swap1\n  pop\n    /* \"#utility.yul\":5060:5202   */\n  swap2\n  swap1\n  pop\n  jump\t// out\n    /* \"#utility.yul\":5208:5283   */\ntag_35:\n    /* \"#utility.yul\":5251:5254   */\n  0x00\n    /* \"#utility.yul\":5272:5277   */\n  dup2\n    /* \"#utility.yul\":5265:5277   */\n  swap1\n  pop\n    /* \"#utility.yul\":5208:5283   */\n  swap2\n  swap1\n  pop\n  jump\t// out\n    /* \"#utility.yul\":5289:5558   */\ntag_36:\n    /* \"#utility.yul\":5399:5438   */\n  tag_106\n    /* \"#utility.yul\":5430:5437   */\n  dup4\n    /* \"#utility.yul\":5399:5438   */\n  tag_34\n  jump\t// in\ntag_106:\n    /* \"#utility.yul\":5460:5551   */\n  tag_107\n    /* \"#utility.yul\":5509:5550   */\n  tag_108\n    /* \"#utility.yul\":5533:5549   */\n  dup3\n    /* \"#utility.yul\":5509:5550   */\n  tag_35\n  jump\t// in\ntag_108:\n    /* \"#utility.yul\":5501:5507   */\n  dup5\n    /* \"#utility.yul\":5494:5498   */\n  dup5\n    /* \"#utility.yul\":5488:5499   */\n  sload\n    /* \"#utility.yul\":5460:5551   */\n  tag_31\n  jump\t// in\ntag_107:\n    /* \"#utility.yul\":5454:5458   */\n  dup3\n    /* \"#utility.yul\":5447:5552   */\n  sstore\n    /* \"#utility.yul\":5365:5558   */\n  pop\n    /* \"#utility.yul\":5289:5558   */\n  pop\n  pop\n  pop\n  jump\t// out\n    /* \"#utility.yul\":5564:5637   */\ntag_37:\n    /* \"#utility.yul\":5609:5612   */\n  0x00\n    /* \"#utility.yul\":5564:5637   */\n  swap1\n  jump\t// out\n    /* \"#utility.yul\":5643:5832   */\ntag_38:\n    /* \"#utility.yul\":5720:5752   */\n  tag_111\n  tag_37\n  jump\t// in\ntag_111:\n    /* \"#utility.yul\":5761:5826   */\n  tag_112\n    /* \"#utility.yul\":5819:5825   */\n  dup2\n    /* \"#utility.yul\":5811:5817   */\n  dup5\n    /* \"#utility.yul\":5805:5809   */\n  dup5\n    /* \"#utility.yul\":5761:5826   */\n  tag_36\n  jump\t// in\ntag_112:\n    /* \"#utility.yul\":5696:5832   */\n  pop\n    /* \"#utility.yul\":5643:5832   */\n  pop\n  pop\n  jump\t// out\n    /* \"#utility.yul\":5838:6024   */\ntag_39:\n    /* \"#utility.yul\":5898:6018   */\ntag_114:\n    /* \"#utility.yul\":5915:5918   */\n  dup2\n    /* \"#utility.yul\":5908:5913   */\n  dup2\n    /* \"#utility.yul\":5905:5919   */\n  lt\n    /* \"#utility.yul\":5898:6018   */\n  iszero\n  tag_116\n  jumpi\n    /* \"#utility.yul\":5969:6008   */\n  tag_117\n    /* \"#utility.yul\":6006:6007   */\n  0x00\n    /* \"#utility.yul\":5999:6004   */\n  dup3\n    /* \"#utility.yul\":5969:6008   */\n  tag_38\n  jump\t// in\ntag_117:\n    /* \"#utility.yul\":5942:5943   */\n  0x01\n    /* \"#utility.yul\":5935:5940   */\n  dup2\n    /* \"#utility.yul\":5931:5944   */\n  add\n    /* \"#utility.yul\":5922:5944   */\n  swap1\n  pop\n    /* \"#utility.yul\":5898:6018   */\n  jump(tag_114)\ntag_116:\n    /* \"#utility.yul\":5838:6024   */\n  pop\n  pop\n  jump\t// out\n    /* \"#utility.yul\":6030:6573   */\ntag_40:\n    /* \"#utility.yul\":6131:6133   */\n  0x1f\n    /* \"#utility.yul\":6126:6129   */\n  dup3\n    /* \"#utility.yul\":6123:6134   */\n  gt\n    /* \"#utility.yul\":6120:6566   */\n  iszero\n  tag_119\n  jumpi\n    /* \"#utility.yul\":6165:6203   */\n  tag_120\n    /* \"#utility.yul\":6197:6202   */\n  dup2\n    /* \"#utility.yul\":6165:6203   */\n  tag_28\n  jump\t// in\ntag_120:\n    /* \"#utility.yul\":6249:6278   */\n  tag_121\n    /* \"#utility.yul\":6267:6277   */\n  dup5\n    /* \"#utility.yul\":6249:6278   */\n  tag_29\n  jump\t// in\ntag_121:\n    /* \"#utility.yul\":6239:6247   */\n  dup2\n    /* \"#utility.yul\":6235:6279   */\n  add\n    /* \"#utility.yul\":6432:6434   */\n  0x20\n    /* \"#utility.yul\":6420:6430   */\n  dup6\n    /* \"#utility.yul\":6417:6435   */\n  lt\n    /* \"#utility.yul\":6414:6463   */\n  iszero\n  tag_122\n  jumpi\n    /* \"#utility.yul\":6453:6461   */\n  dup2\n    /* \"#utility.yul\":6438:6461   */\n  swap1\n  pop\n    /* \"#utility.yul\":6414:6463   */\ntag_122:\n    /* \"#utility.yul\":6476:6556   */\n  tag_123\n    /* \"#utility.yul\":6532:6554   */\n  tag_124\n    /* \"#utility.yul\":6550:6553   */\n  dup6\n    /* \"#utility.yul\":6532:6554   */\n  tag_29\n  jump\t// in\ntag_124:\n    /* \"#utility.yul\":6522:6530   */\n  dup4\n    /* \"#utility.yul\":6518:6555   */\n  add\n    /* \"#utility.yul\":6505:6516   */\n  dup3\n    /* \"#utility.yul\":6476:6556   */\n  tag_39\n  jump\t// in\ntag_123:\n    /* \"#utility.yul\":6135:6566   */\n  pop\n  pop\n    /* \"#utility.yul\":6120:6566   */\ntag_119:\n    /* \"#utility.yul\":6030:6573   */\n  pop\n  pop\n  pop\n  jump\t// out\n    /* \"#utility.yul\":6579:6696   */\ntag_41:\n    /* \"#utility.yul\":6633:6641   */\n  0x00\n    /* \"#utility.yul\":6683:6688   */\n  dup3\n    /* \"#utility.yul\":6677:6681   */\n  dup3\n    /* \"#utility.yul\":6673:6689   */\n  shr\n    /* \"#utility.yul\":6652:6689   */\n  swap1\n  pop\n    /* \"#utility.yul\":6579:6696   */\n  swap3\n  swap2\n  pop\n  pop\n  jump\t// out\n    /* \"#utility.yul\":6702:6871   */\ntag_42:\n    /* \"#utility.yul\":6746:6752   */\n  0x00\n    /* \"#utility.yul\":6779:6830   */\n  tag_127\n    /* \"#utility.yul\":6827:6828   */\n  0x00\n    /* \"#utility.yul\":6823:6829   */\n  not\n    /* \"#utility.yul\":6815:6820   */\n  dup5\n    /* \"#utility.yul\":6812:6813   */\n  0x08\n    /* \"#utility.yul\":6808:6821   */\n  mul\n    /* \"#utility.yul\":6779:6830   */\n  tag_41\n  jump\t// in\ntag_127:\n    /* \"#utility.yul\":6775:6831   */\n  not\n    /* \"#utility.yul\":6860:6864   */\n  dup1\n    /* \"#utility.yul\":6854:6858   */\n  dup4\n    /* \"#utility.yul\":6850:6865   */\n  and\n    /* \"#utility.yul\":6840:6865   */\n  swap2\n  pop\n    /* \"#utility.yul\":6753:6871   */\n  pop\n    /* \"#utility.yul\":6702:6871   */\n  swap3\n  swap2\n  pop\n  pop\n  jump\t// out\n    /* \"#utility.yul\":6876:7171   */\ntag_43:\n    /* \"#utility.yul\":6952:6956   */\n  0x00\n    /* \"#utility.yul\":7098:7127   */\n  tag_129\n    /* \"#utility.yul\":7123:7126   */\n  dup4\n    /* \"#utility.yul\":7117:7121   */\n  dup4\n    /* \"#utility.yul\":7098:7127   */\n  tag_42\n  jump\t// in\ntag_129:\n    /* \"#utility.yul\":7090:7127   */\n  swap2\n  pop\n    /* \"#utility.yul\":7160:7163   */\n  dup3\n    /* \"#utility.yul\":7157:7158   */\n  0x02\n    /* \"#utility.yul\":7153:7164   */\n  mul\n    /* \"#utility.yul\":7147:7151   */\n  dup3\n    /* \"#utility.yul\":7144:7165   */\n  or\n    /* \"#utility.yul\":7136:7165   */\n  swap1\n  pop\n    /* \"#utility.yul\":6876:7171   */\n  swap3\n  swap2\n  pop\n  pop\n  jump\t// out\n    /* \"#utility.yul\":7176:8571   */\ntag_8:\n    /* \"#utility.yul\":7293:7330   */\n  tag_131\n    /* \"#utility.yul\":7326:7329   */\n  dup3\n    /* \"#utility.yul\":7293:7330   */\n  tag_25\n  jump\t// in\ntag_131:\n    /* \"#utility.yul\":7395:7413   */\n  0xffffffffffffffff\n    /* \"#utility.yul\":7387:7393   */\n  dup2\n    /* \"#utility.yul\":7384:7414   */\n  gt\n    /* \"#utility.yul\":7381:7437   */\n  iszero\n  tag_132\n  jumpi\n    /* \"#utility.yul\":7417:7435   */\n  tag_133\n  tag_18\n  jump\t// in\ntag_133:\n    /* \"#utility.yul\":7381:7437   */\ntag_132:\n    /* \"#utility.yul\":7461:7499   */\n  tag_134\n    /* \"#utility.yul\":7493:7497   */\n  dup3\n    /* \"#utility.yul\":7487:7498   */\n  sload\n    /* \"#utility.yul\":7461:7499   */\n  tag_27\n  jump\t// in\ntag_134:\n    /* \"#utility.yul\":7546:7613   */\n  tag_135\n    /* \"#utility.yul\":7606:7612   */\n  dup3\n    /* \"#utility.yul\":7598:7604   */\n  dup3\n    /* \"#utility.yul\":7592:7596   */\n  dup6\n    /* \"#utility.yul\":7546:7613   */\n  tag_40\n  jump\t// in\ntag_135:\n    /* \"#utility.yul\":7640:7641   */\n  0x00\n    /* \"#utility.yul\":7664:7668   */\n  0x20\n    /* \"#utility.yul\":7651:7668   */\n  swap1\n  pop\n    /* \"#utility.yul\":7696:7698   */\n  0x1f\n    /* \"#utility.yul\":7688:7694   */\n  dup4\n    /* \"#utility.yul\":7685:7699   */\n  gt\n    /* \"#utility.yul\":7713:7714   */\n  0x01\n    /* \"#utility.yul\":7708:8326   */\n  dup2\n  eq\n  tag_137\n  jumpi\n    /* \"#utility.yul\":8370:8371   */\n  0x00\n    /* \"#utility.yul\":8387:8393   */\n  dup5\n    /* \"#utility.yul\":8384:8461   */\n  iszero\n  tag_138\n  jumpi\n    /* \"#utility.yul\":8436:8445   */\n  dup3\n    /* \"#utility.yul\":8431:8434   */\n  dup8\n    /* \"#utility.yul\":8427:8446   */\n  add\n    /* \"#utility.yul\":8421:8447   */\n  mload\n    /* \"#utility.yul\":8412:8447   */\n  swap1\n  pop\n    /* \"#utility.yul\":8384:8461   */\ntag_138:\n    /* \"#utility.yul\":8487:8554   */\n  tag_139\n    /* \"#utility.yul\":8547:8553   */\n  dup6\n    /* \"#utility.yul\":8540:8545   */\n  dup3\n    /* \"#utility.yul\":8487:8554   */\n  tag_43\n  jump\t// in\ntag_139:\n    /* \"#utility.yul\":8481:8485   */\n  dup7\n    /* \"#utility.yul\":8474:8555   */\n  sstore\n    /* \"#utility.yul\":8343:8565   */\n  pop\n    /* \"#utility.yul\":7678:8565   */\n  jump(tag_136)\n    /* \"#utility.yul\":7708:8326   */\ntag_137:\n    /* \"#utility.yul\":7760:7764   */\n  0x1f\n    /* \"#utility.yul\":7756:7765   */\n  not\n    /* \"#utility.yul\":7748:7754   */\n  dup5\n    /* \"#utility.yul\":7744:7766   */\n  and\n    /* \"#utility.yul\":7794:7831   */\n  tag_140\n    /* \"#utility.yul\":7826:7830   */\n  dup7\n    /* \"#utility.yul\":7794:7831   */\n  tag_28\n  jump\t// in\ntag_140:\n    /* \"#utility.yul\":7853:7854   */\n  0x00\n    /* \"#utility.yul\":7867:8075   */\ntag_141:\n    /* \"#utility.yul\":7881:7888   */\n  dup3\n    /* \"#utility.yul\":7878:7879   */\n  dup2\n    /* \"#utility.yul\":7875:7889   */\n  lt\n    /* \"#utility.yul\":7867:8075   */\n  iszero\n  tag_143\n  jumpi\n    /* \"#utility.yul\":7960:7969   */\n  dup5\n    /* \"#utility.yul\":7955:7958   */\n  dup10\n    /* \"#utility.yul\":7951:7970   */\n  add\n    /* \"#utility.yul\":7945:7971   */\n  mload\n    /* \"#utility.yul\":7937:7943   */\n  dup3\n    /* \"#utility.yul\":7930:7972   */\n  sstore\n    /* \"#utility.yul\":8011:8012   */\n  0x01\n    /* \"#utility.yul\":8003:8009   */\n  dup3\n    /* \"#utility.yul\":7999:8013   */\n  add\n    /* \"#utility.yul\":7989:8013   */\n  swap2\n  pop\n    /* \"#utility.yul\":8058:8060   */\n  0x20\n    /* \"#utility.yul\":8047:8056   */\n  dup6\n    /* \"#utility.yul\":8043:8061   */\n  add\n    /* \"#utility.yul\":8030:8061   */\n  swap5\n  pop\n    /* \"#utility.yul\":7904:7908   */\n  0x20\n    /* \"#utility.yul\":7901:7902   */\n  dup2\n    /* \"#utility.yul\":7897:7909   */\n  add\n    /* \"#utility.yul\":7892:7909   */\n  swap1\n  pop\n    /* \"#utility.yul\":7867:8075   */\n  jump(tag_141)\ntag_143:\n    /* \"#utility.yul\":8103:8109   */\n  dup7\n    /* \"#utility.yul\":8094:8101   */\n  dup4\n    /* \"#utility.yul\":8091:8110   */\n  lt\n    /* \"#utility.yul\":8088:8267   */\n  iszero\n  tag_144\n  jumpi\n    /* \"#utility.yul\":8161:8170   */\n  dup5\n    /* \"#utility.yul\":8156:8159   */\n  dup10\n    /* \"#utility.yul\":8152:8171   */\n  add\n    /* \"#utility.yul\":8146:8172   */\n  mload\n    /* \"#utility.yul\":8204:8252   */\n  tag_145\n    /* \"#utility.yul\":8246:8250   */\n  0x1f\n    /* \"#utility.yul\":8238:8244   */\n  dup10\n    /* \"#utility.yul\":8234:8251   */\n  and\n    /* \"#utility.yul\":8223:8232   */\n  dup3\n    /* \"#utility.yul\":8204:8252   */\n  tag_42\n  jump\t// in\ntag_145:\n    /* \"#utility.yul\":8196:8202   */\n  dup4\n    /* \"#utility.yul\":8189:8253   */\n  sstore\n    /* \"#utility.yul\":8111:8267   */\n  pop\n    /* \"#utility.yul\":8088:8267   */\ntag_144:\n    /* \"#utility.yul\":8313:8314   */\n  0x01\n    /* \"#utility.yul\":8309:8310   */\n  0x02\n    /* \"#utility.yul\":8301:8307   */\n  dup9\n    /* \"#utility.yul\":8297:8311   */\n  mul\n    /* \"#utility.yul\":8293:8315   */\n  add\n    /* \"#utility.yul\":8287:8291   */\n  dup9\n    /* \"#utility.yul\":8280:8316   */\n  sstore\n    /* \"#utility.yul\":7715:8326   */\n  pop\n  pop\n  pop\n    /* \"#utility.yul\":7678:8565   */\ntag_136:\n  pop\n    /* \"#utility.yul\":7268:8571   */\n  pop\n  pop\n  pop\n    /* \"#utility.yul\":7176:8571   */\n  pop\n  pop\n  jump\t// out\n    /* \"contracts/MKNFT.sol\":90:554  contract MKNFT is ERC721 {... */\ntag_11:\n  dataSize(sub_0)\n  dup1\n  dataOffset(sub_0)\n  0x00\n  codecopy\n  0x00\n  return\nstop\n\nsub_0: assembly {\n        /* \"contracts/MKNFT.sol\":90:554  contract MKNFT is ERC721 {... */\n      mstore(0x40, 0x80)\n      callvalue\n      dup1\n      iszero\n      tag_1\n      jumpi\n      0x00\n      dup1\n      revert\n    tag_1:\n      pop\n      jumpi(tag_2, lt(calldatasize, 0x04))\n      shr(0xe0, calldataload(0x00))\n      dup1\n      0x6352211e\n      gt\n      tag_18\n      jumpi\n      dup1\n      0xa22cb465\n      gt\n      tag_19\n      jumpi\n      dup1\n      0xa22cb465\n      eq\n      tag_14\n      jumpi\n      dup1\n      0xb88d4fde\n      eq\n      tag_15\n      jumpi\n      dup1\n      0xc87b56dd\n      eq\n      tag_16\n      jumpi\n      dup1\n      0xe985e9c5\n      eq\n      tag_17\n      jumpi\n      jump(tag_2)\n    tag_19:\n      dup1\n      0x6352211e\n      eq\n      tag_10\n      jumpi\n      dup1\n      0x6fdaddf1\n      eq\n      tag_11\n      jumpi\n      dup1\n      0x70a08231\n      eq\n      tag_12\n      jumpi\n      dup1\n      0x95d89b41\n      eq\n      tag_13\n      jumpi\n      jump(tag_2)\n    tag_18:\n      dup1\n      0x095ea7b3\n      gt\n      tag_20\n      jumpi\n      dup1\n      0x095ea7b3\n      eq\n      tag_6\n      jumpi\n      dup1\n      0x23b872dd\n      eq\n      tag_7\n      jumpi\n      dup1\n      0x40c10f19\n      eq\n      tag_8\n      jumpi\n      dup1\n      0x42842e0e\n      eq\n      tag_9\n      jumpi\n      jump(tag_2)\n    tag_20:\n      dup1\n      0x01ffc9a7\n      eq\n      tag_3\n      jumpi\n      dup1\n      0x06fdde03\n      eq\n      tag_4\n      jumpi\n      dup1\n      0x081812fc\n      eq\n      tag_5\n      jumpi\n    tag_2:\n      0x00\n      dup1\n      revert\n        /* \"contracts/ERC721.sol\":1235:1552  function supportsInterface(bytes4 interfaceId)... */\n    tag_3:\n      tag_21\n      0x04\n      dup1\n      calldatasize\n      sub\n      dup2\n      add\n      swap1\n      tag_22\n      swap2\n      swap1\n      tag_23\n      jump\t// in\n    tag_22:\n      tag_24\n      jump\t// in\n    tag_21:\n      mload(0x40)\n      tag_25\n      swap2\n      swap1\n      tag_26\n      jump\t// in\n    tag_25:\n      mload(0x40)\n      dup1\n      swap2\n      sub\n      swap1\n      return\n        /* \"contracts/ERC721.sol\":480:507  string public override name */\n    tag_4:\n      tag_27\n      tag_28\n      jump\t// in\n    tag_27:\n      mload(0x40)\n      tag_29\n      swap2\n      swap1\n      tag_30\n      jump\t// in\n    tag_29:\n      mload(0x40)\n      dup1\n      swap2\n      sub\n      swap1\n      return\n        /* \"contracts/ERC721.sol\":2860:3052  function getApproved(uint tokenId) external view override returns (address) {... */\n    tag_5:\n      tag_31\n      0x04\n      dup1\n      calldatasize\n      sub\n      dup2\n      add\n      swap1\n      tag_32\n      swap2\n      swap1\n      tag_33\n      jump\t// in\n    tag_32:\n      tag_34\n      jump\t// in\n    tag_31:\n      mload(0x40)\n      tag_35\n      swap2\n      swap1\n      tag_36\n      jump\t// in\n    tag_35:\n      mload(0x40)\n      dup1\n      swap2\n      sub\n      swap1\n      return\n        /* \"contracts/ERC721.sol\":3521:3819  function approve(address to, uint tokenId) external override {... */\n    tag_6:\n      tag_37\n      0x04\n      dup1\n      calldatasize\n      sub\n      dup2\n      add\n      swap1\n      tag_38\n      swap2\n      swap1\n      tag_39\n      jump\t// in\n    tag_38:\n      tag_40\n      jump\t// in\n    tag_37:\n      stop\n        /* \"contracts/ERC721.sol\":4934:5263  function transferFrom(... */\n    tag_7:\n      tag_41\n      0x04\n      dup1\n      calldatasize\n      sub\n      dup2\n      add\n      swap1\n      tag_42\n      swap2\n      swap1\n      tag_43\n      jump\t// in\n    tag_42:\n      tag_44\n      jump\t// in\n    tag_41:\n      stop\n        /* \"contracts/MKNFT.sol\":398:552  function mint(address to, uint256 tokenId) external {... */\n    tag_8:\n      tag_45\n      0x04\n      dup1\n      calldatasize\n      sub\n      dup2\n      add\n      swap1\n      tag_46\n      swap2\n      swap1\n      tag_39\n      jump\t// in\n    tag_46:\n      tag_47\n      jump\t// in\n    tag_45:\n      stop\n        /* \"contracts/ERC721.sol\":6528:6698  function safeTransferFrom(... */\n    tag_9:\n      tag_48\n      0x04\n      dup1\n      calldatasize\n      sub\n      dup2\n      add\n      swap1\n      tag_49\n      swap2\n      swap1\n      tag_43\n      jump\t// in\n    tag_49:\n      tag_50\n      jump\t// in\n    tag_48:\n      stop\n        /* \"contracts/ERC721.sol\":1902:2080  function ownerOf(uint tokenId) public view override returns (address owner) {... */\n    tag_10:\n      tag_51\n      0x04\n      dup1\n      calldatasize\n      sub\n      dup2\n      add\n      swap1\n      tag_52\n      swap2\n      swap1\n      tag_33\n      jump\t// in\n    tag_52:\n      tag_53\n      jump\t// in\n    tag_51:\n      mload(0x40)\n      tag_54\n      swap2\n      swap1\n      tag_36\n      jump\t// in\n    tag_54:\n      mload(0x40)\n      dup1\n      swap2\n      sub\n      swap1\n      return\n        /* \"contracts/MKNFT.sol\":121:148  uint public MAX_NFT = 10000 */\n    tag_11:\n      tag_55\n      tag_56\n      jump\t// in\n    tag_55:\n      mload(0x40)\n      tag_57\n      swap2\n      swap1\n      tag_58\n      jump\t// in\n    tag_57:\n      mload(0x40)\n      dup1\n      swap2\n      sub\n      swap1\n      return\n        /* \"contracts/ERC721.sol\":1645:1819  function balanceOf(address owner) external view override returns (uint) {... */\n    tag_12:\n      tag_59\n      0x04\n      dup1\n      calldatasize\n      sub\n      dup2\n      add\n      swap1\n      tag_60\n      swap2\n      swap1\n      tag_61\n      jump\t// in\n    tag_60:\n      tag_62\n      jump\t// in\n    tag_59:\n      mload(0x40)\n      tag_63\n      swap2\n      swap1\n      tag_58\n      jump\t// in\n    tag_63:\n      mload(0x40)\n      dup1\n      swap2\n      sub\n      swap1\n      return\n        /* \"contracts/ERC721.sol\":532:561  string public override symbol */\n    tag_13:\n      tag_64\n      tag_65\n      jump\t// in\n    tag_64:\n      mload(0x40)\n      tag_66\n      swap2\n      swap1\n      tag_30\n      jump\t// in\n    tag_66:\n      mload(0x40)\n      dup1\n      swap2\n      sub\n      swap1\n      return\n        /* \"contracts/ERC721.sol\":2551:2758  function setApprovalForAll(address operator, bool approved) external override {... */\n    tag_14:\n      tag_67\n      0x04\n      dup1\n      calldatasize\n      sub\n      dup2\n      add\n      swap1\n      tag_68\n      swap2\n      swap1\n      tag_69\n      jump\t// in\n    tag_68:\n      tag_70\n      jump\t// in\n    tag_67:\n      stop\n        /* \"contracts/ERC721.sol\":6116:6486  function safeTransferFrom(... */\n    tag_15:\n      tag_71\n      0x04\n      dup1\n      calldatasize\n      sub\n      dup2\n      add\n      swap1\n      tag_72\n      swap2\n      swap1\n      tag_73\n      jump\t// in\n    tag_72:\n      tag_74\n      jump\t// in\n    tag_71:\n      stop\n        /* \"contracts/ERC721.sol\":8644:8955  function tokenURI(uint256 tokenId) public view virtual override returns (string memory) {... */\n    tag_16:\n      tag_75\n      0x04\n      dup1\n      calldatasize\n      sub\n      dup2\n      add\n      swap1\n      tag_76\n      swap2\n      swap1\n      tag_33\n      jump\t// in\n    tag_76:\n      tag_77\n      jump\t// in\n    tag_75:\n      mload(0x40)\n      tag_78\n      swap2\n      swap1\n      tag_30\n      jump\t// in\n    tag_78:\n      mload(0x40)\n      dup1\n      swap2\n      sub\n      swap1\n      return\n        /* \"contracts/ERC721.sol\":2229:2421  function isApprovedForAll(address owner, address operator)... */\n    tag_17:\n      tag_79\n      0x04\n      dup1\n      calldatasize\n      sub\n      dup2\n      add\n      swap1\n      tag_80\n      swap2\n      swap1\n      tag_81\n      jump\t// in\n    tag_80:\n      tag_82\n      jump\t// in\n    tag_79:\n      mload(0x40)\n      tag_83\n      swap2\n      swap1\n      tag_26\n      jump\t// in\n    tag_83:\n      mload(0x40)\n      dup1\n      swap2\n      sub\n      swap1\n      return\n        /* \"contracts/ERC721.sol\":1235:1552  function supportsInterface(bytes4 interfaceId)... */\n    tag_24:\n        /* \"contracts/ERC721.sol\":1346:1350  bool */\n      0x00\n        /* \"contracts/ERC721.sol\":1400:1425  type(IERC721).interfaceId */\n      0x80ac58cd00000000000000000000000000000000000000000000000000000000\n        /* \"contracts/ERC721.sol\":1385:1425  interfaceId == type(IERC721).interfaceId */\n      not(0xffffffffffffffffffffffffffffffffffffffffffffffffffffffff)\n      and\n        /* \"contracts/ERC721.sol\":1385:1396  interfaceId */\n      dup3\n        /* \"contracts/ERC721.sol\":1385:1425  interfaceId == type(IERC721).interfaceId */\n      not(0xffffffffffffffffffffffffffffffffffffffffffffffffffffffff)\n      and\n      eq\n        /* \"contracts/ERC721.sol\":1385:1481  interfaceId == type(IERC721).interfaceId ||... */\n      dup1\n      tag_85\n      jumpi\n      pop\n        /* \"contracts/ERC721.sol\":1456:1481  type(IERC165).interfaceId */\n      0x01ffc9a700000000000000000000000000000000000000000000000000000000\n        /* \"contracts/ERC721.sol\":1441:1481  interfaceId == type(IERC165).interfaceId */\n      not(0xffffffffffffffffffffffffffffffffffffffffffffffffffffffff)\n      and\n        /* \"contracts/ERC721.sol\":1441:1452  interfaceId */\n      dup3\n        /* \"contracts/ERC721.sol\":1441:1481  interfaceId == type(IERC165).interfaceId */\n      not(0xffffffffffffffffffffffffffffffffffffffffffffffffffffffff)\n      and\n      eq\n        /* \"contracts/ERC721.sol\":1385:1481  interfaceId == type(IERC721).interfaceId ||... */\n    tag_85:\n        /* \"contracts/ERC721.sol\":1385:1545  interfaceId == type(IERC721).interfaceId ||... */\n      dup1\n      tag_86\n      jumpi\n      pop\n        /* \"contracts/ERC721.sol\":1512:1545  type(IERC721Metadata).interfaceId */\n      0x5b5e139f00000000000000000000000000000000000000000000000000000000\n        /* \"contracts/ERC721.sol\":1497:1545  interfaceId == type(IERC721Metadata).interfaceId */\n      not(0xffffffffffffffffffffffffffffffffffffffffffffffffffffffff)\n      and\n        /* \"contracts/ERC721.sol\":1497:1508  interfaceId */\n      dup3\n        /* \"contracts/ERC721.sol\":1497:1545  interfaceId == type(IERC721Metadata).interfaceId */\n      not(0xffffffffffffffffffffffffffffffffffffffffffffffffffffffff)\n      and\n      eq\n        /* \"contracts/ERC721.sol\":1385:1545  interfaceId == type(IERC721).interfaceId ||... */\n    tag_86:\n        /* \"contracts/ERC721.sol\":1366:1545  return... */\n      swap1\n      pop\n        /* \"contracts/ERC721.sol\":1235:1552  function supportsInterface(bytes4 interfaceId)... */\n      swap2\n      swap1\n      pop\n      jump\t// out\n        /* \"contracts/ERC721.sol\":480:507  string public override name */\n    tag_28:\n      0x00\n      dup1\n      sload\n      tag_87\n      swap1\n      tag_88\n      jump\t// in\n    tag_87:\n      dup1\n      0x1f\n      add\n      0x20\n      dup1\n      swap2\n      div\n      mul\n      0x20\n      add\n      mload(0x40)\n      swap1\n      dup2\n      add\n      0x40\n      mstore\n      dup1\n      swap3\n      swap2\n      swap1\n      dup2\n      dup2\n      mstore\n      0x20\n      add\n      dup3\n      dup1\n      sload\n      tag_89\n      swap1\n      tag_88\n      jump\t// in\n    tag_89:\n      dup1\n      iszero\n      tag_90\n      jumpi\n      dup1\n      0x1f\n      lt\n      tag_91\n      jumpi\n      0x0100\n      dup1\n      dup4\n      sload\n      div\n      mul\n      dup4\n      mstore\n      swap2\n      0x20\n      add\n      swap2\n      jump(tag_90)\n    tag_91:\n      dup3\n      add\n      swap2\n      swap1\n      0x00\n      mstore\n      keccak256(0x00, 0x20)\n      swap1\n    tag_92:\n      dup2\n      sload\n      dup2\n      mstore\n      swap1\n      0x01\n      add\n      swap1\n      0x20\n      add\n      dup1\n      dup4\n      gt\n      tag_92\n      jumpi\n      dup3\n      swap1\n      sub\n      0x1f\n      and\n      dup3\n      add\n      swap2\n    tag_90:\n      pop\n      pop\n      pop\n      pop\n      pop\n      dup2\n      jump\t// out\n        /* \"contracts/ERC721.sol\":2860:3052  function getApproved(uint tokenId) external view override returns (address) {... */\n    tag_34:\n        /* \"contracts/ERC721.sol\":2927:2934  address */\n      0x00\n        /* \"contracts/ERC721.sol\":2982:2983  0 */\n      dup1\n        /* \"contracts/ERC721.sol\":2954:2984  _owners[tokenId] != address(0) */\n      0xffffffffffffffffffffffffffffffffffffffff\n      and\n        /* \"contracts/ERC721.sol\":2954:2961  _owners */\n      0x02\n        /* \"contracts/ERC721.sol\":2954:2970  _owners[tokenId] */\n      0x00\n        /* \"contracts/ERC721.sol\":2962:2969  tokenId */\n      dup5\n        /* \"contracts/ERC721.sol\":2954:2970  _owners[tokenId] */\n      dup2\n      mstore\n      0x20\n      add\n      swap1\n      dup2\n      mstore\n      0x20\n      add\n      0x00\n      keccak256\n      0x00\n      swap1\n      sload\n      swap1\n      0x0100\n      exp\n      swap1\n      div\n      0xffffffffffffffffffffffffffffffffffffffff\n      and\n        /* \"contracts/ERC721.sol\":2954:2984  _owners[tokenId] != address(0) */\n      0xffffffffffffffffffffffffffffffffffffffff\n      and\n      sub\n        /* \"contracts/ERC721.sol\":2946:3004  require(_owners[tokenId] != address(0), \"token not valid\") */\n      tag_94\n      jumpi\n      mload(0x40)\n      0x08c379a000000000000000000000000000000000000000000000000000000000\n      dup2\n      mstore\n      0x04\n      add\n      tag_95\n      swap1\n      tag_96\n      jump\t// in\n    tag_95:\n      mload(0x40)\n      dup1\n      swap2\n      sub\n      swap1\n      revert\n    tag_94:\n        /* \"contracts/ERC721.sol\":3021:3036  _tokenApprovals */\n      0x04\n        /* \"contracts/ERC721.sol\":3021:3045  _tokenApprovals[tokenId] */\n      0x00\n        /* \"contracts/ERC721.sol\":3037:3044  tokenId */\n      dup4\n        /* \"contracts/ERC721.sol\":3021:3045  _tokenApprovals[tokenId] */\n      dup2\n      mstore\n      0x20\n      add\n      swap1\n      dup2\n      mstore\n      0x20\n      add\n      0x00\n      keccak256\n      0x00\n      swap1\n      sload\n      swap1\n      0x0100\n      exp\n      swap1\n      div\n      0xffffffffffffffffffffffffffffffffffffffff\n      and\n        /* \"contracts/ERC721.sol\":3014:3045  return _tokenApprovals[tokenId] */\n      swap1\n      pop\n        /* \"contracts/ERC721.sol\":2860:3052  function getApproved(uint tokenId) external view override returns (address) {... */\n      swap2\n      swap1\n      pop\n      jump\t// out\n        /* \"contracts/ERC721.sol\":3521:3819  function approve(address to, uint tokenId) external override {... */\n    tag_40:\n        /* \"contracts/ERC721.sol\":3592:3605  address owner */\n      0x00\n        /* \"contracts/ERC721.sol\":3608:3615  _owners */\n      0x02\n        /* \"contracts/ERC721.sol\":3608:3624  _owners[tokenId] */\n      0x00\n        /* \"contracts/ERC721.sol\":3616:3623  tokenId */\n      dup4\n        /* \"contracts/ERC721.sol\":3608:3624  _owners[tokenId] */\n      dup2\n      mstore\n      0x20\n      add\n      swap1\n      dup2\n      mstore\n      0x20\n      add\n      0x00\n      keccak256\n      0x00\n      swap1\n      sload\n      swap1\n      0x0100\n      exp\n      swap1\n      div\n      0xffffffffffffffffffffffffffffffffffffffff\n      and\n        /* \"contracts/ERC721.sol\":3592:3624  address owner = _owners[tokenId] */\n      swap1\n      pop\n        /* \"contracts/ERC721.sol\":3664:3674  msg.sender */\n      caller\n        /* \"contracts/ERC721.sol\":3655:3674  owner == msg.sender */\n      0xffffffffffffffffffffffffffffffffffffffff\n      and\n        /* \"contracts/ERC721.sol\":3655:3660  owner */\n      dup2\n        /* \"contracts/ERC721.sol\":3655:3674  owner == msg.sender */\n      0xffffffffffffffffffffffffffffffffffffffff\n      and\n      eq\n        /* \"contracts/ERC721.sol\":3655:3727  owner == msg.sender ||... */\n      dup1\n      tag_98\n      jumpi\n      pop\n        /* \"contracts/ERC721.sol\":3690:3708  _operatorApprovals */\n      0x05\n        /* \"contracts/ERC721.sol\":3690:3715  _operatorApprovals[owner] */\n      0x00\n        /* \"contracts/ERC721.sol\":3709:3714  owner */\n      dup3\n        /* \"contracts/ERC721.sol\":3690:3715  _operatorApprovals[owner] */\n      0xffffffffffffffffffffffffffffffffffffffff\n      and\n      0xffffffffffffffffffffffffffffffffffffffff\n      and\n      dup2\n      mstore\n      0x20\n      add\n      swap1\n      dup2\n      mstore\n      0x20\n      add\n      0x00\n      keccak256\n        /* \"contracts/ERC721.sol\":3690:3727  _operatorApprovals[owner][msg.sender] */\n      0x00\n        /* \"contracts/ERC721.sol\":3716:3726  msg.sender */\n      caller\n        /* \"contracts/ERC721.sol\":3690:3727  _operatorApprovals[owner][msg.sender] */\n      0xffffffffffffffffffffffffffffffffffffffff\n      and\n      0xffffffffffffffffffffffffffffffffffffffff\n      and\n      dup2\n      mstore\n      0x20\n      add\n      swap1\n      dup2\n      mstore\n      0x20\n      add\n      0x00\n      keccak256\n      0x00\n      swap1\n      sload\n      swap1\n      0x0100\n      exp\n      swap1\n      div\n      0xff\n      and\n        /* \"contracts/ERC721.sol\":3655:3727  owner == msg.sender ||... */\n    tag_98:\n        /* \"contracts/ERC721.sol\":3634:3774  require(... */\n      tag_99\n      jumpi\n      mload(0x40)\n      0x08c379a000000000000000000000000000000000000000000000000000000000\n      dup2\n      mstore\n      0x04\n      add\n      tag_100\n      swap1\n      tag_101\n      jump\t// in\n    tag_100:\n      mload(0x40)\n      dup1\n      swap2\n      sub\n      swap1\n      revert\n    tag_99:\n        /* \"contracts/ERC721.sol\":3784:3812  _approve(owner, to, tokenId) */\n      tag_102\n        /* \"contracts/ERC721.sol\":3793:3798  owner */\n      dup2\n        /* \"contracts/ERC721.sol\":3800:3802  to */\n      dup5\n        /* \"contracts/ERC721.sol\":3804:3811  tokenId */\n      dup5\n        /* \"contracts/ERC721.sol\":3784:3792  _approve */\n      tag_103\n        /* \"contracts/ERC721.sol\":3784:3812  _approve(owner, to, tokenId) */\n      jump\t// in\n    tag_102:\n        /* \"contracts/ERC721.sol\":3582:3819  {... */\n      pop\n        /* \"contracts/ERC721.sol\":3521:3819  function approve(address to, uint tokenId) external override {... */\n      pop\n      pop\n      jump\t// out\n        /* \"contracts/ERC721.sol\":4934:5263  function transferFrom(... */\n    tag_44:\n        /* \"contracts/ERC721.sol\":5054:5067  address owner */\n      0x00\n        /* \"contracts/ERC721.sol\":5070:5086  ownerOf(tokenId) */\n      tag_105\n        /* \"contracts/ERC721.sol\":5078:5085  tokenId */\n      dup3\n        /* \"contracts/ERC721.sol\":5070:5077  ownerOf */\n      tag_53\n        /* \"contracts/ERC721.sol\":5070:5086  ownerOf(tokenId) */\n      jump\t// in\n    tag_105:\n        /* \"contracts/ERC721.sol\":5054:5086  address owner = ownerOf(tokenId) */\n      swap1\n      pop\n        /* \"contracts/ERC721.sol\":5117:5163  _isApprovedOrOwner(owner, msg.sender, tokenId) */\n      tag_106\n        /* \"contracts/ERC721.sol\":5136:5141  owner */\n      dup2\n        /* \"contracts/ERC721.sol\":5143:5153  msg.sender */\n      caller\n        /* \"contracts/ERC721.sol\":5155:5162  tokenId */\n      dup5\n        /* \"contracts/ERC721.sol\":5117:5135  _isApprovedOrOwner */\n      tag_107\n        /* \"contracts/ERC721.sol\":5117:5163  _isApprovedOrOwner(owner, msg.sender, tokenId) */\n      jump\t// in\n    tag_106:\n        /* \"contracts/ERC721.sol\":5096:5211  require(... */\n      tag_108\n      jumpi\n      mload(0x40)\n      0x08c379a000000000000000000000000000000000000000000000000000000000\n      dup2\n      mstore\n      0x04\n      add\n      tag_109\n      swap1\n      tag_110\n      jump\t// in\n    tag_109:\n      mload(0x40)\n      dup1\n      swap2\n      sub\n      swap1\n      revert\n    tag_108:\n        /* \"contracts/ERC721.sol\":5221:5256  _transfer(owner, from, to, tokenId) */\n      tag_111\n        /* \"contracts/ERC721.sol\":5231:5236  owner */\n      dup2\n        /* \"contracts/ERC721.sol\":5238:5242  from */\n      dup6\n        /* \"contracts/ERC721.sol\":5244:5246  to */\n      dup6\n        /* \"contracts/ERC721.sol\":5248:5255  tokenId */\n      dup6\n        /* \"contracts/ERC721.sol\":5221:5230  _transfer */\n      tag_112\n        /* \"contracts/ERC721.sol\":5221:5256  _transfer(owner, from, to, tokenId) */\n      jump\t// in\n    tag_111:\n        /* \"contracts/ERC721.sol\":5044:5263  {... */\n      pop\n        /* \"contracts/ERC721.sol\":4934:5263  function transferFrom(... */\n      pop\n      pop\n      pop\n      jump\t// out\n        /* \"contracts/MKNFT.sol\":398:552  function mint(address to, uint256 tokenId) external {... */\n    tag_47:\n        /* \"contracts/MKNFT.sol\":478:479  0 */\n      0x00\n        /* \"contracts/MKNFT.sol\":468:475  tokenId */\n      dup2\n        /* \"contracts/MKNFT.sol\":468:479  tokenId > 0 */\n      gt\n        /* \"contracts/MKNFT.sol\":468:500  tokenId > 0 && tokenId < MAX_NFT */\n      dup1\n      iszero\n      tag_114\n      jumpi\n      pop\n        /* \"contracts/MKNFT.sol\":493:500  MAX_NFT */\n      sload(0x06)\n        /* \"contracts/MKNFT.sol\":483:490  tokenId */\n      dup2\n        /* \"contracts/MKNFT.sol\":483:500  tokenId < MAX_NFT */\n      lt\n        /* \"contracts/MKNFT.sol\":468:500  tokenId > 0 && tokenId < MAX_NFT */\n    tag_114:\n        /* \"contracts/MKNFT.sol\":460:517  require(tokenId > 0 && tokenId < MAX_NFT, \"out of range\") */\n      tag_115\n      jumpi\n      mload(0x40)\n      0x08c379a000000000000000000000000000000000000000000000000000000000\n      dup2\n      mstore\n      0x04\n      add\n      tag_116\n      swap1\n      tag_117\n      jump\t// in\n    tag_116:\n      mload(0x40)\n      dup1\n      swap2\n      sub\n      swap1\n      revert\n    tag_115:\n        /* \"contracts/MKNFT.sol\":527:545  _mint(to, tokenId) */\n      tag_118\n        /* \"contracts/MKNFT.sol\":533:535  to */\n      dup3\n        /* \"contracts/MKNFT.sol\":537:544  tokenId */\n      dup3\n        /* \"contracts/MKNFT.sol\":527:532  _mint */\n      tag_119\n        /* \"contracts/MKNFT.sol\":527:545  _mint(to, tokenId) */\n      jump\t// in\n    tag_118:\n        /* \"contracts/MKNFT.sol\":398:552  function mint(address to, uint256 tokenId) external {... */\n      pop\n      pop\n      jump\t// out\n        /* \"contracts/ERC721.sol\":6528:6698  function safeTransferFrom(... */\n    tag_50:\n        /* \"contracts/ERC721.sol\":6652:6691  safeTransferFrom(from, to, tokenId, \"\") */\n      tag_121\n        /* \"contracts/ERC721.sol\":6669:6673  from */\n      dup4\n        /* \"contracts/ERC721.sol\":6675:6677  to */\n      dup4\n        /* \"contracts/ERC721.sol\":6679:6686  tokenId */\n      dup4\n        /* \"contracts/ERC721.sol\":6652:6691  safeTransferFrom(from, to, tokenId, \"\") */\n      mload(0x40)\n      dup1\n      0x20\n      add\n      0x40\n      mstore\n      dup1\n      0x00\n      dup2\n      mstore\n      pop\n        /* \"contracts/ERC721.sol\":6652:6668  safeTransferFrom */\n      tag_74\n        /* \"contracts/ERC721.sol\":6652:6691  safeTransferFrom(from, to, tokenId, \"\") */\n      jump\t// in\n    tag_121:\n        /* \"contracts/ERC721.sol\":6528:6698  function safeTransferFrom(... */\n      pop\n      pop\n      pop\n      jump\t// out\n        /* \"contracts/ERC721.sol\":1902:2080  function ownerOf(uint tokenId) public view override returns (address owner) {... */\n    tag_53:\n        /* \"contracts/ERC721.sol\":1963:1976  address owner */\n      0x00\n        /* \"contracts/ERC721.sol\":1996:2003  _owners */\n      0x02\n        /* \"contracts/ERC721.sol\":1996:2012  _owners[tokenId] */\n      0x00\n        /* \"contracts/ERC721.sol\":2004:2011  tokenId */\n      dup4\n        /* \"contracts/ERC721.sol\":1996:2012  _owners[tokenId] */\n      dup2\n      mstore\n      0x20\n      add\n      swap1\n      dup2\n      mstore\n      0x20\n      add\n      0x00\n      keccak256\n      0x00\n      swap1\n      sload\n      swap1\n      0x0100\n      exp\n      swap1\n      div\n      0xffffffffffffffffffffffffffffffffffffffff\n      and\n        /* \"contracts/ERC721.sol\":1988:2012  owner = _owners[tokenId] */\n      swap1\n      pop\n        /* \"contracts/ERC721.sol\":2047:2048  0 */\n      0x00\n        /* \"contracts/ERC721.sol\":2030:2049  owner != address(0) */\n      0xffffffffffffffffffffffffffffffffffffffff\n      and\n        /* \"contracts/ERC721.sol\":2030:2035  owner */\n      dup2\n        /* \"contracts/ERC721.sol\":2030:2049  owner != address(0) */\n      0xffffffffffffffffffffffffffffffffffffffff\n      and\n      sub\n        /* \"contracts/ERC721.sol\":2022:2073  require(owner != address(0), \"token doesn't exist\") */\n      tag_123\n      jumpi\n      mload(0x40)\n      0x08c379a000000000000000000000000000000000000000000000000000000000\n      dup2\n      mstore\n      0x04\n      add\n      tag_124\n      swap1\n      tag_125\n      jump\t// in\n    tag_124:\n      mload(0x40)\n      dup1\n      swap2\n      sub\n      swap1\n      revert\n    tag_123:\n        /* \"contracts/ERC721.sol\":1902:2080  function ownerOf(uint tokenId) public view override returns (address owner) {... */\n      swap2\n      swap1\n      pop\n      jump\t// out\n        /* \"contracts/MKNFT.sol\":121:148  uint public MAX_NFT = 10000 */\n    tag_56:\n      sload(0x06)\n      dup2\n      jump\t// out\n        /* \"contracts/ERC721.sol\":1645:1819  function balanceOf(address owner) external view override returns (uint) {... */\n    tag_62:\n        /* \"contracts/ERC721.sol\":1711:1715  uint */\n      0x00\n        /* \"contracts/ERC721.sol\":1752:1753  0 */\n      dup1\n        /* \"contracts/ERC721.sol\":1735:1754  owner != address(0) */\n      0xffffffffffffffffffffffffffffffffffffffff\n      and\n        /* \"contracts/ERC721.sol\":1735:1740  owner */\n      dup3\n        /* \"contracts/ERC721.sol\":1735:1754  owner != address(0) */\n      0xffffffffffffffffffffffffffffffffffffffff\n      and\n      sub\n        /* \"contracts/ERC721.sol\":1727:1779  require(owner != address(0), \"owner = zero address\") */\n      tag_127\n      jumpi\n      mload(0x40)\n      0x08c379a000000000000000000000000000000000000000000000000000000000\n      dup2\n      mstore\n      0x04\n      add\n      tag_128\n      swap1\n      tag_129\n      jump\t// in\n    tag_128:\n      mload(0x40)\n      dup1\n      swap2\n      sub\n      swap1\n      revert\n    tag_127:\n        /* \"contracts/ERC721.sol\":1796:1805  _balances */\n      0x03\n        /* \"contracts/ERC721.sol\":1796:1812  _balances[owner] */\n      0x00\n        /* \"contracts/ERC721.sol\":1806:1811  owner */\n      dup4\n        /* \"contracts/ERC721.sol\":1796:1812  _balances[owner] */\n      0xffffffffffffffffffffffffffffffffffffffff\n      and\n      0xffffffffffffffffffffffffffffffffffffffff\n      and\n      dup2\n      mstore\n      0x20\n      add\n      swap1\n      dup2\n      mstore\n      0x20\n      add\n      0x00\n      keccak256\n      sload\n        /* \"contracts/ERC721.sol\":1789:1812  return _balances[owner] */\n      swap1\n      pop\n        /* \"contracts/ERC721.sol\":1645:1819  function balanceOf(address owner) external view override returns (uint) {... */\n      swap2\n      swap1\n      pop\n      jump\t// out\n        /* \"contracts/ERC721.sol\":532:561  string public override symbol */\n    tag_65:\n      0x01\n      dup1\n      sload\n      tag_130\n      swap1\n      tag_88\n      jump\t// in\n    tag_130:\n      dup1\n      0x1f\n      add\n      0x20\n      dup1\n      swap2\n      div\n      mul\n      0x20\n      add\n      mload(0x40)\n      swap1\n      dup2\n      add\n      0x40\n      mstore\n      dup1\n      swap3\n      swap2\n      swap1\n      dup2\n      dup2\n      mstore\n      0x20\n      add\n      dup3\n      dup1\n      sload\n      tag_131\n      swap1\n      tag_88\n      jump\t// in\n    tag_131:\n      dup1\n      iszero\n      tag_132\n      jumpi\n      dup1\n      0x1f\n      lt\n      tag_133\n      jumpi\n      0x0100\n      dup1\n      dup4\n      sload\n      div\n      mul\n      dup4\n      mstore\n      swap2\n      0x20\n      add\n      swap2\n      jump(tag_132)\n    tag_133:\n      dup3\n      add\n      swap2\n      swap1\n      0x00\n      mstore\n      keccak256(0x00, 0x20)\n      swap1\n    tag_134:\n      dup2\n      sload\n      dup2\n      mstore\n      swap1\n      0x01\n      add\n      swap1\n      0x20\n      add\n      dup1\n      dup4\n      gt\n      tag_134\n      jumpi\n      dup3\n      swap1\n      sub\n      0x1f\n      and\n      dup3\n      add\n      swap2\n    tag_132:\n      pop\n      pop\n      pop\n      pop\n      pop\n      dup2\n      jump\t// out\n        /* \"contracts/ERC721.sol\":2551:2758  function setApprovalForAll(address operator, bool approved) external override {... */\n    tag_70:\n        /* \"contracts/ERC721.sol\":2682:2690  approved */\n      dup1\n        /* \"contracts/ERC721.sol\":2639:2657  _operatorApprovals */\n      0x05\n        /* \"contracts/ERC721.sol\":2639:2669  _operatorApprovals[msg.sender] */\n      0x00\n        /* \"contracts/ERC721.sol\":2658:2668  msg.sender */\n      caller\n        /* \"contracts/ERC721.sol\":2639:2669  _operatorApprovals[msg.sender] */\n      0xffffffffffffffffffffffffffffffffffffffff\n      and\n      0xffffffffffffffffffffffffffffffffffffffff\n      and\n      dup2\n      mstore\n      0x20\n      add\n      swap1\n      dup2\n      mstore\n      0x20\n      add\n      0x00\n      keccak256\n        /* \"contracts/ERC721.sol\":2639:2679  _operatorApprovals[msg.sender][operator] */\n      0x00\n        /* \"contracts/ERC721.sol\":2670:2678  operator */\n      dup5\n        /* \"contracts/ERC721.sol\":2639:2679  _operatorApprovals[msg.sender][operator] */\n      0xffffffffffffffffffffffffffffffffffffffff\n      and\n      0xffffffffffffffffffffffffffffffffffffffff\n      and\n      dup2\n      mstore\n      0x20\n      add\n      swap1\n      dup2\n      mstore\n      0x20\n      add\n      0x00\n      keccak256\n      0x00\n        /* \"contracts/ERC721.sol\":2639:2690  _operatorApprovals[msg.sender][operator] = approved */\n      0x0100\n      exp\n      dup2\n      sload\n      dup2\n      0xff\n      mul\n      not\n      and\n      swap1\n      dup4\n      iszero\n      iszero\n      mul\n      or\n      swap1\n      sstore\n      pop\n        /* \"contracts/ERC721.sol\":2732:2740  operator */\n      dup2\n        /* \"contracts/ERC721.sol\":2705:2751  ApprovalForAll(msg.sender, operator, approved) */\n      0xffffffffffffffffffffffffffffffffffffffff\n      and\n        /* \"contracts/ERC721.sol\":2720:2730  msg.sender */\n      caller\n        /* \"contracts/ERC721.sol\":2705:2751  ApprovalForAll(msg.sender, operator, approved) */\n      0xffffffffffffffffffffffffffffffffffffffff\n      and\n      0x17307eab39ab6107e8899845ad3d59bd9653f200f220920489ca2b5937696c31\n        /* \"contracts/ERC721.sol\":2742:2750  approved */\n      dup4\n        /* \"contracts/ERC721.sol\":2705:2751  ApprovalForAll(msg.sender, operator, approved) */\n      mload(0x40)\n      tag_136\n      swap2\n      swap1\n      tag_26\n      jump\t// in\n    tag_136:\n      mload(0x40)\n      dup1\n      swap2\n      sub\n      swap1\n      log3\n        /* \"contracts/ERC721.sol\":2551:2758  function setApprovalForAll(address operator, bool approved) external override {... */\n      pop\n      pop\n      jump\t// out\n        /* \"contracts/ERC721.sol\":6116:6486  function safeTransferFrom(... */\n    tag_74:\n        /* \"contracts/ERC721.sol\":6266:6279  address owner */\n      0x00\n        /* \"contracts/ERC721.sol\":6282:6298  ownerOf(tokenId) */\n      tag_138\n        /* \"contracts/ERC721.sol\":6290:6297  tokenId */\n      dup4\n        /* \"contracts/ERC721.sol\":6282:6289  ownerOf */\n      tag_53\n        /* \"contracts/ERC721.sol\":6282:6298  ownerOf(tokenId) */\n      jump\t// in\n    tag_138:\n        /* \"contracts/ERC721.sol\":6266:6298  address owner = ownerOf(tokenId) */\n      swap1\n      pop\n        /* \"contracts/ERC721.sol\":6329:6375  _isApprovedOrOwner(owner, msg.sender, tokenId) */\n      tag_139\n        /* \"contracts/ERC721.sol\":6348:6353  owner */\n      dup2\n        /* \"contracts/ERC721.sol\":6355:6365  msg.sender */\n      caller\n        /* \"contracts/ERC721.sol\":6367:6374  tokenId */\n      dup6\n        /* \"contracts/ERC721.sol\":6329:6347  _isApprovedOrOwner */\n      tag_107\n        /* \"contracts/ERC721.sol\":6329:6375  _isApprovedOrOwner(owner, msg.sender, tokenId) */\n      jump\t// in\n    tag_139:\n        /* \"contracts/ERC721.sol\":6308:6423  require(... */\n      tag_140\n      jumpi\n      mload(0x40)\n      0x08c379a000000000000000000000000000000000000000000000000000000000\n      dup2\n      mstore\n      0x04\n      add\n      tag_141\n      swap1\n      tag_110\n      jump\t// in\n    tag_141:\n      mload(0x40)\n      dup1\n      swap2\n      sub\n      swap1\n      revert\n    tag_140:\n        /* \"contracts/ERC721.sol\":6433:6479  _safeTransfer(owner, from, to, tokenId, _data) */\n      tag_142\n        /* \"contracts/ERC721.sol\":6447:6452  owner */\n      dup2\n        /* \"contracts/ERC721.sol\":6454:6458  from */\n      dup7\n        /* \"contracts/ERC721.sol\":6460:6462  to */\n      dup7\n        /* \"contracts/ERC721.sol\":6464:6471  tokenId */\n      dup7\n        /* \"contracts/ERC721.sol\":6473:6478  _data */\n      dup7\n        /* \"contracts/ERC721.sol\":6433:6446  _safeTransfer */\n      tag_143\n        /* \"contracts/ERC721.sol\":6433:6479  _safeTransfer(owner, from, to, tokenId, _data) */\n      jump\t// in\n    tag_142:\n        /* \"contracts/ERC721.sol\":6256:6486  {... */\n      pop\n        /* \"contracts/ERC721.sol\":6116:6486  function safeTransferFrom(... */\n      pop\n      pop\n      pop\n      pop\n      jump\t// out\n        /* \"contracts/ERC721.sol\":8644:8955  function tokenURI(uint256 tokenId) public view virtual override returns (string memory) {... */\n    tag_77:\n        /* \"contracts/ERC721.sol\":8717:8730  string memory */\n      0x60\n        /* \"contracts/ERC721.sol\":8778:8779  0 */\n      0x00\n        /* \"contracts/ERC721.sol\":8750:8780  _owners[tokenId] != address(0) */\n      0xffffffffffffffffffffffffffffffffffffffff\n      and\n        /* \"contracts/ERC721.sol\":8750:8757  _owners */\n      0x02\n        /* \"contracts/ERC721.sol\":8750:8766  _owners[tokenId] */\n      0x00\n        /* \"contracts/ERC721.sol\":8758:8765  tokenId */\n      dup5\n        /* \"contracts/ERC721.sol\":8750:8766  _owners[tokenId] */\n      dup2\n      mstore\n      0x20\n      add\n      swap1\n      dup2\n      mstore\n      0x20\n      add\n      0x00\n      keccak256\n      0x00\n      swap1\n      sload\n      swap1\n      0x0100\n      exp\n      swap1\n      div\n      0xffffffffffffffffffffffffffffffffffffffff\n      and\n        /* \"contracts/ERC721.sol\":8750:8780  _owners[tokenId] != address(0) */\n      0xffffffffffffffffffffffffffffffffffffffff\n      and\n      sub\n        /* \"contracts/ERC721.sol\":8742:8800  require(_owners[tokenId] != address(0), \"Token not exist\") */\n      tag_145\n      jumpi\n      mload(0x40)\n      0x08c379a000000000000000000000000000000000000000000000000000000000\n      dup2\n      mstore\n      0x04\n      add\n      tag_146\n      swap1\n      tag_147\n      jump\t// in\n    tag_146:\n      mload(0x40)\n      dup1\n      swap2\n      sub\n      swap1\n      revert\n    tag_145:\n        /* \"contracts/ERC721.sol\":8811:8832  string memory baseURI */\n      0x00\n        /* \"contracts/ERC721.sol\":8835:8845  _baseURI() */\n      tag_148\n        /* \"contracts/ERC721.sol\":8835:8843  _baseURI */\n      tag_149\n        /* \"contracts/ERC721.sol\":8835:8845  _baseURI() */\n      jump\t// in\n    tag_148:\n        /* \"contracts/ERC721.sol\":8811:8845  string memory baseURI = _baseURI() */\n      swap1\n      pop\n        /* \"contracts/ERC721.sol\":8886:8887  0 */\n      0x00\n        /* \"contracts/ERC721.sol\":8868:8875  baseURI */\n      dup2\n        /* \"contracts/ERC721.sol\":8862:8883  bytes(baseURI).length */\n      mload\n        /* \"contracts/ERC721.sol\":8862:8887  bytes(baseURI).length > 0 */\n      gt\n        /* \"contracts/ERC721.sol\":8862:8948  bytes(baseURI).length > 0 ? string(abi.encodePacked(baseURI, tokenId.toString())) : \"\" */\n      tag_150\n      jumpi\n      mload(0x40)\n      dup1\n      0x20\n      add\n      0x40\n      mstore\n      dup1\n      0x00\n      dup2\n      mstore\n      pop\n      jump(tag_151)\n    tag_150:\n        /* \"contracts/ERC721.sol\":8914:8921  baseURI */\n      dup1\n        /* \"contracts/ERC721.sol\":8923:8941  tokenId.toString() */\n      tag_152\n        /* \"contracts/ERC721.sol\":8923:8930  tokenId */\n      dup5\n        /* \"contracts/ERC721.sol\":8923:8939  tokenId.toString */\n      tag_153\n        /* \"contracts/ERC721.sol\":8923:8941  tokenId.toString() */\n      jump\t// in\n    tag_152:\n        /* \"contracts/ERC721.sol\":8897:8942  abi.encodePacked(baseURI, tokenId.toString()) */\n      add(0x20, mload(0x40))\n      tag_154\n      swap3\n      swap2\n      swap1\n      tag_155\n      jump\t// in\n    tag_154:\n      mload(0x40)\n      0x20\n      dup2\n      dup4\n      sub\n      sub\n      dup2\n      mstore\n      swap1\n      0x40\n      mstore\n        /* \"contracts/ERC721.sol\":8862:8948  bytes(baseURI).length > 0 ? string(abi.encodePacked(baseURI, tokenId.toString())) : \"\" */\n    tag_151:\n        /* \"contracts/ERC721.sol\":8855:8948  return bytes(baseURI).length > 0 ? string(abi.encodePacked(baseURI, tokenId.toString())) : \"\" */\n      swap2\n      pop\n      pop\n        /* \"contracts/ERC721.sol\":8644:8955  function tokenURI(uint256 tokenId) public view virtual override returns (string memory) {... */\n      swap2\n      swap1\n      pop\n      jump\t// out\n        /* \"contracts/ERC721.sol\":2229:2421  function isApprovedForAll(address owner, address operator)... */\n    tag_82:\n        /* \"contracts/ERC721.sol\":2352:2356  bool */\n      0x00\n        /* \"contracts/ERC721.sol\":2379:2397  _operatorApprovals */\n      0x05\n        /* \"contracts/ERC721.sol\":2379:2404  _operatorApprovals[owner] */\n      0x00\n        /* \"contracts/ERC721.sol\":2398:2403  owner */\n      dup5\n        /* \"contracts/ERC721.sol\":2379:2404  _operatorApprovals[owner] */\n      0xffffffffffffffffffffffffffffffffffffffff\n      and\n      0xffffffffffffffffffffffffffffffffffffffff\n      and\n      dup2\n      mstore\n      0x20\n      add\n      swap1\n      dup2\n      mstore\n      0x20\n      add\n      0x00\n      keccak256\n        /* \"contracts/ERC721.sol\":2379:2414  _operatorApprovals[owner][operator] */\n      0x00\n        /* \"contracts/ERC721.sol\":2405:2413  operator */\n      dup4\n        /* \"contracts/ERC721.sol\":2379:2414  _operatorApprovals[owner][operator] */\n      0xffffffffffffffffffffffffffffffffffffffff\n      and\n      0xffffffffffffffffffffffffffffffffffffffff\n      and\n      dup2\n      mstore\n      0x20\n      add\n      swap1\n      dup2\n      mstore\n      0x20\n      add\n      0x00\n      keccak256\n      0x00\n      swap1\n      sload\n      swap1\n      0x0100\n      exp\n      swap1\n      div\n      0xff\n      and\n        /* \"contracts/ERC721.sol\":2372:2414  return _operatorApprovals[owner][operator] */\n      swap1\n      pop\n        /* \"contracts/ERC721.sol\":2229:2421  function isApprovedForAll(address owner, address operator)... */\n      swap3\n      swap2\n      pop\n      pop\n      jump\t// out\n        /* \"contracts/ERC721.sol\":3176:3362  function _approve(... */\n    tag_103:\n        /* \"contracts/ERC721.sol\":3310:3312  to */\n      dup2\n        /* \"contracts/ERC721.sol\":3283:3298  _tokenApprovals */\n      0x04\n        /* \"contracts/ERC721.sol\":3283:3307  _tokenApprovals[tokenId] */\n      0x00\n        /* \"contracts/ERC721.sol\":3299:3306  tokenId */\n      dup4\n        /* \"contracts/ERC721.sol\":3283:3307  _tokenApprovals[tokenId] */\n      dup2\n      mstore\n      0x20\n      add\n      swap1\n      dup2\n      mstore\n      0x20\n      add\n      0x00\n      keccak256\n      0x00\n        /* \"contracts/ERC721.sol\":3283:3312  _tokenApprovals[tokenId] = to */\n      0x0100\n      exp\n      dup2\n      sload\n      dup2\n      0xffffffffffffffffffffffffffffffffffffffff\n      mul\n      not\n      and\n      swap1\n      dup4\n      0xffffffffffffffffffffffffffffffffffffffff\n      and\n      mul\n      or\n      swap1\n      sstore\n      pop\n        /* \"contracts/ERC721.sol\":3347:3354  tokenId */\n      dup1\n        /* \"contracts/ERC721.sol\":3343:3345  to */\n      dup3\n        /* \"contracts/ERC721.sol\":3327:3355  Approval(owner, to, tokenId) */\n      0xffffffffffffffffffffffffffffffffffffffff\n      and\n        /* \"contracts/ERC721.sol\":3336:3341  owner */\n      dup5\n        /* \"contracts/ERC721.sol\":3327:3355  Approval(owner, to, tokenId) */\n      0xffffffffffffffffffffffffffffffffffffffff\n      and\n      0x8c5be1e5ebec7d5bd14f71427d1e84f3dd0314c0f7b2291e5b200ac8c7c3b925\n      mload(0x40)\n      mload(0x40)\n      dup1\n      swap2\n      sub\n      swap1\n      log4\n        /* \"contracts/ERC721.sol\":3176:3362  function _approve(... */\n      pop\n      pop\n      pop\n      jump\t// out\n        /* \"contracts/ERC721.sol\":3916:4191  function _isApprovedOrOwner(... */\n    tag_107:\n        /* \"contracts/ERC721.sol\":4042:4046  bool */\n      0x00\n        /* \"contracts/ERC721.sol\":4077:4082  owner */\n      dup4\n        /* \"contracts/ERC721.sol\":4066:4082  spender == owner */\n      0xffffffffffffffffffffffffffffffffffffffff\n      and\n        /* \"contracts/ERC721.sol\":4066:4073  spender */\n      dup4\n        /* \"contracts/ERC721.sol\":4066:4082  spender == owner */\n      0xffffffffffffffffffffffffffffffffffffffff\n      and\n      eq\n        /* \"contracts/ERC721.sol\":4066:4133  spender == owner ||... */\n      dup1\n      tag_159\n      jumpi\n      pop\n        /* \"contracts/ERC721.sol\":4126:4133  spender */\n      dup3\n        /* \"contracts/ERC721.sol\":4098:4133  _tokenApprovals[tokenId] == spender */\n      0xffffffffffffffffffffffffffffffffffffffff\n      and\n        /* \"contracts/ERC721.sol\":4098:4113  _tokenApprovals */\n      0x04\n        /* \"contracts/ERC721.sol\":4098:4122  _tokenApprovals[tokenId] */\n      0x00\n        /* \"contracts/ERC721.sol\":4114:4121  tokenId */\n      dup5\n        /* \"contracts/ERC721.sol\":4098:4122  _tokenApprovals[tokenId] */\n      dup2\n      mstore\n      0x20\n      add\n      swap1\n      dup2\n      mstore\n      0x20\n      add\n      0x00\n      keccak256\n      0x00\n      swap1\n      sload\n      swap1\n      0x0100\n      exp\n      swap1\n      div\n      0xffffffffffffffffffffffffffffffffffffffff\n      and\n        /* \"contracts/ERC721.sol\":4098:4133  _tokenApprovals[tokenId] == spender */\n      0xffffffffffffffffffffffffffffffffffffffff\n      and\n      eq\n        /* \"contracts/ERC721.sol\":4066:4133  spender == owner ||... */\n    tag_159:\n        /* \"contracts/ERC721.sol\":4066:4183  spender == owner ||... */\n      dup1\n      tag_160\n      jumpi\n      pop\n        /* \"contracts/ERC721.sol\":4149:4167  _operatorApprovals */\n      0x05\n        /* \"contracts/ERC721.sol\":4149:4174  _operatorApprovals[owner] */\n      0x00\n        /* \"contracts/ERC721.sol\":4168:4173  owner */\n      dup6\n        /* \"contracts/ERC721.sol\":4149:4174  _operatorApprovals[owner] */\n      0xffffffffffffffffffffffffffffffffffffffff\n      and\n      0xffffffffffffffffffffffffffffffffffffffff\n      and\n      dup2\n      mstore\n      0x20\n      add\n      swap1\n      dup2\n      mstore\n      0x20\n      add\n      0x00\n      keccak256\n        /* \"contracts/ERC721.sol\":4149:4183  _operatorApprovals[owner][spender] */\n      0x00\n        /* \"contracts/ERC721.sol\":4175:4182  spender */\n      dup5\n        /* \"contracts/ERC721.sol\":4149:4183  _operatorApprovals[owner][spender] */\n      0xffffffffffffffffffffffffffffffffffffffff\n      and\n      0xffffffffffffffffffffffffffffffffffffffff\n      and\n      dup2\n      mstore\n      0x20\n      add\n      swap1\n      dup2\n      mstore\n      0x20\n      add\n      0x00\n      keccak256\n      0x00\n      swap1\n      sload\n      swap1\n      0x0100\n      exp\n      swap1\n      div\n      0xff\n      and\n        /* \"contracts/ERC721.sol\":4066:4183  spender == owner ||... */\n    tag_160:\n        /* \"contracts/ERC721.sol\":4058:4184  return (spender == owner ||... */\n      swap1\n      pop\n        /* \"contracts/ERC721.sol\":3916:4191  function _isApprovedOrOwner(... */\n      swap4\n      swap3\n      pop\n      pop\n      pop\n      jump\t// out\n        /* \"contracts/ERC721.sol\":4412:4832  function _transfer(... */\n    tag_112:\n        /* \"contracts/ERC721.sol\":4558:4563  owner */\n      dup4\n        /* \"contracts/ERC721.sol\":4550:4563  from == owner */\n      0xffffffffffffffffffffffffffffffffffffffff\n      and\n        /* \"contracts/ERC721.sol\":4550:4554  from */\n      dup4\n        /* \"contracts/ERC721.sol\":4550:4563  from == owner */\n      0xffffffffffffffffffffffffffffffffffffffff\n      and\n      eq\n        /* \"contracts/ERC721.sol\":4542:4582  require(from == owner, \"from not owner\") */\n      tag_162\n      jumpi\n      mload(0x40)\n      0x08c379a000000000000000000000000000000000000000000000000000000000\n      dup2\n      mstore\n      0x04\n      add\n      tag_163\n      swap1\n      tag_164\n      jump\t// in\n    tag_163:\n      mload(0x40)\n      dup1\n      swap2\n      sub\n      swap1\n      revert\n    tag_162:\n        /* \"contracts/ERC721.sol\":4614:4615  0 */\n      0x00\n        /* \"contracts/ERC721.sol\":4600:4616  to != address(0) */\n      0xffffffffffffffffffffffffffffffffffffffff\n      and\n        /* \"contracts/ERC721.sol\":4600:4602  to */\n      dup3\n        /* \"contracts/ERC721.sol\":4600:4616  to != address(0) */\n      0xffffffffffffffffffffffffffffffffffffffff\n      and\n      sub\n        /* \"contracts/ERC721.sol\":4592:4645  require(to != address(0), \"transfer to zero address\") */\n      tag_165\n      jumpi\n      mload(0x40)\n      0x08c379a000000000000000000000000000000000000000000000000000000000\n      dup2\n      mstore\n      0x04\n      add\n      tag_166\n      swap1\n      tag_167\n      jump\t// in\n    tag_166:\n      mload(0x40)\n      dup1\n      swap2\n      sub\n      swap1\n      revert\n    tag_165:\n        /* \"contracts/ERC721.sol\":4656:4692  _approve(owner, address(0), tokenId) */\n      tag_168\n        /* \"contracts/ERC721.sol\":4665:4670  owner */\n      dup5\n        /* \"contracts/ERC721.sol\":4680:4681  0 */\n      0x00\n        /* \"contracts/ERC721.sol\":4684:4691  tokenId */\n      dup4\n        /* \"contracts/ERC721.sol\":4656:4664  _approve */\n      tag_103\n        /* \"contracts/ERC721.sol\":4656:4692  _approve(owner, address(0), tokenId) */\n      jump\t// in\n    tag_168:\n        /* \"contracts/ERC721.sol\":4722:4723  1 */\n      0x01\n        /* \"contracts/ERC721.sol\":4703:4712  _balances */\n      0x03\n        /* \"contracts/ERC721.sol\":4703:4718  _balances[from] */\n      0x00\n        /* \"contracts/ERC721.sol\":4713:4717  from */\n      dup6\n        /* \"contracts/ERC721.sol\":4703:4718  _balances[from] */\n      0xffffffffffffffffffffffffffffffffffffffff\n      and\n      0xffffffffffffffffffffffffffffffffffffffff\n      and\n      dup2\n      mstore\n      0x20\n      add\n      swap1\n      dup2\n      mstore\n      0x20\n      add\n      0x00\n      keccak256\n      0x00\n        /* \"contracts/ERC721.sol\":4703:4723  _balances[from] -= 1 */\n      dup3\n      dup3\n      sload\n      tag_169\n      swap2\n      swap1\n      tag_170\n      jump\t// in\n    tag_169:\n      swap3\n      pop\n      pop\n      dup2\n      swap1\n      sstore\n      pop\n        /* \"contracts/ERC721.sol\":4750:4751  1 */\n      0x01\n        /* \"contracts/ERC721.sol\":4733:4742  _balances */\n      0x03\n        /* \"contracts/ERC721.sol\":4733:4746  _balances[to] */\n      0x00\n        /* \"contracts/ERC721.sol\":4743:4745  to */\n      dup5\n        /* \"contracts/ERC721.sol\":4733:4746  _balances[to] */\n      0xffffffffffffffffffffffffffffffffffffffff\n      and\n      0xffffffffffffffffffffffffffffffffffffffff\n      and\n      dup2\n      mstore\n      0x20\n      add\n      swap1\n      dup2\n      mstore\n      0x20\n      add\n      0x00\n      keccak256\n      0x00\n        /* \"contracts/ERC721.sol\":4733:4751  _balances[to] += 1 */\n      dup3\n      dup3\n      sload\n      tag_171\n      swap2\n      swap1\n      tag_172\n      jump\t// in\n    tag_171:\n      swap3\n      pop\n      pop\n      dup2\n      swap1\n      sstore\n      pop\n        /* \"contracts/ERC721.sol\":4780:4782  to */\n      dup2\n        /* \"contracts/ERC721.sol\":4761:4768  _owners */\n      0x02\n        /* \"contracts/ERC721.sol\":4761:4777  _owners[tokenId] */\n      0x00\n        /* \"contracts/ERC721.sol\":4769:4776  tokenId */\n      dup4\n        /* \"contracts/ERC721.sol\":4761:4777  _owners[tokenId] */\n      dup2\n      mstore\n      0x20\n      add\n      swap1\n      dup2\n      mstore\n      0x20\n      add\n      0x00\n      keccak256\n      0x00\n        /* \"contracts/ERC721.sol\":4761:4782  _owners[tokenId] = to */\n      0x0100\n      exp\n      dup2\n      sload\n      dup2\n      0xffffffffffffffffffffffffffffffffffffffff\n      mul\n      not\n      and\n      swap1\n      dup4\n      0xffffffffffffffffffffffffffffffffffffffff\n      and\n      mul\n      or\n      swap1\n      sstore\n      pop\n        /* \"contracts/ERC721.sol\":4817:4824  tokenId */\n      dup1\n        /* \"contracts/ERC721.sol\":4813:4815  to */\n      dup3\n        /* \"contracts/ERC721.sol\":4798:4825  Transfer(from, to ,tokenId) */\n      0xffffffffffffffffffffffffffffffffffffffff\n      and\n        /* \"contracts/ERC721.sol\":4807:4811  from */\n      dup5\n        /* \"contracts/ERC721.sol\":4798:4825  Transfer(from, to ,tokenId) */\n      0xffffffffffffffffffffffffffffffffffffffff\n      and\n      0xddf252ad1be2c89b69c2b068fc378daa952ba7f163c4a11628f55a4df523b3ef\n      mload(0x40)\n      mload(0x40)\n      dup1\n      swap2\n      sub\n      swap1\n      log4\n        /* \"contracts/ERC721.sol\":4412:4832  function _transfer(... */\n      pop\n      pop\n      pop\n      pop\n      jump\t// out\n        /* \"contracts/ERC721.sol\":7141:7444  function _mint(address to, uint tokenId) internal virtual {... */\n    tag_119:\n        /* \"contracts/ERC721.sol\":7231:7232  0 */\n      0x00\n        /* \"contracts/ERC721.sol\":7217:7233  to != address(0) */\n      0xffffffffffffffffffffffffffffffffffffffff\n      and\n        /* \"contracts/ERC721.sol\":7217:7219  to */\n      dup3\n        /* \"contracts/ERC721.sol\":7217:7233  to != address(0) */\n      0xffffffffffffffffffffffffffffffffffffffff\n      and\n      sub\n        /* \"contracts/ERC721.sol\":7209:7258  require(to != address(0), \"mint to zero address\") */\n      tag_174\n      jumpi\n      mload(0x40)\n      0x08c379a000000000000000000000000000000000000000000000000000000000\n      dup2\n      mstore\n      0x04\n      add\n      tag_175\n      swap1\n      tag_176\n      jump\t// in\n    tag_175:\n      mload(0x40)\n      dup1\n      swap2\n      sub\n      swap1\n      revert\n    tag_174:\n        /* \"contracts/ERC721.sol\":7304:7305  0 */\n      0x00\n        /* \"contracts/ERC721.sol\":7276:7306  _owners[tokenId] == address(0) */\n      0xffffffffffffffffffffffffffffffffffffffff\n      and\n        /* \"contracts/ERC721.sol\":7276:7283  _owners */\n      0x02\n        /* \"contracts/ERC721.sol\":7276:7292  _owners[tokenId] */\n      0x00\n        /* \"contracts/ERC721.sol\":7284:7291  tokenId */\n      dup4\n        /* \"contracts/ERC721.sol\":7276:7292  _owners[tokenId] */\n      dup2\n      mstore\n      0x20\n      add\n      swap1\n      dup2\n      mstore\n      0x20\n      add\n      0x00\n      keccak256\n      0x00\n      swap1\n      sload\n      swap1\n      0x0100\n      exp\n      swap1\n      div\n      0xffffffffffffffffffffffffffffffffffffffff\n      and\n        /* \"contracts/ERC721.sol\":7276:7306  _owners[tokenId] == address(0) */\n      0xffffffffffffffffffffffffffffffffffffffff\n      and\n      eq\n        /* \"contracts/ERC721.sol\":7268:7328  require(_owners[tokenId] == address(0), \"token been minted\") */\n      tag_177\n      jumpi\n      mload(0x40)\n      0x08c379a000000000000000000000000000000000000000000000000000000000\n      dup2\n      mstore\n      0x04\n      add\n      tag_178\n      swap1\n      tag_179\n      jump\t// in\n    tag_178:\n      mload(0x40)\n      dup1\n      swap2\n      sub\n      swap1\n      revert\n    tag_177:\n        /* \"contracts/ERC721.sol\":7356:7357  1 */\n      0x01\n        /* \"contracts/ERC721.sol\":7339:7348  _balances */\n      0x03\n        /* \"contracts/ERC721.sol\":7339:7352  _balances[to] */\n      0x00\n        /* \"contracts/ERC721.sol\":7349:7351  to */\n      dup5\n        /* \"contracts/ERC721.sol\":7339:7352  _balances[to] */\n      0xffffffffffffffffffffffffffffffffffffffff\n      and\n      0xffffffffffffffffffffffffffffffffffffffff\n      and\n      dup2\n      mstore\n      0x20\n      add\n      swap1\n      dup2\n      mstore\n      0x20\n      add\n      0x00\n      keccak256\n      0x00\n        /* \"contracts/ERC721.sol\":7339:7357  _balances[to] += 1 */\n      dup3\n      dup3\n      sload\n      tag_180\n      swap2\n      swap1\n      tag_172\n      jump\t// in\n    tag_180:\n      swap3\n      pop\n      pop\n      dup2\n      swap1\n      sstore\n      pop\n        /* \"contracts/ERC721.sol\":7386:7388  to */\n      dup2\n        /* \"contracts/ERC721.sol\":7367:7374  _owners */\n      0x02\n        /* \"contracts/ERC721.sol\":7367:7383  _owners[tokenId] */\n      0x00\n        /* \"contracts/ERC721.sol\":7375:7382  tokenId */\n      dup4\n        /* \"contracts/ERC721.sol\":7367:7383  _owners[tokenId] */\n      dup2\n      mstore\n      0x20\n      add\n      swap1\n      dup2\n      mstore\n      0x20\n      add\n      0x00\n      keccak256\n      0x00\n        /* \"contracts/ERC721.sol\":7367:7388  _owners[tokenId] = to */\n      0x0100\n      exp\n      dup2\n      sload\n      dup2\n      0xffffffffffffffffffffffffffffffffffffffff\n      mul\n      not\n      and\n      swap1\n      dup4\n      0xffffffffffffffffffffffffffffffffffffffff\n      and\n      mul\n      or\n      swap1\n      sstore\n      pop\n        /* \"contracts/ERC721.sol\":7429:7436  tokenId */\n      dup1\n        /* \"contracts/ERC721.sol\":7425:7427  to */\n      dup3\n        /* \"contracts/ERC721.sol\":7404:7437  Transfer(address(0), to, tokenId) */\n      0xffffffffffffffffffffffffffffffffffffffff\n      and\n        /* \"contracts/ERC721.sol\":7421:7422  0 */\n      0x00\n        /* \"contracts/ERC721.sol\":7404:7437  Transfer(address(0), to, tokenId) */\n      0xffffffffffffffffffffffffffffffffffffffff\n      and\n      0xddf252ad1be2c89b69c2b068fc378daa952ba7f163c4a11628f55a4df523b3ef\n      mload(0x40)\n      mload(0x40)\n      dup1\n      swap2\n      sub\n      swap1\n      log4\n        /* \"contracts/ERC721.sol\":7141:7444  function _mint(address to, uint tokenId) internal virtual {... */\n      pop\n      pop\n      jump\t// out\n        /* \"contracts/ERC721.sol\":5712:6005  function _safeTransfer(... */\n    tag_143:\n        /* \"contracts/ERC721.sol\":5874:5909  _transfer(owner, from, to, tokenId) */\n      tag_182\n        /* \"contracts/ERC721.sol\":5884:5889  owner */\n      dup6\n        /* \"contracts/ERC721.sol\":5891:5895  from */\n      dup6\n        /* \"contracts/ERC721.sol\":5897:5899  to */\n      dup6\n        /* \"contracts/ERC721.sol\":5901:5908  tokenId */\n      dup6\n        /* \"contracts/ERC721.sol\":5874:5883  _transfer */\n      tag_112\n        /* \"contracts/ERC721.sol\":5874:5909  _transfer(owner, from, to, tokenId) */\n      jump\t// in\n    tag_182:\n        /* \"contracts/ERC721.sol\":5927:5975  _checkOnERC721Received(from, to, tokenId, _data) */\n      tag_183\n        /* \"contracts/ERC721.sol\":5950:5954  from */\n      dup5\n        /* \"contracts/ERC721.sol\":5956:5958  to */\n      dup5\n        /* \"contracts/ERC721.sol\":5960:5967  tokenId */\n      dup5\n        /* \"contracts/ERC721.sol\":5969:5974  _data */\n      dup5\n        /* \"contracts/ERC721.sol\":5927:5949  _checkOnERC721Received */\n      tag_184\n        /* \"contracts/ERC721.sol\":5927:5975  _checkOnERC721Received(from, to, tokenId, _data) */\n      jump\t// in\n    tag_183:\n        /* \"contracts/ERC721.sol\":5919:5998  require(_checkOnERC721Received(from, to, tokenId, _data), \"not ERC721Receiver\") */\n      tag_185\n      jumpi\n      mload(0x40)\n      0x08c379a000000000000000000000000000000000000000000000000000000000\n      dup2\n      mstore\n      0x04\n      add\n      tag_186\n      swap1\n      tag_187\n      jump\t// in\n    tag_186:\n      mload(0x40)\n      dup1\n      swap2\n      sub\n      swap1\n      revert\n    tag_185:\n        /* \"contracts/ERC721.sol\":5712:6005  function _safeTransfer(... */\n      pop\n      pop\n      pop\n      pop\n      pop\n      jump\t// out\n        /* \"contracts/MKNFT.sol\":246:392  function _baseURI() internal pure override returns(string memory) {... */\n    tag_149:\n        /* \"contracts/MKNFT.sol\":297:310  string memory */\n      0x60\n        /* \"contracts/MKNFT.sol\":322:385  return \"ipfs://QmeSjSinHpPnmXmspMjwiXyN6zS4E9zccariGR3jxcaWtq/\" */\n      mload(0x40)\n      dup1\n      0x60\n      add\n      0x40\n      mstore\n      dup1\n      0x36\n      dup2\n      mstore\n      0x20\n      add\n      data_8382b382247cd07401a2ef2f394137c3f3b0972798bae0a9c78b0c261acbb56b\n      0x36\n      swap2\n      codecopy\n      swap1\n      pop\n        /* \"contracts/MKNFT.sol\":246:392  function _baseURI() internal pure override returns(string memory) {... */\n      swap1\n      jump\t// out\n        /* \"contracts/String.sol\":392:1095  function toString(uint256 value) internal pure returns (string memory) {... */\n    tag_153:\n        /* \"contracts/String.sol\":448:461  string memory */\n      0x60\n        /* \"contracts/String.sol\":674:675  0 */\n      0x00\n        /* \"contracts/String.sol\":665:670  value */\n      dup3\n        /* \"contracts/String.sol\":665:675  value == 0 */\n      sub\n        /* \"contracts/String.sol\":661:712  if (value == 0) {... */\n      tag_190\n      jumpi\n        /* \"contracts/String.sol\":691:701  return \"0\" */\n      mload(0x40)\n      dup1\n      0x40\n      add\n      0x40\n      mstore\n      dup1\n      0x01\n      dup2\n      mstore\n      0x20\n      add\n      0x3000000000000000000000000000000000000000000000000000000000000000\n      dup2\n      mstore\n      pop\n      swap1\n      pop\n      jump(tag_189)\n        /* \"contracts/String.sol\":661:712  if (value == 0) {... */\n    tag_190:\n        /* \"contracts/String.sol\":721:733  uint256 temp */\n      0x00\n        /* \"contracts/String.sol\":736:741  value */\n      dup3\n        /* \"contracts/String.sol\":721:741  uint256 temp = value */\n      swap1\n      pop\n        /* \"contracts/String.sol\":751:765  uint256 digits */\n      0x00\n        /* \"contracts/String.sol\":775:850  while (temp != 0) {... */\n    tag_191:\n        /* \"contracts/String.sol\":790:791  0 */\n      0x00\n        /* \"contracts/String.sol\":782:786  temp */\n      dup3\n        /* \"contracts/String.sol\":782:791  temp != 0 */\n      eq\n        /* \"contracts/String.sol\":775:850  while (temp != 0) {... */\n      tag_192\n      jumpi\n        /* \"contracts/String.sol\":807:815  digits++ */\n      dup1\n      dup1\n      tag_193\n      swap1\n      tag_194\n      jump\t// in\n    tag_193:\n      swap2\n      pop\n      pop\n        /* \"contracts/String.sol\":837:839  10 */\n      0x0a\n        /* \"contracts/String.sol\":829:839  temp /= 10 */\n      dup3\n      tag_195\n      swap2\n      swap1\n      tag_196\n      jump\t// in\n    tag_195:\n      swap2\n      pop\n        /* \"contracts/String.sol\":775:850  while (temp != 0) {... */\n      jump(tag_191)\n    tag_192:\n        /* \"contracts/String.sol\":859:878  bytes memory buffer */\n      0x00\n        /* \"contracts/String.sol\":891:897  digits */\n      dup2\n        /* \"contracts/String.sol\":881:898  new bytes(digits) */\n      0xffffffffffffffff\n      dup2\n      gt\n      iszero\n      tag_197\n      jumpi\n      tag_198\n      tag_199\n      jump\t// in\n    tag_198:\n    tag_197:\n      mload(0x40)\n      swap1\n      dup1\n      dup3\n      mstore\n      dup1\n      0x1f\n      add\n      not(0x1f)\n      and\n      0x20\n      add\n      dup3\n      add\n      0x40\n      mstore\n      dup1\n      iszero\n      tag_200\n      jumpi\n      dup2\n      0x20\n      add\n      0x01\n      dup3\n      mul\n      dup1\n      calldatasize\n      dup4\n      calldatacopy\n      dup1\n      dup3\n      add\n      swap2\n      pop\n      pop\n      swap1\n      pop\n    tag_200:\n      pop\n        /* \"contracts/String.sol\":859:898  bytes memory buffer = new bytes(digits) */\n      swap1\n      pop\n        /* \"contracts/String.sol\":908:1058  while (value != 0) {... */\n    tag_201:\n        /* \"contracts/String.sol\":924:925  0 */\n      0x00\n        /* \"contracts/String.sol\":915:920  value */\n      dup6\n        /* \"contracts/String.sol\":915:925  value != 0 */\n      eq\n        /* \"contracts/String.sol\":908:1058  while (value != 0) {... */\n      tag_202\n      jumpi\n        /* \"contracts/String.sol\":951:952  1 */\n      0x01\n        /* \"contracts/String.sol\":941:952  digits -= 1 */\n      dup3\n      tag_203\n      swap2\n      swap1\n      tag_170\n      jump\t// in\n    tag_203:\n      swap2\n      pop\n        /* \"contracts/String.sol\":1017:1019  10 */\n      0x0a\n        /* \"contracts/String.sol\":1009:1014  value */\n      dup6\n        /* \"contracts/String.sol\":1009:1019  value % 10 */\n      tag_204\n      swap2\n      swap1\n      tag_205\n      jump\t// in\n    tag_204:\n        /* \"contracts/String.sol\":996:998  48 */\n      0x30\n        /* \"contracts/String.sol\":996:1020  48 + uint256(value % 10) */\n      tag_206\n      swap2\n      swap1\n      tag_172\n      jump\t// in\n    tag_206:\n        /* \"contracts/String.sol\":983:1022  bytes1(uint8(48 + uint256(value % 10))) */\n      0xf8\n      shl\n        /* \"contracts/String.sol\":966:972  buffer */\n      dup2\n        /* \"contracts/String.sol\":973:979  digits */\n      dup4\n        /* \"contracts/String.sol\":966:980  buffer[digits] */\n      dup2\n      mload\n      dup2\n      lt\n      tag_207\n      jumpi\n      tag_208\n      tag_209\n      jump\t// in\n    tag_208:\n    tag_207:\n      0x20\n      add\n      add\n        /* \"contracts/String.sol\":966:1022  buffer[digits] = bytes1(uint8(48 + uint256(value % 10))) */\n      swap1\n      not(0xffffffffffffffffffffffffffffffffffffffffffffffffffffffffffffff)\n      and\n      swap1\n      dup2\n      0x00\n      byte\n      swap1\n      mstore8\n      pop\n        /* \"contracts/String.sol\":1045:1047  10 */\n      0x0a\n        /* \"contracts/String.sol\":1036:1047  value /= 10 */\n      dup6\n      tag_210\n      swap2\n      swap1\n      tag_196\n      jump\t// in\n    tag_210:\n      swap5\n      pop\n        /* \"contracts/String.sol\":908:1058  while (value != 0) {... */\n      jump(tag_201)\n    tag_202:\n        /* \"contracts/String.sol\":1081:1087  buffer */\n      dup1\n        /* \"contracts/String.sol\":1067:1088  return string(buffer) */\n      swap4\n      pop\n      pop\n      pop\n      pop\n        /* \"contracts/String.sol\":392:1095  function toString(uint256 value) internal pure returns (string memory) {... */\n    tag_189:\n      swap2\n      swap1\n      pop\n      jump\t// out\n        /* \"contracts/ERC721.sol\":8063:8556  function _checkOnERC721Received(... */\n    tag_184:\n        /* \"contracts/ERC721.sol\":8210:8214  bool */\n      0x00\n        /* \"contracts/ERC721.sol\":8230:8245  to.isContract() */\n      tag_212\n        /* \"contracts/ERC721.sol\":8230:8232  to */\n      dup5\n        /* \"contracts/ERC721.sol\":8230:8243  to.isContract */\n      0xffffffffffffffffffffffffffffffffffffffff\n      and\n      tag_213\n        /* \"contracts/ERC721.sol\":8230:8245  to.isContract() */\n      jump\t// in\n    tag_212:\n        /* \"contracts/ERC721.sol\":8226:8550  if (to.isContract()) {... */\n      iszero\n      tag_214\n      jumpi\n        /* \"contracts/ERC721.sol\":8456:8497  IERC721Receiver.onERC721Received.selector */\n      shl(0xe0, 0x150b7a02)\n        /* \"contracts/ERC721.sol\":8284:8497  IERC721Receiver(to).onERC721Received(... */\n      not(0xffffffffffffffffffffffffffffffffffffffffffffffffffffffff)\n      and\n        /* \"contracts/ERC721.sol\":8300:8302  to */\n      dup5\n        /* \"contracts/ERC721.sol\":8284:8320  IERC721Receiver(to).onERC721Received */\n      0xffffffffffffffffffffffffffffffffffffffff\n      and\n      0x150b7a02\n        /* \"contracts/ERC721.sol\":8342:8352  msg.sender */\n      caller\n        /* \"contracts/ERC721.sol\":8374:8378  from */\n      dup9\n        /* \"contracts/ERC721.sol\":8400:8407  tokenId */\n      dup8\n        /* \"contracts/ERC721.sol\":8429:8434  _data */\n      dup8\n        /* \"contracts/ERC721.sol\":8284:8452  IERC721Receiver(to).onERC721Received(... */\n      mload(0x40)\n      dup6\n      0xffffffff\n      and\n      0xe0\n      shl\n      dup2\n      mstore\n      0x04\n      add\n      tag_215\n      swap5\n      swap4\n      swap3\n      swap2\n      swap1\n      tag_216\n      jump\t// in\n    tag_215:\n      0x20\n      mload(0x40)\n      dup1\n      dup4\n      sub\n      dup2\n      0x00\n      dup8\n      gas\n      call\n      iszero\n      dup1\n      iszero\n      tag_218\n      jumpi\n      returndatasize\n      0x00\n      dup1\n      returndatacopy\n      revert(0x00, returndatasize)\n    tag_218:\n      pop\n      pop\n      pop\n      pop\n      mload(0x40)\n      returndatasize\n      not(0x1f)\n      0x1f\n      dup3\n      add\n      and\n      dup3\n      add\n      dup1\n      0x40\n      mstore\n      pop\n      dup2\n      add\n      swap1\n      tag_219\n      swap2\n      swap1\n      tag_220\n      jump\t// in\n    tag_219:\n        /* \"contracts/ERC721.sol\":8284:8497  IERC721Receiver(to).onERC721Received(... */\n      not(0xffffffffffffffffffffffffffffffffffffffffffffffffffffffff)\n      and\n      eq\n        /* \"contracts/ERC721.sol\":8261:8497  return... */\n      swap1\n      pop\n      jump(tag_211)\n        /* \"contracts/ERC721.sol\":8226:8550  if (to.isContract()) {... */\n    tag_214:\n        /* \"contracts/ERC721.sol\":8535:8539  true */\n      0x01\n        /* \"contracts/ERC721.sol\":8528:8539  return true */\n      swap1\n      pop\n        /* \"contracts/ERC721.sol\":8063:8556  function _checkOnERC721Received(... */\n    tag_211:\n      swap5\n      swap4\n      pop\n      pop\n      pop\n      pop\n      jump\t// out\n        /* \"contracts/Address.sol\":157:344  function isContract(address account) internal view returns (bool) {... */\n    tag_213:\n        /* \"contracts/Address.sol\":217:221  bool */\n      0x00\n        /* \"contracts/Address.sol\":233:242  uint size */\n      dup1\n        /* \"contracts/Address.sol\":295:302  account */\n      dup3\n        /* \"contracts/Address.sol\":283:303  extcodesize(account) */\n      extcodesize\n        /* \"contracts/Address.sol\":275:303  size := extcodesize(account) */\n      swap1\n      pop\n        /* \"contracts/Address.sol\":336:337  0 */\n      0x00\n        /* \"contracts/Address.sol\":329:333  size */\n      dup2\n        /* \"contracts/Address.sol\":329:337  size > 0 */\n      gt\n        /* \"contracts/Address.sol\":322:337  return size > 0 */\n      swap2\n      pop\n      pop\n        /* \"contracts/Address.sol\":157:344  function isContract(address account) internal view returns (bool) {... */\n      swap2\n      swap1\n      pop\n      jump\t// out\n        /* \"#utility.yul\":7:82   */\n    tag_223:\n        /* \"#utility.yul\":40:46   */\n      0x00\n        /* \"#utility.yul\":73:75   */\n      0x40\n        /* \"#utility.yul\":67:76   */\n      mload\n        /* \"#utility.yul\":57:76   */\n      swap1\n      pop\n        /* \"#utility.yul\":7:82   */\n      swap1\n      jump\t// out\n        /* \"#utility.yul\":88:205   */\n    tag_224:\n        /* \"#utility.yul\":197:198   */\n      0x00\n        /* \"#utility.yul\":194:195   */\n      dup1\n        /* \"#utility.yul\":187:199   */\n      revert\n        /* \"#utility.yul\":211:328   */\n    tag_225:\n        /* \"#utility.yul\":320:321   */\n      0x00\n        /* \"#utility.yul\":317:318   */\n      dup1\n        /* \"#utility.yul\":310:322   */\n      revert\n        /* \"#utility.yul\":334:483   */\n    tag_226:\n        /* \"#utility.yul\":370:377   */\n      0x00\n        /* \"#utility.yul\":410:476   */\n      0xffffffff00000000000000000000000000000000000000000000000000000000\n        /* \"#utility.yul\":403:408   */\n      dup3\n        /* \"#utility.yul\":399:477   */\n      and\n        /* \"#utility.yul\":388:477   */\n      swap1\n      pop\n        /* \"#utility.yul\":334:483   */\n      swap2\n      swap1\n      pop\n      jump\t// out\n        /* \"#utility.yul\":489:609   */\n    tag_227:\n        /* \"#utility.yul\":561:584   */\n      tag_294\n        /* \"#utility.yul\":578:583   */\n      dup2\n        /* \"#utility.yul\":561:584   */\n      tag_226\n      jump\t// in\n    tag_294:\n        /* \"#utility.yul\":554:559   */\n      dup2\n        /* \"#utility.yul\":551:585   */\n      eq\n        /* \"#utility.yul\":541:603   */\n      tag_295\n      jumpi\n        /* \"#utility.yul\":599:600   */\n      0x00\n        /* \"#utility.yul\":596:597   */\n      dup1\n        /* \"#utility.yul\":589:601   */\n      revert\n        /* \"#utility.yul\":541:603   */\n    tag_295:\n        /* \"#utility.yul\":489:609   */\n      pop\n      jump\t// out\n        /* \"#utility.yul\":615:752   */\n    tag_228:\n        /* \"#utility.yul\":660:665   */\n      0x00\n        /* \"#utility.yul\":698:704   */\n      dup2\n        /* \"#utility.yul\":685:705   */\n      calldataload\n        /* \"#utility.yul\":676:705   */\n      swap1\n      pop\n        /* \"#utility.yul\":714:746   */\n      tag_297\n        /* \"#utility.yul\":740:745   */\n      dup2\n        /* \"#utility.yul\":714:746   */\n      tag_227\n      jump\t// in\n    tag_297:\n        /* \"#utility.yul\":615:752   */\n      swap3\n      swap2\n      pop\n      pop\n      jump\t// out\n        /* \"#utility.yul\":758:1085   */\n    tag_23:\n        /* \"#utility.yul\":816:822   */\n      0x00\n        /* \"#utility.yul\":865:867   */\n      0x20\n        /* \"#utility.yul\":853:862   */\n      dup3\n        /* \"#utility.yul\":844:851   */\n      dup5\n        /* \"#utility.yul\":840:863   */\n      sub\n        /* \"#utility.yul\":836:868   */\n      slt\n        /* \"#utility.yul\":833:952   */\n      iszero\n      tag_299\n      jumpi\n        /* \"#utility.yul\":871:950   */\n      tag_300\n      tag_224\n      jump\t// in\n    tag_300:\n        /* \"#utility.yul\":833:952   */\n    tag_299:\n        /* \"#utility.yul\":991:992   */\n      0x00\n        /* \"#utility.yul\":1016:1068   */\n      tag_301\n        /* \"#utility.yul\":1060:1067   */\n      dup5\n        /* \"#utility.yul\":1051:1057   */\n      dup3\n        /* \"#utility.yul\":1040:1049   */\n      dup6\n        /* \"#utility.yul\":1036:1058   */\n      add\n        /* \"#utility.yul\":1016:1068   */\n      tag_228\n      jump\t// in\n    tag_301:\n        /* \"#utility.yul\":1006:1068   */\n      swap2\n      pop\n        /* \"#utility.yul\":962:1078   */\n      pop\n        /* \"#utility.yul\":758:1085   */\n      swap3\n      swap2\n      pop\n      pop\n      jump\t// out\n        /* \"#utility.yul\":1091:1181   */\n    tag_229:\n        /* \"#utility.yul\":1125:1132   */\n      0x00\n        /* \"#utility.yul\":1168:1173   */\n      dup2\n        /* \"#utility.yul\":1161:1174   */\n      iszero\n        /* \"#utility.yul\":1154:1175   */\n      iszero\n        /* \"#utility.yul\":1143:1175   */\n      swap1\n      pop\n        /* \"#utility.yul\":1091:1181   */\n      swap2\n      swap1\n      pop\n      jump\t// out\n        /* \"#utility.yul\":1187:1296   */\n    tag_230:\n        /* \"#utility.yul\":1268:1289   */\n      tag_304\n        /* \"#utility.yul\":1283:1288   */\n      dup2\n        /* \"#utility.yul\":1268:1289   */\n      tag_229\n      jump\t// in\n    tag_304:\n        /* \"#utility.yul\":1263:1266   */\n      dup3\n        /* \"#utility.yul\":1256:1290   */\n      mstore\n        /* \"#utility.yul\":1187:1296   */\n      pop\n      pop\n      jump\t// out\n        /* \"#utility.yul\":1302:1512   */\n    tag_26:\n        /* \"#utility.yul\":1389:1393   */\n      0x00\n        /* \"#utility.yul\":1427:1429   */\n      0x20\n        /* \"#utility.yul\":1416:1425   */\n      dup3\n        /* \"#utility.yul\":1412:1430   */\n      add\n        /* \"#utility.yul\":1404:1430   */\n      swap1\n      pop\n        /* \"#utility.yul\":1440:1505   */\n      tag_306\n        /* \"#utility.yul\":1502:1503   */\n      0x00\n        /* \"#utility.yul\":1491:1500   */\n      dup4\n        /* \"#utility.yul\":1487:1504   */\n      add\n        /* \"#utility.yul\":1478:1484   */\n      dup5\n        /* \"#utility.yul\":1440:1505   */\n      tag_230\n      jump\t// in\n    tag_306:\n        /* \"#utility.yul\":1302:1512   */\n      swap3\n      swap2\n      pop\n      pop\n      jump\t// out\n        /* \"#utility.yul\":1518:1617   */\n    tag_231:\n        /* \"#utility.yul\":1570:1576   */\n      0x00\n        /* \"#utility.yul\":1604:1609   */\n      dup2\n        /* \"#utility.yul\":1598:1610   */\n      mload\n        /* \"#utility.yul\":1588:1610   */\n      swap1\n      pop\n        /* \"#utility.yul\":1518:1617   */\n      swap2\n      swap1\n      pop\n      jump\t// out\n        /* \"#utility.yul\":1623:1792   */\n    tag_232:\n        /* \"#utility.yul\":1707:1718   */\n      0x00\n        /* \"#utility.yul\":1741:1747   */\n      dup3\n        /* \"#utility.yul\":1736:1739   */\n      dup3\n        /* \"#utility.yul\":1729:1748   */\n      mstore\n        /* \"#utility.yul\":1781:1785   */\n      0x20\n        /* \"#utility.yul\":1776:1779   */\n      dup3\n        /* \"#utility.yul\":1772:1786   */\n      add\n        /* \"#utility.yul\":1757:1786   */\n      swap1\n      pop\n        /* \"#utility.yul\":1623:1792   */\n      swap3\n      swap2\n      pop\n      pop\n      jump\t// out\n        /* \"#utility.yul\":1798:2044   */\n    tag_233:\n        /* \"#utility.yul\":1879:1880   */\n      0x00\n        /* \"#utility.yul\":1889:2002   */\n    tag_310:\n        /* \"#utility.yul\":1903:1909   */\n      dup4\n        /* \"#utility.yul\":1900:1901   */\n      dup2\n        /* \"#utility.yul\":1897:1910   */\n      lt\n        /* \"#utility.yul\":1889:2002   */\n      iszero\n      tag_312\n      jumpi\n        /* \"#utility.yul\":1988:1989   */\n      dup1\n        /* \"#utility.yul\":1983:1986   */\n      dup3\n        /* \"#utility.yul\":1979:1990   */\n      add\n        /* \"#utility.yul\":1973:1991   */\n      mload\n        /* \"#utility.yul\":1969:1970   */\n      dup2\n        /* \"#utility.yul\":1964:1967   */\n      dup5\n        /* \"#utility.yul\":1960:1971   */\n      add\n        /* \"#utility.yul\":1953:1992   */\n      mstore\n        /* \"#utility.yul\":1925:1927   */\n      0x20\n        /* \"#utility.yul\":1922:1923   */\n      dup2\n        /* \"#utility.yul\":1918:1928   */\n      add\n        /* \"#utility.yul\":1913:1928   */\n      swap1\n      pop\n        /* \"#utility.yul\":1889:2002   */\n      jump(tag_310)\n    tag_312:\n        /* \"#utility.yul\":2036:2037   */\n      0x00\n        /* \"#utility.yul\":2027:2033   */\n      dup5\n        /* \"#utility.yul\":2022:2025   */\n      dup5\n        /* \"#utility.yul\":2018:2034   */\n      add\n        /* \"#utility.yul\":2011:2038   */\n      mstore\n        /* \"#utility.yul\":1860:2044   */\n      pop\n        /* \"#utility.yul\":1798:2044   */\n      pop\n      pop\n      pop\n      jump\t// out\n        /* \"#utility.yul\":2050:2152   */\n    tag_234:\n        /* \"#utility.yul\":2091:2097   */\n      0x00\n        /* \"#utility.yul\":2142:2144   */\n      0x1f\n        /* \"#utility.yul\":2138:2145   */\n      not\n        /* \"#utility.yul\":2133:2135   */\n      0x1f\n        /* \"#utility.yul\":2126:2131   */\n      dup4\n        /* \"#utility.yul\":2122:2136   */\n      add\n        /* \"#utility.yul\":2118:2146   */\n      and\n        /* \"#utility.yul\":2108:2146   */\n      swap1\n      pop\n        /* \"#utility.yul\":2050:2152   */\n      swap2\n      swap1\n      pop\n      jump\t// out\n        /* \"#utility.yul\":2158:2535   */\n    tag_235:\n        /* \"#utility.yul\":2246:2249   */\n      0x00\n        /* \"#utility.yul\":2274:2313   */\n      tag_315\n        /* \"#utility.yul\":2307:2312   */\n      dup3\n        /* \"#utility.yul\":2274:2313   */\n      tag_231\n      jump\t// in\n    tag_315:\n        /* \"#utility.yul\":2329:2400   */\n      tag_316\n        /* \"#utility.yul\":2393:2399   */\n      dup2\n        /* \"#utility.yul\":2388:2391   */\n      dup6\n        /* \"#utility.yul\":2329:2400   */\n      tag_232\n      jump\t// in\n    tag_316:\n        /* \"#utility.yul\":2322:2400   */\n      swap4\n      pop\n        /* \"#utility.yul\":2409:2474   */\n      tag_317\n        /* \"#utility.yul\":2467:2473   */\n      dup2\n        /* \"#utility.yul\":2462:2465   */\n      dup6\n        /* \"#utility.yul\":2455:2459   */\n      0x20\n        /* \"#utility.yul\":2448:2453   */\n      dup7\n        /* \"#utility.yul\":2444:2460   */\n      add\n        /* \"#utility.yul\":2409:2474   */\n      tag_233\n      jump\t// in\n    tag_317:\n        /* \"#utility.yul\":2499:2528   */\n      tag_318\n        /* \"#utility.yul\":2521:2527   */\n      dup2\n        /* \"#utility.yul\":2499:2528   */\n      tag_234\n      jump\t// in\n    tag_318:\n        /* \"#utility.yul\":2494:2497   */\n      dup5\n        /* \"#utility.yul\":2490:2529   */\n      add\n        /* \"#utility.yul\":2483:2529   */\n      swap2\n      pop\n        /* \"#utility.yul\":2250:2535   */\n      pop\n        /* \"#utility.yul\":2158:2535   */\n      swap3\n      swap2\n      pop\n      pop\n      jump\t// out\n        /* \"#utility.yul\":2541:2854   */\n    tag_30:\n        /* \"#utility.yul\":2654:2658   */\n      0x00\n        /* \"#utility.yul\":2692:2694   */\n      0x20\n        /* \"#utility.yul\":2681:2690   */\n      dup3\n        /* \"#utility.yul\":2677:2695   */\n      add\n        /* \"#utility.yul\":2669:2695   */\n      swap1\n      pop\n        /* \"#utility.yul\":2741:2750   */\n      dup2\n        /* \"#utility.yul\":2735:2739   */\n      dup2\n        /* \"#utility.yul\":2731:2751   */\n      sub\n        /* \"#utility.yul\":2727:2728   */\n      0x00\n        /* \"#utility.yul\":2716:2725   */\n      dup4\n        /* \"#utility.yul\":2712:2729   */\n      add\n        /* \"#utility.yul\":2705:2752   */\n      mstore\n        /* \"#utility.yul\":2769:2847   */\n      tag_320\n        /* \"#utility.yul\":2842:2846   */\n      dup2\n        /* \"#utility.yul\":2833:2839   */\n      dup5\n        /* \"#utility.yul\":2769:2847   */\n      tag_235\n      jump\t// in\n    tag_320:\n        /* \"#utility.yul\":2761:2847   */\n      swap1\n      pop\n        /* \"#utility.yul\":2541:2854   */\n      swap3\n      swap2\n      pop\n      pop\n      jump\t// out\n        /* \"#utility.yul\":2860:2937   */\n    tag_236:\n        /* \"#utility.yul\":2897:2904   */\n      0x00\n        /* \"#utility.yul\":2926:2931   */\n      dup2\n        /* \"#utility.yul\":2915:2931   */\n      swap1\n      pop\n        /* \"#utility.yul\":2860:2937   */\n      swap2\n      swap1\n      pop\n      jump\t// out\n        /* \"#utility.yul\":2943:3065   */\n    tag_237:\n        /* \"#utility.yul\":3016:3040   */\n      tag_323\n        /* \"#utility.yul\":3034:3039   */\n      dup2\n        /* \"#utility.yul\":3016:3040   */\n      tag_236\n      jump\t// in\n    tag_323:\n        /* \"#utility.yul\":3009:3014   */\n      dup2\n        /* \"#utility.yul\":3006:3041   */\n      eq\n        /* \"#utility.yul\":2996:3059   */\n      tag_324\n      jumpi\n        /* \"#utility.yul\":3055:3056   */\n      0x00\n        /* \"#utility.yul\":3052:3053   */\n      dup1\n        /* \"#utility.yul\":3045:3057   */\n      revert\n        /* \"#utility.yul\":2996:3059   */\n    tag_324:\n        /* \"#utility.yul\":2943:3065   */\n      pop\n      jump\t// out\n        /* \"#utility.yul\":3071:3210   */\n    tag_238:\n        /* \"#utility.yul\":3117:3122   */\n      0x00\n        /* \"#utility.yul\":3155:3161   */\n      dup2\n        /* \"#utility.yul\":3142:3162   */\n      calldataload\n        /* \"#utility.yul\":3133:3162   */\n      swap1\n      pop\n        /* \"#utility.yul\":3171:3204   */\n      tag_326\n        /* \"#utility.yul\":3198:3203   */\n      dup2\n        /* \"#utility.yul\":3171:3204   */\n      tag_237\n      jump\t// in\n    tag_326:\n        /* \"#utility.yul\":3071:3210   */\n      swap3\n      swap2\n      pop\n      pop\n      jump\t// out\n        /* \"#utility.yul\":3216:3545   */\n    tag_33:\n        /* \"#utility.yul\":3275:3281   */\n      0x00\n        /* \"#utility.yul\":3324:3326   */\n      0x20\n        /* \"#utility.yul\":3312:3321   */\n      dup3\n        /* \"#utility.yul\":3303:3310   */\n      dup5\n        /* \"#utility.yul\":3299:3322   */\n      sub\n        /* \"#utility.yul\":3295:3327   */\n      slt\n        /* \"#utility.yul\":3292:3411   */\n      iszero\n      tag_328\n      jumpi\n        /* \"#utility.yul\":3330:3409   */\n      tag_329\n      tag_224\n      jump\t// in\n    tag_329:\n        /* \"#utility.yul\":3292:3411   */\n    tag_328:\n        /* \"#utility.yul\":3450:3451   */\n      0x00\n        /* \"#utility.yul\":3475:3528   */\n      tag_330\n        /* \"#utility.yul\":3520:3527   */\n      dup5\n        /* \"#utility.yul\":3511:3517   */\n      dup3\n        /* \"#utility.yul\":3500:3509   */\n      dup6\n        /* \"#utility.yul\":3496:3518   */\n      add\n        /* \"#utility.yul\":3475:3528   */\n      tag_238\n      jump\t// in\n    tag_330:\n        /* \"#utility.yul\":3465:3528   */\n      swap2\n      pop\n        /* \"#utility.yul\":3421:3538   */\n      pop\n        /* \"#utility.yul\":3216:3545   */\n      swap3\n      swap2\n      pop\n      pop\n      jump\t// out\n        /* \"#utility.yul\":3551:3677   */\n    tag_239:\n        /* \"#utility.yul\":3588:3595   */\n      0x00\n        /* \"#utility.yul\":3628:3670   */\n      0xffffffffffffffffffffffffffffffffffffffff\n        /* \"#utility.yul\":3621:3626   */\n      dup3\n        /* \"#utility.yul\":3617:3671   */\n      and\n        /* \"#utility.yul\":3606:3671   */\n      swap1\n      pop\n        /* \"#utility.yul\":3551:3677   */\n      swap2\n      swap1\n      pop\n      jump\t// out\n        /* \"#utility.yul\":3683:3779   */\n    tag_240:\n        /* \"#utility.yul\":3720:3727   */\n      0x00\n        /* \"#utility.yul\":3749:3773   */\n      tag_333\n        /* \"#utility.yul\":3767:3772   */\n      dup3\n        /* \"#utility.yul\":3749:3773   */\n      tag_239\n      jump\t// in\n    tag_333:\n        /* \"#utility.yul\":3738:3773   */\n      swap1\n      pop\n        /* \"#utility.yul\":3683:3779   */\n      swap2\n      swap1\n      pop\n      jump\t// out\n        /* \"#utility.yul\":3785:3903   */\n    tag_241:\n        /* \"#utility.yul\":3872:3896   */\n      tag_335\n        /* \"#utility.yul\":3890:3895   */\n      dup2\n        /* \"#utility.yul\":3872:3896   */\n      tag_240\n      jump\t// in\n    tag_335:\n        /* \"#utility.yul\":3867:3870   */\n      dup3\n        /* \"#utility.yul\":3860:3897   */\n      mstore\n        /* \"#utility.yul\":3785:3903   */\n      pop\n      pop\n      jump\t// out\n        /* \"#utility.yul\":3909:4131   */\n    tag_36:\n        /* \"#utility.yul\":4002:4006   */\n      0x00\n        /* \"#utility.yul\":4040:4042   */\n      0x20\n        /* \"#utility.yul\":4029:4038   */\n      dup3\n        /* \"#utility.yul\":4025:4043   */\n      add\n        /* \"#utility.yul\":4017:4043   */\n      swap1\n      pop\n        /* \"#utility.yul\":4053:4124   */\n      tag_337\n        /* \"#utility.yul\":4121:4122   */\n      0x00\n        /* \"#utility.yul\":4110:4119   */\n      dup4\n        /* \"#utility.yul\":4106:4123   */\n      add\n        /* \"#utility.yul\":4097:4103   */\n      dup5\n        /* \"#utility.yul\":4053:4124   */\n      tag_241\n      jump\t// in\n    tag_337:\n        /* \"#utility.yul\":3909:4131   */\n      swap3\n      swap2\n      pop\n      pop\n      jump\t// out\n        /* \"#utility.yul\":4137:4259   */\n    tag_242:\n        /* \"#utility.yul\":4210:4234   */\n      tag_339\n        /* \"#utility.yul\":4228:4233   */\n      dup2\n        /* \"#utility.yul\":4210:4234   */\n      tag_240\n      jump\t// in\n    tag_339:\n        /* \"#utility.yul\":4203:4208   */\n      dup2\n        /* \"#utility.yul\":4200:4235   */\n      eq\n        /* \"#utility.yul\":4190:4253   */\n      tag_340\n      jumpi\n        /* \"#utility.yul\":4249:4250   */\n      0x00\n        /* \"#utility.yul\":4246:4247   */\n      dup1\n        /* \"#utility.yul\":4239:4251   */\n      revert\n        /* \"#utility.yul\":4190:4253   */\n    tag_340:\n        /* \"#utility.yul\":4137:4259   */\n      pop\n      jump\t// out\n        /* \"#utility.yul\":4265:4404   */\n    tag_243:\n        /* \"#utility.yul\":4311:4316   */\n      0x00\n        /* \"#utility.yul\":4349:4355   */\n      dup2\n        /* \"#utility.yul\":4336:4356   */\n      calldataload\n        /* \"#utility.yul\":4327:4356   */\n      swap1\n      pop\n        /* \"#utility.yul\":4365:4398   */\n      tag_342\n        /* \"#utility.yul\":4392:4397   */\n      dup2\n        /* \"#utility.yul\":4365:4398   */\n      tag_242\n      jump\t// in\n    tag_342:\n        /* \"#utility.yul\":4265:4404   */\n      swap3\n      swap2\n      pop\n      pop\n      jump\t// out\n        /* \"#utility.yul\":4410:4884   */\n    tag_39:\n        /* \"#utility.yul\":4478:4484   */\n      0x00\n        /* \"#utility.yul\":4486:4492   */\n      dup1\n        /* \"#utility.yul\":4535:4537   */\n      0x40\n        /* \"#utility.yul\":4523:4532   */\n      dup4\n        /* \"#utility.yul\":4514:4521   */\n      dup6\n        /* \"#utility.yul\":4510:4533   */\n      sub\n        /* \"#utility.yul\":4506:4538   */\n      slt\n        /* \"#utility.yul\":4503:4622   */\n      iszero\n      tag_344\n      jumpi\n        /* \"#utility.yul\":4541:4620   */\n      tag_345\n      tag_224\n      jump\t// in\n    tag_345:\n        /* \"#utility.yul\":4503:4622   */\n    tag_344:\n        /* \"#utility.yul\":4661:4662   */\n      0x00\n        /* \"#utility.yul\":4686:4739   */\n      tag_346\n        /* \"#utility.yul\":4731:4738   */\n      dup6\n        /* \"#utility.yul\":4722:4728   */\n      dup3\n        /* \"#utility.yul\":4711:4720   */\n      dup7\n        /* \"#utility.yul\":4707:4729   */\n      add\n        /* \"#utility.yul\":4686:4739   */\n      tag_243\n      jump\t// in\n    tag_346:\n        /* \"#utility.yul\":4676:4739   */\n      swap3\n      pop\n        /* \"#utility.yul\":4632:4749   */\n      pop\n        /* \"#utility.yul\":4788:4790   */\n      0x20\n        /* \"#utility.yul\":4814:4867   */\n      tag_347\n        /* \"#utility.yul\":4859:4866   */\n      dup6\n        /* \"#utility.yul\":4850:4856   */\n      dup3\n        /* \"#utility.yul\":4839:4848   */\n      dup7\n        /* \"#utility.yul\":4835:4857   */\n      add\n        /* \"#utility.yul\":4814:4867   */\n      tag_238\n      jump\t// in\n    tag_347:\n        /* \"#utility.yul\":4804:4867   */\n      swap2\n      pop\n        /* \"#utility.yul\":4759:4877   */\n      pop\n        /* \"#utility.yul\":4410:4884   */\n      swap3\n      pop\n      swap3\n      swap1\n      pop\n      jump\t// out\n        /* \"#utility.yul\":4890:5509   */\n    tag_43:\n        /* \"#utility.yul\":4967:4973   */\n      0x00\n        /* \"#utility.yul\":4975:4981   */\n      dup1\n        /* \"#utility.yul\":4983:4989   */\n      0x00\n        /* \"#utility.yul\":5032:5034   */\n      0x60\n        /* \"#utility.yul\":5020:5029   */\n      dup5\n        /* \"#utility.yul\":5011:5018   */\n      dup7\n        /* \"#utility.yul\":5007:5030   */\n      sub\n        /* \"#utility.yul\":5003:5035   */\n      slt\n        /* \"#utility.yul\":5000:5119   */\n      iszero\n      tag_349\n      jumpi\n        /* \"#utility.yul\":5038:5117   */\n      tag_350\n      tag_224\n      jump\t// in\n    tag_350:\n        /* \"#utility.yul\":5000:5119   */\n    tag_349:\n        /* \"#utility.yul\":5158:5159   */\n      0x00\n        /* \"#utility.yul\":5183:5236   */\n      tag_351\n        /* \"#utility.yul\":5228:5235   */\n      dup7\n        /* \"#utility.yul\":5219:5225   */\n      dup3\n        /* \"#utility.yul\":5208:5217   */\n      dup8\n        /* \"#utility.yul\":5204:5226   */\n      add\n        /* \"#utility.yul\":5183:5236   */\n      tag_243\n      jump\t// in\n    tag_351:\n        /* \"#utility.yul\":5173:5236   */\n      swap4\n      pop\n        /* \"#utility.yul\":5129:5246   */\n      pop\n        /* \"#utility.yul\":5285:5287   */\n      0x20\n        /* \"#utility.yul\":5311:5364   */\n      tag_352\n        /* \"#utility.yul\":5356:5363   */\n      dup7\n        /* \"#utility.yul\":5347:5353   */\n      dup3\n        /* \"#utility.yul\":5336:5345   */\n      dup8\n        /* \"#utility.yul\":5332:5354   */\n      add\n        /* \"#utility.yul\":5311:5364   */\n      tag_243\n      jump\t// in\n    tag_352:\n        /* \"#utility.yul\":5301:5364   */\n      swap3\n      pop\n        /* \"#utility.yul\":5256:5374   */\n      pop\n        /* \"#utility.yul\":5413:5415   */\n      0x40\n        /* \"#utility.yul\":5439:5492   */\n      tag_353\n        /* \"#utility.yul\":5484:5491   */\n      dup7\n        /* \"#utility.yul\":5475:5481   */\n      dup3\n        /* \"#utility.yul\":5464:5473   */\n      dup8\n        /* \"#utility.yul\":5460:5482   */\n      add\n        /* \"#utility.yul\":5439:5492   */\n      tag_238\n      jump\t// in\n    tag_353:\n        /* \"#utility.yul\":5429:5492   */\n      swap2\n      pop\n        /* \"#utility.yul\":5384:5502   */\n      pop\n        /* \"#utility.yul\":4890:5509   */\n      swap3\n      pop\n      swap3\n      pop\n      swap3\n      jump\t// out\n        /* \"#utility.yul\":5515:5633   */\n    tag_244:\n        /* \"#utility.yul\":5602:5626   */\n      tag_355\n        /* \"#utility.yul\":5620:5625   */\n      dup2\n        /* \"#utility.yul\":5602:5626   */\n      tag_236\n      jump\t// in\n    tag_355:\n        /* \"#utility.yul\":5597:5600   */\n      dup3\n        /* \"#utility.yul\":5590:5627   */\n      mstore\n        /* \"#utility.yul\":5515:5633   */\n      pop\n      pop\n      jump\t// out\n        /* \"#utility.yul\":5639:5861   */\n    tag_58:\n        /* \"#utility.yul\":5732:5736   */\n      0x00\n        /* \"#utility.yul\":5770:5772   */\n      0x20\n        /* \"#utility.yul\":5759:5768   */\n      dup3\n        /* \"#utility.yul\":5755:5773   */\n      add\n        /* \"#utility.yul\":5747:5773   */\n      swap1\n      pop\n        /* \"#utility.yul\":5783:5854   */\n      tag_357\n        /* \"#utility.yul\":5851:5852   */\n      0x00\n        /* \"#utility.yul\":5840:5849   */\n      dup4\n        /* \"#utility.yul\":5836:5853   */\n      add\n        /* \"#utility.yul\":5827:5833   */\n      dup5\n        /* \"#utility.yul\":5783:5854   */\n      tag_244\n      jump\t// in\n    tag_357:\n        /* \"#utility.yul\":5639:5861   */\n      swap3\n      swap2\n      pop\n      pop\n      jump\t// out\n        /* \"#utility.yul\":5867:6196   */\n    tag_61:\n        /* \"#utility.yul\":5926:5932   */\n      0x00\n        /* \"#utility.yul\":5975:5977   */\n      0x20\n        /* \"#utility.yul\":5963:5972   */\n      dup3\n        /* \"#utility.yul\":5954:5961   */\n      dup5\n        /* \"#utility.yul\":5950:5973   */\n      sub\n        /* \"#utility.yul\":5946:5978   */\n      slt\n        /* \"#utility.yul\":5943:6062   */\n      iszero\n      tag_359\n      jumpi\n        /* \"#utility.yul\":5981:6060   */\n      tag_360\n      tag_224\n      jump\t// in\n    tag_360:\n        /* \"#utility.yul\":5943:6062   */\n    tag_359:\n        /* \"#utility.yul\":6101:6102   */\n      0x00\n        /* \"#utility.yul\":6126:6179   */\n      tag_361\n        /* \"#utility.yul\":6171:6178   */\n      dup5\n        /* \"#utility.yul\":6162:6168   */\n      dup3\n        /* \"#utility.yul\":6151:6160   */\n      dup6\n        /* \"#utility.yul\":6147:6169   */\n      add\n        /* \"#utility.yul\":6126:6179   */\n      tag_243\n      jump\t// in\n    tag_361:\n        /* \"#utility.yul\":6116:6179   */\n      swap2\n      pop\n        /* \"#utility.yul\":6072:6189   */\n      pop\n        /* \"#utility.yul\":5867:6196   */\n      swap3\n      swap2\n      pop\n      pop\n      jump\t// out\n        /* \"#utility.yul\":6202:6318   */\n    tag_245:\n        /* \"#utility.yul\":6272:6293   */\n      tag_363\n        /* \"#utility.yul\":6287:6292   */\n      dup2\n        /* \"#utility.yul\":6272:6293   */\n      tag_229\n      jump\t// in\n    tag_363:\n        /* \"#utility.yul\":6265:6270   */\n      dup2\n        /* \"#utility.yul\":6262:6294   */\n      eq\n        /* \"#utility.yul\":6252:6312   */\n      tag_364\n      jumpi\n        /* \"#utility.yul\":6308:6309   */\n      0x00\n        /* \"#utility.yul\":6305:6306   */\n      dup1\n        /* \"#utility.yul\":6298:6310   */\n      revert\n        /* \"#utility.yul\":6252:6312   */\n    tag_364:\n        /* \"#utility.yul\":6202:6318   */\n      pop\n      jump\t// out\n        /* \"#utility.yul\":6324:6457   */\n    tag_246:\n        /* \"#utility.yul\":6367:6372   */\n      0x00\n        /* \"#utility.yul\":6405:6411   */\n      dup2\n        /* \"#utility.yul\":6392:6412   */\n      calldataload\n        /* \"#utility.yul\":6383:6412   */\n      swap1\n      pop\n        /* \"#utility.yul\":6421:6451   */\n      tag_366\n        /* \"#utility.yul\":6445:6450   */\n      dup2\n        /* \"#utility.yul\":6421:6451   */\n      tag_245\n      jump\t// in\n    tag_366:\n        /* \"#utility.yul\":6324:6457   */\n      swap3\n      swap2\n      pop\n      pop\n      jump\t// out\n        /* \"#utility.yul\":6463:6931   */\n    tag_69:\n        /* \"#utility.yul\":6528:6534   */\n      0x00\n        /* \"#utility.yul\":6536:6542   */\n      dup1\n        /* \"#utility.yul\":6585:6587   */\n      0x40\n        /* \"#utility.yul\":6573:6582   */\n      dup4\n        /* \"#utility.yul\":6564:6571   */\n      dup6\n        /* \"#utility.yul\":6560:6583   */\n      sub\n        /* \"#utility.yul\":6556:6588   */\n      slt\n        /* \"#utility.yul\":6553:6672   */\n      iszero\n      tag_368\n      jumpi\n        /* \"#utility.yul\":6591:6670   */\n      tag_369\n      tag_224\n      jump\t// in\n    tag_369:\n        /* \"#utility.yul\":6553:6672   */\n    tag_368:\n        /* \"#utility.yul\":6711:6712   */\n      0x00\n        /* \"#utility.yul\":6736:6789   */\n      tag_370\n        /* \"#utility.yul\":6781:6788   */\n      dup6\n        /* \"#utility.yul\":6772:6778   */\n      dup3\n        /* \"#utility.yul\":6761:6770   */\n      dup7\n        /* \"#utility.yul\":6757:6779   */\n      add\n        /* \"#utility.yul\":6736:6789   */\n      tag_243\n      jump\t// in\n    tag_370:\n        /* \"#utility.yul\":6726:6789   */\n      swap3\n      pop\n        /* \"#utility.yul\":6682:6799   */\n      pop\n        /* \"#utility.yul\":6838:6840   */\n      0x20\n        /* \"#utility.yul\":6864:6914   */\n      tag_371\n        /* \"#utility.yul\":6906:6913   */\n      dup6\n        /* \"#utility.yul\":6897:6903   */\n      dup3\n        /* \"#utility.yul\":6886:6895   */\n      dup7\n        /* \"#utility.yul\":6882:6904   */\n      add\n        /* \"#utility.yul\":6864:6914   */\n      tag_246\n      jump\t// in\n    tag_371:\n        /* \"#utility.yul\":6854:6914   */\n      swap2\n      pop\n        /* \"#utility.yul\":6809:6924   */\n      pop\n        /* \"#utility.yul\":6463:6931   */\n      swap3\n      pop\n      swap3\n      swap1\n      pop\n      jump\t// out\n        /* \"#utility.yul\":6937:7054   */\n    tag_247:\n        /* \"#utility.yul\":7046:7047   */\n      0x00\n        /* \"#utility.yul\":7043:7044   */\n      dup1\n        /* \"#utility.yul\":7036:7048   */\n      revert\n        /* \"#utility.yul\":7060:7177   */\n    tag_248:\n        /* \"#utility.yul\":7169:7170   */\n      0x00\n        /* \"#utility.yul\":7166:7167   */\n      dup1\n        /* \"#utility.yul\":7159:7171   */\n      revert\n        /* \"#utility.yul\":7183:7363   */\n    tag_199:\n        /* \"#utility.yul\":7231:7308   */\n      0x4e487b7100000000000000000000000000000000000000000000000000000000\n        /* \"#utility.yul\":7228:7229   */\n      0x00\n        /* \"#utility.yul\":7221:7309   */\n      mstore\n        /* \"#utility.yul\":7328:7332   */\n      0x41\n        /* \"#utility.yul\":7325:7326   */\n      0x04\n        /* \"#utility.yul\":7318:7333   */\n      mstore\n        /* \"#utility.yul\":7352:7356   */\n      0x24\n        /* \"#utility.yul\":7349:7350   */\n      0x00\n        /* \"#utility.yul\":7342:7357   */\n      revert\n        /* \"#utility.yul\":7369:7650   */\n    tag_249:\n        /* \"#utility.yul\":7452:7479   */\n      tag_376\n        /* \"#utility.yul\":7474:7478   */\n      dup3\n        /* \"#utility.yul\":7452:7479   */\n      tag_234\n      jump\t// in\n    tag_376:\n        /* \"#utility.yul\":7444:7450   */\n      dup2\n        /* \"#utility.yul\":7440:7480   */\n      add\n        /* \"#utility.yul\":7582:7588   */\n      dup2\n        /* \"#utility.yul\":7570:7580   */\n      dup2\n        /* \"#utility.yul\":7567:7589   */\n      lt\n        /* \"#utility.yul\":7546:7564   */\n      0xffffffffffffffff\n        /* \"#utility.yul\":7534:7544   */\n      dup3\n        /* \"#utility.yul\":7531:7565   */\n      gt\n        /* \"#utility.yul\":7528:7590   */\n      or\n        /* \"#utility.yul\":7525:7613   */\n      iszero\n      tag_377\n      jumpi\n        /* \"#utility.yul\":7593:7611   */\n      tag_378\n      tag_199\n      jump\t// in\n    tag_378:\n        /* \"#utility.yul\":7525:7613   */\n    tag_377:\n        /* \"#utility.yul\":7633:7643   */\n      dup1\n        /* \"#utility.yul\":7629:7631   */\n      0x40\n        /* \"#utility.yul\":7622:7644   */\n      mstore\n        /* \"#utility.yul\":7412:7650   */\n      pop\n        /* \"#utility.yul\":7369:7650   */\n      pop\n      pop\n      jump\t// out\n        /* \"#utility.yul\":7656:7785   */\n    tag_250:\n        /* \"#utility.yul\":7690:7696   */\n      0x00\n        /* \"#utility.yul\":7717:7737   */\n      tag_380\n      tag_223\n      jump\t// in\n    tag_380:\n        /* \"#utility.yul\":7707:7737   */\n      swap1\n      pop\n        /* \"#utility.yul\":7746:7779   */\n      tag_381\n        /* \"#utility.yul\":7774:7778   */\n      dup3\n        /* \"#utility.yul\":7766:7772   */\n      dup3\n        /* \"#utility.yul\":7746:7779   */\n      tag_249\n      jump\t// in\n    tag_381:\n        /* \"#utility.yul\":7656:7785   */\n      swap2\n      swap1\n      pop\n      jump\t// out\n        /* \"#utility.yul\":7791:8098   */\n    tag_251:\n        /* \"#utility.yul\":7852:7856   */\n      0x00\n        /* \"#utility.yul\":7942:7960   */\n      0xffffffffffffffff\n        /* \"#utility.yul\":7934:7940   */\n      dup3\n        /* \"#utility.yul\":7931:7961   */\n      gt\n        /* \"#utility.yul\":7928:7984   */\n      iszero\n      tag_383\n      jumpi\n        /* \"#utility.yul\":7964:7982   */\n      tag_384\n      tag_199\n      jump\t// in\n    tag_384:\n        /* \"#utility.yul\":7928:7984   */\n    tag_383:\n        /* \"#utility.yul\":8002:8031   */\n      tag_385\n        /* \"#utility.yul\":8024:8030   */\n      dup3\n        /* \"#utility.yul\":8002:8031   */\n      tag_234\n      jump\t// in\n    tag_385:\n        /* \"#utility.yul\":7994:8031   */\n      swap1\n      pop\n        /* \"#utility.yul\":8086:8090   */\n      0x20\n        /* \"#utility.yul\":8080:8084   */\n      dup2\n        /* \"#utility.yul\":8076:8091   */\n      add\n        /* \"#utility.yul\":8068:8091   */\n      swap1\n      pop\n        /* \"#utility.yul\":7791:8098   */\n      swap2\n      swap1\n      pop\n      jump\t// out\n        /* \"#utility.yul\":8104:8250   */\n    tag_252:\n        /* \"#utility.yul\":8201:8207   */\n      dup3\n        /* \"#utility.yul\":8196:8199   */\n      dup2\n        /* \"#utility.yul\":8191:8194   */\n      dup4\n        /* \"#utility.yul\":8178:8208   */\n      calldatacopy\n        /* \"#utility.yul\":8242:8243   */\n      0x00\n        /* \"#utility.yul\":8233:8239   */\n      dup4\n        /* \"#utility.yul\":8228:8231   */\n      dup4\n        /* \"#utility.yul\":8224:8240   */\n      add\n        /* \"#utility.yul\":8217:8244   */\n      mstore\n        /* \"#utility.yul\":8104:8250   */\n      pop\n      pop\n      pop\n      jump\t// out\n        /* \"#utility.yul\":8256:8679   */\n    tag_253:\n        /* \"#utility.yul\":8333:8338   */\n      0x00\n        /* \"#utility.yul\":8358:8423   */\n      tag_388\n        /* \"#utility.yul\":8374:8422   */\n      tag_389\n        /* \"#utility.yul\":8415:8421   */\n      dup5\n        /* \"#utility.yul\":8374:8422   */\n      tag_251\n      jump\t// in\n    tag_389:\n        /* \"#utility.yul\":8358:8423   */\n      tag_250\n      jump\t// in\n    tag_388:\n        /* \"#utility.yul\":8349:8423   */\n      swap1\n      pop\n        /* \"#utility.yul\":8446:8452   */\n      dup3\n        /* \"#utility.yul\":8439:8444   */\n      dup2\n        /* \"#utility.yul\":8432:8453   */\n      mstore\n        /* \"#utility.yul\":8484:8488   */\n      0x20\n        /* \"#utility.yul\":8477:8482   */\n      dup2\n        /* \"#utility.yul\":8473:8489   */\n      add\n        /* \"#utility.yul\":8522:8525   */\n      dup5\n        /* \"#utility.yul\":8513:8519   */\n      dup5\n        /* \"#utility.yul\":8508:8511   */\n      dup5\n        /* \"#utility.yul\":8504:8520   */\n      add\n        /* \"#utility.yul\":8501:8526   */\n      gt\n        /* \"#utility.yul\":8498:8610   */\n      iszero\n      tag_390\n      jumpi\n        /* \"#utility.yul\":8529:8608   */\n      tag_391\n      tag_248\n      jump\t// in\n    tag_391:\n        /* \"#utility.yul\":8498:8610   */\n    tag_390:\n        /* \"#utility.yul\":8619:8673   */\n      tag_392\n        /* \"#utility.yul\":8666:8672   */\n      dup5\n        /* \"#utility.yul\":8661:8664   */\n      dup3\n        /* \"#utility.yul\":8656:8659   */\n      dup6\n        /* \"#utility.yul\":8619:8673   */\n      tag_252\n      jump\t// in\n    tag_392:\n        /* \"#utility.yul\":8339:8679   */\n      pop\n        /* \"#utility.yul\":8256:8679   */\n      swap4\n      swap3\n      pop\n      pop\n      pop\n      jump\t// out\n        /* \"#utility.yul\":8698:9036   */\n    tag_254:\n        /* \"#utility.yul\":8753:8758   */\n      0x00\n        /* \"#utility.yul\":8802:8805   */\n      dup3\n        /* \"#utility.yul\":8795:8799   */\n      0x1f\n        /* \"#utility.yul\":8787:8793   */\n      dup4\n        /* \"#utility.yul\":8783:8800   */\n      add\n        /* \"#utility.yul\":8779:8806   */\n      slt\n        /* \"#utility.yul\":8769:8891   */\n      tag_394\n      jumpi\n        /* \"#utility.yul\":8810:8889   */\n      tag_395\n      tag_247\n      jump\t// in\n    tag_395:\n        /* \"#utility.yul\":8769:8891   */\n    tag_394:\n        /* \"#utility.yul\":8927:8933   */\n      dup2\n        /* \"#utility.yul\":8914:8934   */\n      calldataload\n        /* \"#utility.yul\":8952:9030   */\n      tag_396\n        /* \"#utility.yul\":9026:9029   */\n      dup5\n        /* \"#utility.yul\":9018:9024   */\n      dup3\n        /* \"#utility.yul\":9011:9015   */\n      0x20\n        /* \"#utility.yul\":9003:9009   */\n      dup7\n        /* \"#utility.yul\":8999:9016   */\n      add\n        /* \"#utility.yul\":8952:9030   */\n      tag_253\n      jump\t// in\n    tag_396:\n        /* \"#utility.yul\":8943:9030   */\n      swap2\n      pop\n        /* \"#utility.yul\":8759:9036   */\n      pop\n        /* \"#utility.yul\":8698:9036   */\n      swap3\n      swap2\n      pop\n      pop\n      jump\t// out\n        /* \"#utility.yul\":9042:9985   */\n    tag_73:\n        /* \"#utility.yul\":9137:9143   */\n      0x00\n        /* \"#utility.yul\":9145:9151   */\n      dup1\n        /* \"#utility.yul\":9153:9159   */\n      0x00\n        /* \"#utility.yul\":9161:9167   */\n      dup1\n        /* \"#utility.yul\":9210:9213   */\n      0x80\n        /* \"#utility.yul\":9198:9207   */\n      dup6\n        /* \"#utility.yul\":9189:9196   */\n      dup8\n        /* \"#utility.yul\":9185:9208   */\n      sub\n        /* \"#utility.yul\":9181:9214   */\n      slt\n        /* \"#utility.yul\":9178:9298   */\n      iszero\n      tag_398\n      jumpi\n        /* \"#utility.yul\":9217:9296   */\n      tag_399\n      tag_224\n      jump\t// in\n    tag_399:\n        /* \"#utility.yul\":9178:9298   */\n    tag_398:\n        /* \"#utility.yul\":9337:9338   */\n      0x00\n        /* \"#utility.yul\":9362:9415   */\n      tag_400\n        /* \"#utility.yul\":9407:9414   */\n      dup8\n        /* \"#utility.yul\":9398:9404   */\n      dup3\n        /* \"#utility.yul\":9387:9396   */\n      dup9\n        /* \"#utility.yul\":9383:9405   */\n      add\n        /* \"#utility.yul\":9362:9415   */\n      tag_243\n      jump\t// in\n    tag_400:\n        /* \"#utility.yul\":9352:9415   */\n      swap5\n      pop\n        /* \"#utility.yul\":9308:9425   */\n      pop\n        /* \"#utility.yul\":9464:9466   */\n      0x20\n        /* \"#utility.yul\":9490:9543   */\n      tag_401\n        /* \"#utility.yul\":9535:9542   */\n      dup8\n        /* \"#utility.yul\":9526:9532   */\n      dup3\n        /* \"#utility.yul\":9515:9524   */\n      dup9\n        /* \"#utility.yul\":9511:9533   */\n      add\n        /* \"#utility.yul\":9490:9543   */\n      tag_243\n      jump\t// in\n    tag_401:\n        /* \"#utility.yul\":9480:9543   */\n      swap4\n      pop\n        /* \"#utility.yul\":9435:9553   */\n      pop\n        /* \"#utility.yul\":9592:9594   */\n      0x40\n        /* \"#utility.yul\":9618:9671   */\n      tag_402\n        /* \"#utility.yul\":9663:9670   */\n      dup8\n        /* \"#utility.yul\":9654:9660   */\n      dup3\n        /* \"#utility.yul\":9643:9652   */\n      dup9\n        /* \"#utility.yul\":9639:9661   */\n      add\n        /* \"#utility.yul\":9618:9671   */\n      tag_238\n      jump\t// in\n    tag_402:\n        /* \"#utility.yul\":9608:9671   */\n      swap3\n      pop\n        /* \"#utility.yul\":9563:9681   */\n      pop\n        /* \"#utility.yul\":9748:9750   */\n      0x60\n        /* \"#utility.yul\":9737:9746   */\n      dup6\n        /* \"#utility.yul\":9733:9751   */\n      add\n        /* \"#utility.yul\":9720:9752   */\n      calldataload\n        /* \"#utility.yul\":9779:9797   */\n      0xffffffffffffffff\n        /* \"#utility.yul\":9771:9777   */\n      dup2\n        /* \"#utility.yul\":9768:9798   */\n      gt\n        /* \"#utility.yul\":9765:9882   */\n      iszero\n      tag_403\n      jumpi\n        /* \"#utility.yul\":9801:9880   */\n      tag_404\n      tag_225\n      jump\t// in\n    tag_404:\n        /* \"#utility.yul\":9765:9882   */\n    tag_403:\n        /* \"#utility.yul\":9906:9968   */\n      tag_405\n        /* \"#utility.yul\":9960:9967   */\n      dup8\n        /* \"#utility.yul\":9951:9957   */\n      dup3\n        /* \"#utility.yul\":9940:9949   */\n      dup9\n        /* \"#utility.yul\":9936:9958   */\n      add\n        /* \"#utility.yul\":9906:9968   */\n      tag_254\n      jump\t// in\n    tag_405:\n        /* \"#utility.yul\":9896:9968   */\n      swap2\n      pop\n        /* \"#utility.yul\":9691:9978   */\n      pop\n        /* \"#utility.yul\":9042:9985   */\n      swap3\n      swap6\n      swap2\n      swap5\n      pop\n      swap3\n      pop\n      jump\t// out\n        /* \"#utility.yul\":9991:10465   */\n    tag_81:\n        /* \"#utility.yul\":10059:10065   */\n      0x00\n        /* \"#utility.yul\":10067:10073   */\n      dup1\n        /* \"#utility.yul\":10116:10118   */\n      0x40\n        /* \"#utility.yul\":10104:10113   */\n      dup4\n        /* \"#utility.yul\":10095:10102   */\n      dup6\n        /* \"#utility.yul\":10091:10114   */\n      sub\n        /* \"#utility.yul\":10087:10119   */\n      slt\n        /* \"#utility.yul\":10084:10203   */\n      iszero\n      tag_407\n      jumpi\n        /* \"#utility.yul\":10122:10201   */\n      tag_408\n      tag_224\n      jump\t// in\n    tag_408:\n        /* \"#utility.yul\":10084:10203   */\n    tag_407:\n        /* \"#utility.yul\":10242:10243   */\n      0x00\n        /* \"#utility.yul\":10267:10320   */\n      tag_409\n        /* \"#utility.yul\":10312:10319   */\n      dup6\n        /* \"#utility.yul\":10303:10309   */\n      dup3\n        /* \"#utility.yul\":10292:10301   */\n      dup7\n        /* \"#utility.yul\":10288:10310   */\n      add\n        /* \"#utility.yul\":10267:10320   */\n      tag_243\n      jump\t// in\n    tag_409:\n        /* \"#utility.yul\":10257:10320   */\n      swap3\n      pop\n        /* \"#utility.yul\":10213:10330   */\n      pop\n        /* \"#utility.yul\":10369:10371   */\n      0x20\n        /* \"#utility.yul\":10395:10448   */\n      tag_410\n        /* \"#utility.yul\":10440:10447   */\n      dup6\n        /* \"#utility.yul\":10431:10437   */\n      dup3\n        /* \"#utility.yul\":10420:10429   */\n      dup7\n        /* \"#utility.yul\":10416:10438   */\n      add\n        /* \"#utility.yul\":10395:10448   */\n      tag_243\n      jump\t// in\n    tag_410:\n        /* \"#utility.yul\":10385:10448   */\n      swap2\n      pop\n        /* \"#utility.yul\":10340:10458   */\n      pop\n        /* \"#utility.yul\":9991:10465   */\n      swap3\n      pop\n      swap3\n      swap1\n      pop\n      jump\t// out\n        /* \"#utility.yul\":10471:10651   */\n    tag_255:\n        /* \"#utility.yul\":10519:10596   */\n      0x4e487b7100000000000000000000000000000000000000000000000000000000\n        /* \"#utility.yul\":10516:10517   */\n      0x00\n        /* \"#utility.yul\":10509:10597   */\n      mstore\n        /* \"#utility.yul\":10616:10620   */\n      0x22\n        /* \"#utility.yul\":10613:10614   */\n      0x04\n        /* \"#utility.yul\":10606:10621   */\n      mstore\n        /* \"#utility.yul\":10640:10644   */\n      0x24\n        /* \"#utility.yul\":10637:10638   */\n      0x00\n        /* \"#utility.yul\":10630:10645   */\n      revert\n        /* \"#utility.yul\":10657:10977   */\n    tag_88:\n        /* \"#utility.yul\":10701:10707   */\n      0x00\n        /* \"#utility.yul\":10738:10739   */\n      0x02\n        /* \"#utility.yul\":10732:10736   */\n      dup3\n        /* \"#utility.yul\":10728:10740   */\n      div\n        /* \"#utility.yul\":10718:10740   */\n      swap1\n      pop\n        /* \"#utility.yul\":10785:10786   */\n      0x01\n        /* \"#utility.yul\":10779:10783   */\n      dup3\n        /* \"#utility.yul\":10775:10787   */\n      and\n        /* \"#utility.yul\":10806:10824   */\n      dup1\n        /* \"#utility.yul\":10796:10877   */\n      tag_413\n      jumpi\n        /* \"#utility.yul\":10862:10866   */\n      0x7f\n        /* \"#utility.yul\":10854:10860   */\n      dup3\n        /* \"#utility.yul\":10850:10867   */\n      and\n        /* \"#utility.yul\":10840:10867   */\n      swap2\n      pop\n        /* \"#utility.yul\":10796:10877   */\n    tag_413:\n        /* \"#utility.yul\":10924:10926   */\n      0x20\n        /* \"#utility.yul\":10916:10922   */\n      dup3\n        /* \"#utility.yul\":10913:10927   */\n      lt\n        /* \"#utility.yul\":10893:10911   */\n      dup2\n        /* \"#utility.yul\":10890:10928   */\n      sub\n        /* \"#utility.yul\":10887:10971   */\n      tag_414\n      jumpi\n        /* \"#utility.yul\":10943:10961   */\n      tag_415\n      tag_255\n      jump\t// in\n    tag_415:\n        /* \"#utility.yul\":10887:10971   */\n    tag_414:\n        /* \"#utility.yul\":10708:10977   */\n      pop\n        /* \"#utility.yul\":10657:10977   */\n      swap2\n      swap1\n      pop\n      jump\t// out\n        /* \"#utility.yul\":10983:11148   */\n    tag_256:\n        /* \"#utility.yul\":11123:11140   */\n      0x746f6b656e206e6f742076616c69640000000000000000000000000000000000\n        /* \"#utility.yul\":11119:11120   */\n      0x00\n        /* \"#utility.yul\":11111:11117   */\n      dup3\n        /* \"#utility.yul\":11107:11121   */\n      add\n        /* \"#utility.yul\":11100:11141   */\n      mstore\n        /* \"#utility.yul\":10983:11148   */\n      pop\n      jump\t// out\n        /* \"#utility.yul\":11154:11520   */\n    tag_257:\n        /* \"#utility.yul\":11296:11299   */\n      0x00\n        /* \"#utility.yul\":11317:11384   */\n      tag_418\n        /* \"#utility.yul\":11381:11383   */\n      0x0f\n        /* \"#utility.yul\":11376:11379   */\n      dup4\n        /* \"#utility.yul\":11317:11384   */\n      tag_232\n      jump\t// in\n    tag_418:\n        /* \"#utility.yul\":11310:11384   */\n      swap2\n      pop\n        /* \"#utility.yul\":11393:11486   */\n      tag_419\n        /* \"#utility.yul\":11482:11485   */\n      dup3\n        /* \"#utility.yul\":11393:11486   */\n      tag_256\n      jump\t// in\n    tag_419:\n        /* \"#utility.yul\":11511:11513   */\n      0x20\n        /* \"#utility.yul\":11506:11509   */\n      dup3\n        /* \"#utility.yul\":11502:11514   */\n      add\n        /* \"#utility.yul\":11495:11514   */\n      swap1\n      pop\n        /* \"#utility.yul\":11154:11520   */\n      swap2\n      swap1\n      pop\n      jump\t// out\n        /* \"#utility.yul\":11526:11945   */\n    tag_96:\n        /* \"#utility.yul\":11692:11696   */\n      0x00\n        /* \"#utility.yul\":11730:11732   */\n      0x20\n        /* \"#utility.yul\":11719:11728   */\n      dup3\n        /* \"#utility.yul\":11715:11733   */\n      add\n        /* \"#utility.yul\":11707:11733   */\n      swap1\n      pop\n        /* \"#utility.yul\":11779:11788   */\n      dup2\n        /* \"#utility.yul\":11773:11777   */\n      dup2\n        /* \"#utility.yul\":11769:11789   */\n      sub\n        /* \"#utility.yul\":11765:11766   */\n      0x00\n        /* \"#utility.yul\":11754:11763   */\n      dup4\n        /* \"#utility.yul\":11750:11767   */\n      add\n        /* \"#utility.yul\":11743:11790   */\n      mstore\n        /* \"#utility.yul\":11807:11938   */\n      tag_421\n        /* \"#utility.yul\":11933:11937   */\n      dup2\n        /* \"#utility.yul\":11807:11938   */\n      tag_257\n      jump\t// in\n    tag_421:\n        /* \"#utility.yul\":11799:11938   */\n      swap1\n      pop\n        /* \"#utility.yul\":11526:11945   */\n      swap2\n      swap1\n      pop\n      jump\t// out\n        /* \"#utility.yul\":11951:12122   */\n    tag_258:\n        /* \"#utility.yul\":12091:12114   */\n      0x6e6f74206f776e6572206f72206f70657261746f720000000000000000000000\n        /* \"#utility.yul\":12087:12088   */\n      0x00\n        /* \"#utility.yul\":12079:12085   */\n      dup3\n        /* \"#utility.yul\":12075:12089   */\n      add\n        /* \"#utility.yul\":12068:12115   */\n      mstore\n        /* \"#utility.yul\":11951:12122   */\n      pop\n      jump\t// out\n        /* \"#utility.yul\":12128:12494   */\n    tag_259:\n        /* \"#utility.yul\":12270:12273   */\n      0x00\n        /* \"#utility.yul\":12291:12358   */\n      tag_424\n        /* \"#utility.yul\":12355:12357   */\n      0x15\n        /* \"#utility.yul\":12350:12353   */\n      dup4\n        /* \"#utility.yul\":12291:12358   */\n      tag_232\n      jump\t// in\n    tag_424:\n        /* \"#utility.yul\":12284:12358   */\n      swap2\n      pop\n        /* \"#utility.yul\":12367:12460   */\n      tag_425\n        /* \"#utility.yul\":12456:12459   */\n      dup3\n        /* \"#utility.yul\":12367:12460   */\n      tag_258\n      jump\t// in\n    tag_425:\n        /* \"#utility.yul\":12485:12487   */\n      0x20\n        /* \"#utility.yul\":12480:12483   */\n      dup3\n        /* \"#utility.yul\":12476:12488   */\n      add\n        /* \"#utility.yul\":12469:12488   */\n      swap1\n      pop\n        /* \"#utility.yul\":12128:12494   */\n      swap2\n      swap1\n      pop\n      jump\t// out\n        /* \"#utility.yul\":12500:12919   */\n    tag_101:\n        /* \"#utility.yul\":12666:12670   */\n      0x00\n        /* \"#utility.yul\":12704:12706   */\n      0x20\n        /* \"#utility.yul\":12693:12702   */\n      dup3\n        /* \"#utility.yul\":12689:12707   */\n      add\n        /* \"#utility.yul\":12681:12707   */\n      swap1\n      pop\n        /* \"#utility.yul\":12753:12762   */\n      dup2\n        /* \"#utility.yul\":12747:12751   */\n      dup2\n        /* \"#utility.yul\":12743:12763   */\n      sub\n        /* \"#utility.yul\":12739:12740   */\n      0x00\n        /* \"#utility.yul\":12728:12737   */\n      dup4\n        /* \"#utility.yul\":12724:12741   */\n      add\n        /* \"#utility.yul\":12717:12764   */\n      mstore\n        /* \"#utility.yul\":12781:12912   */\n      tag_427\n        /* \"#utility.yul\":12907:12911   */\n      dup2\n        /* \"#utility.yul\":12781:12912   */\n      tag_259\n      jump\t// in\n    tag_427:\n        /* \"#utility.yul\":12773:12912   */\n      swap1\n      pop\n        /* \"#utility.yul\":12500:12919   */\n      swap2\n      swap1\n      pop\n      jump\t// out\n        /* \"#utility.yul\":12925:13097   */\n    tag_260:\n        /* \"#utility.yul\":13065:13089   */\n      0x6e6f74206f776e6572206e6f7220617070726f76656400000000000000000000\n        /* \"#utility.yul\":13061:13062   */\n      0x00\n        /* \"#utility.yul\":13053:13059   */\n      dup3\n        /* \"#utility.yul\":13049:13063   */\n      add\n        /* \"#utility.yul\":13042:13090   */\n      mstore\n        /* \"#utility.yul\":12925:13097   */\n      pop\n      jump\t// out\n        /* \"#utility.yul\":13103:13469   */\n    tag_261:\n        /* \"#utility.yul\":13245:13248   */\n      0x00\n        /* \"#utility.yul\":13266:13333   */\n      tag_430\n        /* \"#utility.yul\":13330:13332   */\n      0x16\n        /* \"#utility.yul\":13325:13328   */\n      dup4\n        /* \"#utility.yul\":13266:13333   */\n      tag_232\n      jump\t// in\n    tag_430:\n        /* \"#utility.yul\":13259:13333   */\n      swap2\n      pop\n        /* \"#utility.yul\":13342:13435   */\n      tag_431\n        /* \"#utility.yul\":13431:13434   */\n      dup3\n        /* \"#utility.yul\":13342:13435   */\n      tag_260\n      jump\t// in\n    tag_431:\n        /* \"#utility.yul\":13460:13462   */\n      0x20\n        /* \"#utility.yul\":13455:13458   */\n      dup3\n        /* \"#utility.yul\":13451:13463   */\n      add\n        /* \"#utility.yul\":13444:13463   */\n      swap1\n      pop\n        /* \"#utility.yul\":13103:13469   */\n      swap2\n      swap1\n      pop\n      jump\t// out\n        /* \"#utility.yul\":13475:13894   */\n    tag_110:\n        /* \"#utility.yul\":13641:13645   */\n      0x00\n        /* \"#utility.yul\":13679:13681   */\n      0x20\n        /* \"#utility.yul\":13668:13677   */\n      dup3\n        /* \"#utility.yul\":13664:13682   */\n      add\n        /* \"#utility.yul\":13656:13682   */\n      swap1\n      pop\n        /* \"#utility.yul\":13728:13737   */\n      dup2\n        /* \"#utility.yul\":13722:13726   */\n      dup2\n        /* \"#utility.yul\":13718:13738   */\n      sub\n        /* \"#utility.yul\":13714:13715   */\n      0x00\n        /* \"#utility.yul\":13703:13712   */\n      dup4\n        /* \"#utility.yul\":13699:13716   */\n      add\n        /* \"#utility.yul\":13692:13739   */\n      mstore\n        /* \"#utility.yul\":13756:13887   */\n      tag_433\n        /* \"#utility.yul\":13882:13886   */\n      dup2\n        /* \"#utility.yul\":13756:13887   */\n      tag_261\n      jump\t// in\n    tag_433:\n        /* \"#utility.yul\":13748:13887   */\n      swap1\n      pop\n        /* \"#utility.yul\":13475:13894   */\n      swap2\n      swap1\n      pop\n      jump\t// out\n        /* \"#utility.yul\":13900:14062   */\n    tag_262:\n        /* \"#utility.yul\":14040:14054   */\n      0x6f7574206f662072616e67650000000000000000000000000000000000000000\n        /* \"#utility.yul\":14036:14037   */\n      0x00\n        /* \"#utility.yul\":14028:14034   */\n      dup3\n        /* \"#utility.yul\":14024:14038   */\n      add\n        /* \"#utility.yul\":14017:14055   */\n      mstore\n        /* \"#utility.yul\":13900:14062   */\n      pop\n      jump\t// out\n        /* \"#utility.yul\":14068:14434   */\n    tag_263:\n        /* \"#utility.yul\":14210:14213   */\n      0x00\n        /* \"#utility.yul\":14231:14298   */\n      tag_436\n        /* \"#utility.yul\":14295:14297   */\n      0x0c\n        /* \"#utility.yul\":14290:14293   */\n      dup4\n        /* \"#utility.yul\":14231:14298   */\n      tag_232\n      jump\t// in\n    tag_436:\n        /* \"#utility.yul\":14224:14298   */\n      swap2\n      pop\n        /* \"#utility.yul\":14307:14400   */\n      tag_437\n        /* \"#utility.yul\":14396:14399   */\n      dup3\n        /* \"#utility.yul\":14307:14400   */\n      tag_262\n      jump\t// in\n    tag_437:\n        /* \"#utility.yul\":14425:14427   */\n      0x20\n        /* \"#utility.yul\":14420:14423   */\n      dup3\n        /* \"#utility.yul\":14416:14428   */\n      add\n        /* \"#utility.yul\":14409:14428   */\n      swap1\n      pop\n        /* \"#utility.yul\":14068:14434   */\n      swap2\n      swap1\n      pop\n      jump\t// out\n        /* \"#utility.yul\":14440:14859   */\n    tag_117:\n        /* \"#utility.yul\":14606:14610   */\n      0x00\n        /* \"#utility.yul\":14644:14646   */\n      0x20\n        /* \"#utility.yul\":14633:14642   */\n      dup3\n        /* \"#utility.yul\":14629:14647   */\n      add\n        /* \"#utility.yul\":14621:14647   */\n      swap1\n      pop\n        /* \"#utility.yul\":14693:14702   */\n      dup2\n        /* \"#utility.yul\":14687:14691   */\n      dup2\n        /* \"#utility.yul\":14683:14703   */\n      sub\n        /* \"#utility.yul\":14679:14680   */\n      0x00\n        /* \"#utility.yul\":14668:14677   */\n      dup4\n        /* \"#utility.yul\":14664:14681   */\n      add\n        /* \"#utility.yul\":14657:14704   */\n      mstore\n        /* \"#utility.yul\":14721:14852   */\n      tag_439\n        /* \"#utility.yul\":14847:14851   */\n      dup2\n        /* \"#utility.yul\":14721:14852   */\n      tag_263\n      jump\t// in\n    tag_439:\n        /* \"#utility.yul\":14713:14852   */\n      swap1\n      pop\n        /* \"#utility.yul\":14440:14859   */\n      swap2\n      swap1\n      pop\n      jump\t// out\n        /* \"#utility.yul\":14865:15034   */\n    tag_264:\n        /* \"#utility.yul\":15005:15026   */\n      0x746f6b656e20646f65736e277420657869737400000000000000000000000000\n        /* \"#utility.yul\":15001:15002   */\n      0x00\n        /* \"#utility.yul\":14993:14999   */\n      dup3\n        /* \"#utility.yul\":14989:15003   */\n      add\n        /* \"#utility.yul\":14982:15027   */\n      mstore\n        /* \"#utility.yul\":14865:15034   */\n      pop\n      jump\t// out\n        /* \"#utility.yul\":15040:15406   */\n    tag_265:\n        /* \"#utility.yul\":15182:15185   */\n      0x00\n        /* \"#utility.yul\":15203:15270   */\n      tag_442\n        /* \"#utility.yul\":15267:15269   */\n      0x13\n        /* \"#utility.yul\":15262:15265   */\n      dup4\n        /* \"#utility.yul\":15203:15270   */\n      tag_232\n      jump\t// in\n    tag_442:\n        /* \"#utility.yul\":15196:15270   */\n      swap2\n      pop\n        /* \"#utility.yul\":15279:15372   */\n      tag_443\n        /* \"#utility.yul\":15368:15371   */\n      dup3\n        /* \"#utility.yul\":15279:15372   */\n      tag_264\n      jump\t// in\n    tag_443:\n        /* \"#utility.yul\":15397:15399   */\n      0x20\n        /* \"#utility.yul\":15392:15395   */\n      dup3\n        /* \"#utility.yul\":15388:15400   */\n      add\n        /* \"#utility.yul\":15381:15400   */\n      swap1\n      pop\n        /* \"#utility.yul\":15040:15406   */\n      swap2\n      swap1\n      pop\n      jump\t// out\n        /* \"#utility.yul\":15412:15831   */\n    tag_125:\n        /* \"#utility.yul\":15578:15582   */\n      0x00\n        /* \"#utility.yul\":15616:15618   */\n      0x20\n        /* \"#utility.yul\":15605:15614   */\n      dup3\n        /* \"#utility.yul\":15601:15619   */\n      add\n        /* \"#utility.yul\":15593:15619   */\n      swap1\n      pop\n        /* \"#utility.yul\":15665:15674   */\n      dup2\n        /* \"#utility.yul\":15659:15663   */\n      dup2\n        /* \"#utility.yul\":15655:15675   */\n      sub\n        /* \"#utility.yul\":15651:15652   */\n      0x00\n        /* \"#utility.yul\":15640:15649   */\n      dup4\n        /* \"#utility.yul\":15636:15653   */\n      add\n        /* \"#utility.yul\":15629:15676   */\n      mstore\n        /* \"#utility.yul\":15693:15824   */\n      tag_445\n        /* \"#utility.yul\":15819:15823   */\n      dup2\n        /* \"#utility.yul\":15693:15824   */\n      tag_265\n      jump\t// in\n    tag_445:\n        /* \"#utility.yul\":15685:15824   */\n      swap1\n      pop\n        /* \"#utility.yul\":15412:15831   */\n      swap2\n      swap1\n      pop\n      jump\t// out\n        /* \"#utility.yul\":15837:16007   */\n    tag_266:\n        /* \"#utility.yul\":15977:15999   */\n      0x6f776e6572203d207a65726f2061646472657373000000000000000000000000\n        /* \"#utility.yul\":15973:15974   */\n      0x00\n        /* \"#utility.yul\":15965:15971   */\n      dup3\n        /* \"#utility.yul\":15961:15975   */\n      add\n        /* \"#utility.yul\":15954:16000   */\n      mstore\n        /* \"#utility.yul\":15837:16007   */\n      pop\n      jump\t// out\n        /* \"#utility.yul\":16013:16379   */\n    tag_267:\n        /* \"#utility.yul\":16155:16158   */\n      0x00\n        /* \"#utility.yul\":16176:16243   */\n      tag_448\n        /* \"#utility.yul\":16240:16242   */\n      0x14\n        /* \"#utility.yul\":16235:16238   */\n      dup4\n        /* \"#utility.yul\":16176:16243   */\n      tag_232\n      jump\t// in\n    tag_448:\n        /* \"#utility.yul\":16169:16243   */\n      swap2\n      pop\n        /* \"#utility.yul\":16252:16345   */\n      tag_449\n        /* \"#utility.yul\":16341:16344   */\n      dup3\n        /* \"#utility.yul\":16252:16345   */\n      tag_266\n      jump\t// in\n    tag_449:\n        /* \"#utility.yul\":16370:16372   */\n      0x20\n        /* \"#utility.yul\":16365:16368   */\n      dup3\n        /* \"#utility.yul\":16361:16373   */\n      add\n        /* \"#utility.yul\":16354:16373   */\n      swap1\n      pop\n        /* \"#utility.yul\":16013:16379   */\n      swap2\n      swap1\n      pop\n      jump\t// out\n        /* \"#utility.yul\":16385:16804   */\n    tag_129:\n        /* \"#utility.yul\":16551:16555   */\n      0x00\n        /* \"#utility.yul\":16589:16591   */\n      0x20\n        /* \"#utility.yul\":16578:16587   */\n      dup3\n        /* \"#utility.yul\":16574:16592   */\n      add\n        /* \"#utility.yul\":16566:16592   */\n      swap1\n      pop\n        /* \"#utility.yul\":16638:16647   */\n      dup2\n        /* \"#utility.yul\":16632:16636   */\n      dup2\n        /* \"#utility.yul\":16628:16648   */\n      sub\n        /* \"#utility.yul\":16624:16625   */\n      0x00\n        /* \"#utility.yul\":16613:16622   */\n      dup4\n        /* \"#utility.yul\":16609:16626   */\n      add\n        /* \"#utility.yul\":16602:16649   */\n      mstore\n        /* \"#utility.yul\":16666:16797   */\n      tag_451\n        /* \"#utility.yul\":16792:16796   */\n      dup2\n        /* \"#utility.yul\":16666:16797   */\n      tag_267\n      jump\t// in\n    tag_451:\n        /* \"#utility.yul\":16658:16797   */\n      swap1\n      pop\n        /* \"#utility.yul\":16385:16804   */\n      swap2\n      swap1\n      pop\n      jump\t// out\n        /* \"#utility.yul\":16810:16975   */\n    tag_268:\n        /* \"#utility.yul\":16950:16967   */\n      0x546f6b656e206e6f742065786973740000000000000000000000000000000000\n        /* \"#utility.yul\":16946:16947   */\n      0x00\n        /* \"#utility.yul\":16938:16944   */\n      dup3\n        /* \"#utility.yul\":16934:16948   */\n      add\n        /* \"#utility.yul\":16927:16968   */\n      mstore\n        /* \"#utility.yul\":16810:16975   */\n      pop\n      jump\t// out\n        /* \"#utility.yul\":16981:17347   */\n    tag_269:\n        /* \"#utility.yul\":17123:17126   */\n      0x00\n        /* \"#utility.yul\":17144:17211   */\n      tag_454\n        /* \"#utility.yul\":17208:17210   */\n      0x0f\n        /* \"#utility.yul\":17203:17206   */\n      dup4\n        /* \"#utility.yul\":17144:17211   */\n      tag_232\n      jump\t// in\n    tag_454:\n        /* \"#utility.yul\":17137:17211   */\n      swap2\n      pop\n        /* \"#utility.yul\":17220:17313   */\n      tag_455\n        /* \"#utility.yul\":17309:17312   */\n      dup3\n        /* \"#utility.yul\":17220:17313   */\n      tag_268\n      jump\t// in\n    tag_455:\n        /* \"#utility.yul\":17338:17340   */\n      0x20\n        /* \"#utility.yul\":17333:17336   */\n      dup3\n        /* \"#utility.yul\":17329:17341   */\n      add\n        /* \"#utility.yul\":17322:17341   */\n      swap1\n      pop\n        /* \"#utility.yul\":16981:17347   */\n      swap2\n      swap1\n      pop\n      jump\t// out\n        /* \"#utility.yul\":17353:17772   */\n    tag_147:\n        /* \"#utility.yul\":17519:17523   */\n      0x00\n        /* \"#utility.yul\":17557:17559   */\n      0x20\n        /* \"#utility.yul\":17546:17555   */\n      dup3\n        /* \"#utility.yul\":17542:17560   */\n      add\n        /* \"#utility.yul\":17534:17560   */\n      swap1\n      pop\n        /* \"#utility.yul\":17606:17615   */\n      dup2\n        /* \"#utility.yul\":17600:17604   */\n      dup2\n        /* \"#utility.yul\":17596:17616   */\n      sub\n        /* \"#utility.yul\":17592:17593   */\n      0x00\n        /* \"#utility.yul\":17581:17590   */\n      dup4\n        /* \"#utility.yul\":17577:17594   */\n      add\n        /* \"#utility.yul\":17570:17617   */\n      mstore\n        /* \"#utility.yul\":17634:17765   */\n      tag_457\n        /* \"#utility.yul\":17760:17764   */\n      dup2\n        /* \"#utility.yul\":17634:17765   */\n      tag_269\n      jump\t// in\n    tag_457:\n        /* \"#utility.yul\":17626:17765   */\n      swap1\n      pop\n        /* \"#utility.yul\":17353:17772   */\n      swap2\n      swap1\n      pop\n      jump\t// out\n        /* \"#utility.yul\":17778:17926   */\n    tag_270:\n        /* \"#utility.yul\":17880:17891   */\n      0x00\n        /* \"#utility.yul\":17917:17920   */\n      dup2\n        /* \"#utility.yul\":17902:17920   */\n      swap1\n      pop\n        /* \"#utility.yul\":17778:17926   */\n      swap3\n      swap2\n      pop\n      pop\n      jump\t// out\n        /* \"#utility.yul\":17932:18322   */\n    tag_271:\n        /* \"#utility.yul\":18038:18041   */\n      0x00\n        /* \"#utility.yul\":18066:18105   */\n      tag_460\n        /* \"#utility.yul\":18099:18104   */\n      dup3\n        /* \"#utility.yul\":18066:18105   */\n      tag_231\n      jump\t// in\n    tag_460:\n        /* \"#utility.yul\":18121:18210   */\n      tag_461\n        /* \"#utility.yul\":18203:18209   */\n      dup2\n        /* \"#utility.yul\":18198:18201   */\n      dup6\n        /* \"#utility.yul\":18121:18210   */\n      tag_270\n      jump\t// in\n    tag_461:\n        /* \"#utility.yul\":18114:18210   */\n      swap4\n      pop\n        /* \"#utility.yul\":18219:18284   */\n      tag_462\n        /* \"#utility.yul\":18277:18283   */\n      dup2\n        /* \"#utility.yul\":18272:18275   */\n      dup6\n        /* \"#utility.yul\":18265:18269   */\n      0x20\n        /* \"#utility.yul\":18258:18263   */\n      dup7\n        /* \"#utility.yul\":18254:18270   */\n      add\n        /* \"#utility.yul\":18219:18284   */\n      tag_233\n      jump\t// in\n    tag_462:\n        /* \"#utility.yul\":18309:18315   */\n      dup1\n        /* \"#utility.yul\":18304:18307   */\n      dup5\n        /* \"#utility.yul\":18300:18316   */\n      add\n        /* \"#utility.yul\":18293:18316   */\n      swap2\n      pop\n        /* \"#utility.yul\":18042:18322   */\n      pop\n        /* \"#utility.yul\":17932:18322   */\n      swap3\n      swap2\n      pop\n      pop\n      jump\t// out\n        /* \"#utility.yul\":18328:18763   */\n    tag_155:\n        /* \"#utility.yul\":18508:18511   */\n      0x00\n        /* \"#utility.yul\":18530:18625   */\n      tag_464\n        /* \"#utility.yul\":18621:18624   */\n      dup3\n        /* \"#utility.yul\":18612:18618   */\n      dup6\n        /* \"#utility.yul\":18530:18625   */\n      tag_271\n      jump\t// in\n    tag_464:\n        /* \"#utility.yul\":18523:18625   */\n      swap2\n      pop\n        /* \"#utility.yul\":18642:18737   */\n      tag_465\n        /* \"#utility.yul\":18733:18736   */\n      dup3\n        /* \"#utility.yul\":18724:18730   */\n      dup5\n        /* \"#utility.yul\":18642:18737   */\n      tag_271\n      jump\t// in\n    tag_465:\n        /* \"#utility.yul\":18635:18737   */\n      swap2\n      pop\n        /* \"#utility.yul\":18754:18757   */\n      dup2\n        /* \"#utility.yul\":18747:18757   */\n      swap1\n      pop\n        /* \"#utility.yul\":18328:18763   */\n      swap4\n      swap3\n      pop\n      pop\n      pop\n      jump\t// out\n        /* \"#utility.yul\":18769:18933   */\n    tag_272:\n        /* \"#utility.yul\":18909:18925   */\n      0x66726f6d206e6f74206f776e6572000000000000000000000000000000000000\n        /* \"#utility.yul\":18905:18906   */\n      0x00\n        /* \"#utility.yul\":18897:18903   */\n      dup3\n        /* \"#utility.yul\":18893:18907   */\n      add\n        /* \"#utility.yul\":18886:18926   */\n      mstore\n        /* \"#utility.yul\":18769:18933   */\n      pop\n      jump\t// out\n        /* \"#utility.yul\":18939:19305   */\n    tag_273:\n        /* \"#utility.yul\":19081:19084   */\n      0x00\n        /* \"#utility.yul\":19102:19169   */\n      tag_468\n        /* \"#utility.yul\":19166:19168   */\n      0x0e\n        /* \"#utility.yul\":19161:19164   */\n      dup4\n        /* \"#utility.yul\":19102:19169   */\n      tag_232\n      jump\t// in\n    tag_468:\n        /* \"#utility.yul\":19095:19169   */\n      swap2\n      pop\n        /* \"#utility.yul\":19178:19271   */\n      tag_469\n        /* \"#utility.yul\":19267:19270   */\n      dup3\n        /* \"#utility.yul\":19178:19271   */\n      tag_272\n      jump\t// in\n    tag_469:\n        /* \"#utility.yul\":19296:19298   */\n      0x20\n        /* \"#utility.yul\":19291:19294   */\n      dup3\n        /* \"#utility.yul\":19287:19299   */\n      add\n        /* \"#utility.yul\":19280:19299   */\n      swap1\n      pop\n        /* \"#utility.yul\":18939:19305   */\n      swap2\n      swap1\n      pop\n      jump\t// out\n        /* \"#utility.yul\":19311:19730   */\n    tag_164:\n        /* \"#utility.yul\":19477:19481   */\n      0x00\n        /* \"#utility.yul\":19515:19517   */\n      0x20\n        /* \"#utility.yul\":19504:19513   */\n      dup3\n        /* \"#utility.yul\":19500:19518   */\n      add\n        /* \"#utility.yul\":19492:19518   */\n      swap1\n      pop\n        /* \"#utility.yul\":19564:19573   */\n      dup2\n        /* \"#utility.yul\":19558:19562   */\n      dup2\n        /* \"#utility.yul\":19554:19574   */\n      sub\n        /* \"#utility.yul\":19550:19551   */\n      0x00\n        /* \"#utility.yul\":19539:19548   */\n      dup4\n        /* \"#utility.yul\":19535:19552   */\n      add\n        /* \"#utility.yul\":19528:19575   */\n      mstore\n        /* \"#utility.yul\":19592:19723   */\n      tag_471\n        /* \"#utility.yul\":19718:19722   */\n      dup2\n        /* \"#utility.yul\":19592:19723   */\n      tag_273\n      jump\t// in\n    tag_471:\n        /* \"#utility.yul\":19584:19723   */\n      swap1\n      pop\n        /* \"#utility.yul\":19311:19730   */\n      swap2\n      swap1\n      pop\n      jump\t// out\n        /* \"#utility.yul\":19736:19910   */\n    tag_274:\n        /* \"#utility.yul\":19876:19902   */\n      0x7472616e7366657220746f207a65726f20616464726573730000000000000000\n        /* \"#utility.yul\":19872:19873   */\n      0x00\n        /* \"#utility.yul\":19864:19870   */\n      dup3\n        /* \"#utility.yul\":19860:19874   */\n      add\n        /* \"#utility.yul\":19853:19903   */\n      mstore\n        /* \"#utility.yul\":19736:19910   */\n      pop\n      jump\t// out\n        /* \"#utility.yul\":19916:20282   */\n    tag_275:\n        /* \"#utility.yul\":20058:20061   */\n      0x00\n        /* \"#utility.yul\":20079:20146   */\n      tag_474\n        /* \"#utility.yul\":20143:20145   */\n      0x18\n        /* \"#utility.yul\":20138:20141   */\n      dup4\n        /* \"#utility.yul\":20079:20146   */\n      tag_232\n      jump\t// in\n    tag_474:\n        /* \"#utility.yul\":20072:20146   */\n      swap2\n      pop\n        /* \"#utility.yul\":20155:20248   */\n      tag_475\n        /* \"#utility.yul\":20244:20247   */\n      dup3\n        /* \"#utility.yul\":20155:20248   */\n      tag_274\n      jump\t// in\n    tag_475:\n        /* \"#utility.yul\":20273:20275   */\n      0x20\n        /* \"#utility.yul\":20268:20271   */\n      dup3\n        /* \"#utility.yul\":20264:20276   */\n      add\n        /* \"#utility.yul\":20257:20276   */\n      swap1\n      pop\n        /* \"#utility.yul\":19916:20282   */\n      swap2\n      swap1\n      pop\n      jump\t// out\n        /* \"#utility.yul\":20288:20707   */\n    tag_167:\n        /* \"#utility.yul\":20454:20458   */\n      0x00\n        /* \"#utility.yul\":20492:20494   */\n      0x20\n        /* \"#utility.yul\":20481:20490   */\n      dup3\n        /* \"#utility.yul\":20477:20495   */\n      add\n        /* \"#utility.yul\":20469:20495   */\n      swap1\n      pop\n        /* \"#utility.yul\":20541:20550   */\n      dup2\n        /* \"#utility.yul\":20535:20539   */\n      dup2\n        /* \"#utility.yul\":20531:20551   */\n      sub\n        /* \"#utility.yul\":20527:20528   */\n      0x00\n        /* \"#utility.yul\":20516:20525   */\n      dup4\n        /* \"#utility.yul\":20512:20529   */\n      add\n        /* \"#utility.yul\":20505:20552   */\n      mstore\n        /* \"#utility.yul\":20569:20700   */\n      tag_477\n        /* \"#utility.yul\":20695:20699   */\n      dup2\n        /* \"#utility.yul\":20569:20700   */\n      tag_275\n      jump\t// in\n    tag_477:\n        /* \"#utility.yul\":20561:20700   */\n      swap1\n      pop\n        /* \"#utility.yul\":20288:20707   */\n      swap2\n      swap1\n      pop\n      jump\t// out\n        /* \"#utility.yul\":20713:20893   */\n    tag_276:\n        /* \"#utility.yul\":20761:20838   */\n      0x4e487b7100000000000000000000000000000000000000000000000000000000\n        /* \"#utility.yul\":20758:20759   */\n      0x00\n        /* \"#utility.yul\":20751:20839   */\n      mstore\n        /* \"#utility.yul\":20858:20862   */\n      0x11\n        /* \"#utility.yul\":20855:20856   */\n      0x04\n        /* \"#utility.yul\":20848:20863   */\n      mstore\n        /* \"#utility.yul\":20882:20886   */\n      0x24\n        /* \"#utility.yul\":20879:20880   */\n      0x00\n        /* \"#utility.yul\":20872:20887   */\n      revert\n        /* \"#utility.yul\":20899:21093   */\n    tag_170:\n        /* \"#utility.yul\":20939:20943   */\n      0x00\n        /* \"#utility.yul\":20959:20979   */\n      tag_480\n        /* \"#utility.yul\":20977:20978   */\n      dup3\n        /* \"#utility.yul\":20959:20979   */\n      tag_236\n      jump\t// in\n    tag_480:\n        /* \"#utility.yul\":20954:20979   */\n      swap2\n      pop\n        /* \"#utility.yul\":20993:21013   */\n      tag_481\n        /* \"#utility.yul\":21011:21012   */\n      dup4\n        /* \"#utility.yul\":20993:21013   */\n      tag_236\n      jump\t// in\n    tag_481:\n        /* \"#utility.yul\":20988:21013   */\n      swap3\n      pop\n        /* \"#utility.yul\":21037:21038   */\n      dup3\n        /* \"#utility.yul\":21034:21035   */\n      dup3\n        /* \"#utility.yul\":21030:21039   */\n      sub\n        /* \"#utility.yul\":21022:21039   */\n      swap1\n      pop\n        /* \"#utility.yul\":21061:21062   */\n      dup2\n        /* \"#utility.yul\":21055:21059   */\n      dup2\n        /* \"#utility.yul\":21052:21063   */\n      gt\n        /* \"#utility.yul\":21049:21086   */\n      iszero\n      tag_482\n      jumpi\n        /* \"#utility.yul\":21066:21084   */\n      tag_483\n      tag_276\n      jump\t// in\n    tag_483:\n        /* \"#utility.yul\":21049:21086   */\n    tag_482:\n        /* \"#utility.yul\":20899:21093   */\n      swap3\n      swap2\n      pop\n      pop\n      jump\t// out\n        /* \"#utility.yul\":21099:21290   */\n    tag_172:\n        /* \"#utility.yul\":21139:21142   */\n      0x00\n        /* \"#utility.yul\":21158:21178   */\n      tag_485\n        /* \"#utility.yul\":21176:21177   */\n      dup3\n        /* \"#utility.yul\":21158:21178   */\n      tag_236\n      jump\t// in\n    tag_485:\n        /* \"#utility.yul\":21153:21178   */\n      swap2\n      pop\n        /* \"#utility.yul\":21192:21212   */\n      tag_486\n        /* \"#utility.yul\":21210:21211   */\n      dup4\n        /* \"#utility.yul\":21192:21212   */\n      tag_236\n      jump\t// in\n    tag_486:\n        /* \"#utility.yul\":21187:21212   */\n      swap3\n      pop\n        /* \"#utility.yul\":21235:21236   */\n      dup3\n        /* \"#utility.yul\":21232:21233   */\n      dup3\n        /* \"#utility.yul\":21228:21237   */\n      add\n        /* \"#utility.yul\":21221:21237   */\n      swap1\n      pop\n        /* \"#utility.yul\":21256:21259   */\n      dup1\n        /* \"#utility.yul\":21253:21254   */\n      dup3\n        /* \"#utility.yul\":21250:21260   */\n      gt\n        /* \"#utility.yul\":21247:21283   */\n      iszero\n      tag_487\n      jumpi\n        /* \"#utility.yul\":21263:21281   */\n      tag_488\n      tag_276\n      jump\t// in\n    tag_488:\n        /* \"#utility.yul\":21247:21283   */\n    tag_487:\n        /* \"#utility.yul\":21099:21290   */\n      swap3\n      swap2\n      pop\n      pop\n      jump\t// out\n        /* \"#utility.yul\":21296:21466   */\n    tag_277:\n        /* \"#utility.yul\":21436:21458   */\n      0x6d696e7420746f207a65726f2061646472657373000000000000000000000000\n        /* \"#utility.yul\":21432:21433   */\n      0x00\n        /* \"#utility.yul\":21424:21430   */\n      dup3\n        /* \"#utility.yul\":21420:21434   */\n      add\n        /* \"#utility.yul\":21413:21459   */\n      mstore\n        /* \"#utility.yul\":21296:21466   */\n      pop\n      jump\t// out\n        /* \"#utility.yul\":21472:21838   */\n    tag_278:\n        /* \"#utility.yul\":21614:21617   */\n      0x00\n        /* \"#utility.yul\":21635:21702   */\n      tag_491\n        /* \"#utility.yul\":21699:21701   */\n      0x14\n        /* \"#utility.yul\":21694:21697   */\n      dup4\n        /* \"#utility.yul\":21635:21702   */\n      tag_232\n      jump\t// in\n    tag_491:\n        /* \"#utility.yul\":21628:21702   */\n      swap2\n      pop\n        /* \"#utility.yul\":21711:21804   */\n      tag_492\n        /* \"#utility.yul\":21800:21803   */\n      dup3\n        /* \"#utility.yul\":21711:21804   */\n      tag_277\n      jump\t// in\n    tag_492:\n        /* \"#utility.yul\":21829:21831   */\n      0x20\n        /* \"#utility.yul\":21824:21827   */\n      dup3\n        /* \"#utility.yul\":21820:21832   */\n      add\n        /* \"#utility.yul\":21813:21832   */\n      swap1\n      pop\n        /* \"#utility.yul\":21472:21838   */\n      swap2\n      swap1\n      pop\n      jump\t// out\n        /* \"#utility.yul\":21844:22263   */\n    tag_176:\n        /* \"#utility.yul\":22010:22014   */\n      0x00\n        /* \"#utility.yul\":22048:22050   */\n      0x20\n        /* \"#utility.yul\":22037:22046   */\n      dup3\n        /* \"#utility.yul\":22033:22051   */\n      add\n        /* \"#utility.yul\":22025:22051   */\n      swap1\n      pop\n        /* \"#utility.yul\":22097:22106   */\n      dup2\n        /* \"#utility.yul\":22091:22095   */\n      dup2\n        /* \"#utility.yul\":22087:22107   */\n      sub\n        /* \"#utility.yul\":22083:22084   */\n      0x00\n        /* \"#utility.yul\":22072:22081   */\n      dup4\n        /* \"#utility.yul\":22068:22085   */\n      add\n        /* \"#utility.yul\":22061:22108   */\n      mstore\n        /* \"#utility.yul\":22125:22256   */\n      tag_494\n        /* \"#utility.yul\":22251:22255   */\n      dup2\n        /* \"#utility.yul\":22125:22256   */\n      tag_278\n      jump\t// in\n    tag_494:\n        /* \"#utility.yul\":22117:22256   */\n      swap1\n      pop\n        /* \"#utility.yul\":21844:22263   */\n      swap2\n      swap1\n      pop\n      jump\t// out\n        /* \"#utility.yul\":22269:22436   */\n    tag_279:\n        /* \"#utility.yul\":22409:22428   */\n      0x746f6b656e206265656e206d696e746564000000000000000000000000000000\n        /* \"#utility.yul\":22405:22406   */\n      0x00\n        /* \"#utility.yul\":22397:22403   */\n      dup3\n        /* \"#utility.yul\":22393:22407   */\n      add\n        /* \"#utility.yul\":22386:22429   */\n      mstore\n        /* \"#utility.yul\":22269:22436   */\n      pop\n      jump\t// out\n        /* \"#utility.yul\":22442:22808   */\n    tag_280:\n        /* \"#utility.yul\":22584:22587   */\n      0x00\n        /* \"#utility.yul\":22605:22672   */\n      tag_497\n        /* \"#utility.yul\":22669:22671   */\n      0x11\n        /* \"#utility.yul\":22664:22667   */\n      dup4\n        /* \"#utility.yul\":22605:22672   */\n      tag_232\n      jump\t// in\n    tag_497:\n        /* \"#utility.yul\":22598:22672   */\n      swap2\n      pop\n        /* \"#utility.yul\":22681:22774   */\n      tag_498\n        /* \"#utility.yul\":22770:22773   */\n      dup3\n        /* \"#utility.yul\":22681:22774   */\n      tag_279\n      jump\t// in\n    tag_498:\n        /* \"#utility.yul\":22799:22801   */\n      0x20\n        /* \"#utility.yul\":22794:22797   */\n      dup3\n        /* \"#utility.yul\":22790:22802   */\n      add\n        /* \"#utility.yul\":22783:22802   */\n      swap1\n      pop\n        /* \"#utility.yul\":22442:22808   */\n      swap2\n      swap1\n      pop\n      jump\t// out\n        /* \"#utility.yul\":22814:23233   */\n    tag_179:\n        /* \"#utility.yul\":22980:22984   */\n      0x00\n        /* \"#utility.yul\":23018:23020   */\n      0x20\n        /* \"#utility.yul\":23007:23016   */\n      dup3\n        /* \"#utility.yul\":23003:23021   */\n      add\n        /* \"#utility.yul\":22995:23021   */\n      swap1\n      pop\n        /* \"#utility.yul\":23067:23076   */\n      dup2\n        /* \"#utility.yul\":23061:23065   */\n      dup2\n        /* \"#utility.yul\":23057:23077   */\n      sub\n        /* \"#utility.yul\":23053:23054   */\n      0x00\n        /* \"#utility.yul\":23042:23051   */\n      dup4\n        /* \"#utility.yul\":23038:23055   */\n      add\n        /* \"#utility.yul\":23031:23078   */\n      mstore\n        /* \"#utility.yul\":23095:23226   */\n      tag_500\n        /* \"#utility.yul\":23221:23225   */\n      dup2\n        /* \"#utility.yul\":23095:23226   */\n      tag_280\n      jump\t// in\n    tag_500:\n        /* \"#utility.yul\":23087:23226   */\n      swap1\n      pop\n        /* \"#utility.yul\":22814:23233   */\n      swap2\n      swap1\n      pop\n      jump\t// out\n        /* \"#utility.yul\":23239:23407   */\n    tag_281:\n        /* \"#utility.yul\":23379:23399   */\n      0x6e6f742045524337323152656365697665720000000000000000000000000000\n        /* \"#utility.yul\":23375:23376   */\n      0x00\n        /* \"#utility.yul\":23367:23373   */\n      dup3\n        /* \"#utility.yul\":23363:23377   */\n      add\n        /* \"#utility.yul\":23356:23400   */\n      mstore\n        /* \"#utility.yul\":23239:23407   */\n      pop\n      jump\t// out\n        /* \"#utility.yul\":23413:23779   */\n    tag_282:\n        /* \"#utility.yul\":23555:23558   */\n      0x00\n        /* \"#utility.yul\":23576:23643   */\n      tag_503\n        /* \"#utility.yul\":23640:23642   */\n      0x12\n        /* \"#utility.yul\":23635:23638   */\n      dup4\n        /* \"#utility.yul\":23576:23643   */\n      tag_232\n      jump\t// in\n    tag_503:\n        /* \"#utility.yul\":23569:23643   */\n      swap2\n      pop\n        /* \"#utility.yul\":23652:23745   */\n      tag_504\n        /* \"#utility.yul\":23741:23744   */\n      dup3\n        /* \"#utility.yul\":23652:23745   */\n      tag_281\n      jump\t// in\n    tag_504:\n        /* \"#utility.yul\":23770:23772   */\n      0x20\n        /* \"#utility.yul\":23765:23768   */\n      dup3\n        /* \"#utility.yul\":23761:23773   */\n      add\n        /* \"#utility.yul\":23754:23773   */\n      swap1\n      pop\n        /* \"#utility.yul\":23413:23779   */\n      swap2\n      swap1\n      pop\n      jump\t// out\n        /* \"#utility.yul\":23785:24204   */\n    tag_187:\n        /* \"#utility.yul\":23951:23955   */\n      0x00\n        /* \"#utility.yul\":23989:23991   */\n      0x20\n        /* \"#utility.yul\":23978:23987   */\n      dup3\n        /* \"#utility.yul\":23974:23992   */\n      add\n        /* \"#utility.yul\":23966:23992   */\n      swap1\n      pop\n        /* \"#utility.yul\":24038:24047   */\n      dup2\n        /* \"#utility.yul\":24032:24036   */\n      dup2\n        /* \"#utility.yul\":24028:24048   */\n      sub\n        /* \"#utility.yul\":24024:24025   */\n      0x00\n        /* \"#utility.yul\":24013:24022   */\n      dup4\n        /* \"#utility.yul\":24009:24026   */\n      add\n        /* \"#utility.yul\":24002:24049   */\n      mstore\n        /* \"#utility.yul\":24066:24197   */\n      tag_506\n        /* \"#utility.yul\":24192:24196   */\n      dup2\n        /* \"#utility.yul\":24066:24197   */\n      tag_282\n      jump\t// in\n    tag_506:\n        /* \"#utility.yul\":24058:24197   */\n      swap1\n      pop\n        /* \"#utility.yul\":23785:24204   */\n      swap2\n      swap1\n      pop\n      jump\t// out\n        /* \"#utility.yul\":24210:24443   */\n    tag_194:\n        /* \"#utility.yul\":24249:24252   */\n      0x00\n        /* \"#utility.yul\":24272:24296   */\n      tag_508\n        /* \"#utility.yul\":24290:24295   */\n      dup3\n        /* \"#utility.yul\":24272:24296   */\n      tag_236\n      jump\t// in\n    tag_508:\n        /* \"#utility.yul\":24263:24296   */\n      swap2\n      pop\n        /* \"#utility.yul\":24318:24384   */\n      0xffffffffffffffffffffffffffffffffffffffffffffffffffffffffffffffff\n        /* \"#utility.yul\":24311:24316   */\n      dup3\n        /* \"#utility.yul\":24308:24385   */\n      sub\n        /* \"#utility.yul\":24305:24408   */\n      tag_509\n      jumpi\n        /* \"#utility.yul\":24388:24406   */\n      tag_510\n      tag_276\n      jump\t// in\n    tag_510:\n        /* \"#utility.yul\":24305:24408   */\n    tag_509:\n        /* \"#utility.yul\":24435:24436   */\n      0x01\n        /* \"#utility.yul\":24428:24433   */\n      dup3\n        /* \"#utility.yul\":24424:24437   */\n      add\n        /* \"#utility.yul\":24417:24437   */\n      swap1\n      pop\n        /* \"#utility.yul\":24210:24443   */\n      swap2\n      swap1\n      pop\n      jump\t// out\n        /* \"#utility.yul\":24449:24629   */\n    tag_283:\n        /* \"#utility.yul\":24497:24574   */\n      0x4e487b7100000000000000000000000000000000000000000000000000000000\n        /* \"#utility.yul\":24494:24495   */\n      0x00\n        /* \"#utility.yul\":24487:24575   */\n      mstore\n        /* \"#utility.yul\":24594:24598   */\n      0x12\n        /* \"#utility.yul\":24591:24592   */\n      0x04\n        /* \"#utility.yul\":24584:24599   */\n      mstore\n        /* \"#utility.yul\":24618:24622   */\n      0x24\n        /* \"#utility.yul\":24615:24616   */\n      0x00\n        /* \"#utility.yul\":24608:24623   */\n      revert\n        /* \"#utility.yul\":24635:24820   */\n    tag_196:\n        /* \"#utility.yul\":24675:24676   */\n      0x00\n        /* \"#utility.yul\":24692:24712   */\n      tag_513\n        /* \"#utility.yul\":24710:24711   */\n      dup3\n        /* \"#utility.yul\":24692:24712   */\n      tag_236\n      jump\t// in\n    tag_513:\n        /* \"#utility.yul\":24687:24712   */\n      swap2\n      pop\n        /* \"#utility.yul\":24726:24746   */\n      tag_514\n        /* \"#utility.yul\":24744:24745   */\n      dup4\n        /* \"#utility.yul\":24726:24746   */\n      tag_236\n      jump\t// in\n    tag_514:\n        /* \"#utility.yul\":24721:24746   */\n      swap3\n      pop\n        /* \"#utility.yul\":24765:24766   */\n      dup3\n        /* \"#utility.yul\":24755:24790   */\n      tag_515\n      jumpi\n        /* \"#utility.yul\":24770:24788   */\n      tag_516\n      tag_283\n      jump\t// in\n    tag_516:\n        /* \"#utility.yul\":24755:24790   */\n    tag_515:\n        /* \"#utility.yul\":24812:24813   */\n      dup3\n        /* \"#utility.yul\":24809:24810   */\n      dup3\n        /* \"#utility.yul\":24805:24814   */\n      div\n        /* \"#utility.yul\":24800:24814   */\n      swap1\n      pop\n        /* \"#utility.yul\":24635:24820   */\n      swap3\n      swap2\n      pop\n      pop\n      jump\t// out\n        /* \"#utility.yul\":24826:25002   */\n    tag_205:\n        /* \"#utility.yul\":24858:24859   */\n      0x00\n        /* \"#utility.yul\":24875:24895   */\n      tag_518\n        /* \"#utility.yul\":24893:24894   */\n      dup3\n        /* \"#utility.yul\":24875:24895   */\n      tag_236\n      jump\t// in\n    tag_518:\n        /* \"#utility.yul\":24870:24895   */\n      swap2\n      pop\n        /* \"#utility.yul\":24909:24929   */\n      tag_519\n        /* \"#utility.yul\":24927:24928   */\n      dup4\n        /* \"#utility.yul\":24909:24929   */\n      tag_236\n      jump\t// in\n    tag_519:\n        /* \"#utility.yul\":24904:24929   */\n      swap3\n      pop\n        /* \"#utility.yul\":24948:24949   */\n      dup3\n        /* \"#utility.yul\":24938:24973   */\n      tag_520\n      jumpi\n        /* \"#utility.yul\":24953:24971   */\n      tag_521\n      tag_283\n      jump\t// in\n    tag_521:\n        /* \"#utility.yul\":24938:24973   */\n    tag_520:\n        /* \"#utility.yul\":24994:24995   */\n      dup3\n        /* \"#utility.yul\":24991:24992   */\n      dup3\n        /* \"#utility.yul\":24987:24996   */\n      mod\n        /* \"#utility.yul\":24982:24996   */\n      swap1\n      pop\n        /* \"#utility.yul\":24826:25002   */\n      swap3\n      swap2\n      pop\n      pop\n      jump\t// out\n        /* \"#utility.yul\":25008:25188   */\n    tag_209:\n        /* \"#utility.yul\":25056:25133   */\n      0x4e487b7100000000000000000000000000000000000000000000000000000000\n        /* \"#utility.yul\":25053:25054   */\n      0x00\n        /* \"#utility.yul\":25046:25134   */\n      mstore\n        /* \"#utility.yul\":25153:25157   */\n      0x32\n        /* \"#utility.yul\":25150:25151   */\n      0x04\n        /* \"#utility.yul\":25143:25158   */\n      mstore\n        /* \"#utility.yul\":25177:25181   */\n      0x24\n        /* \"#utility.yul\":25174:25175   */\n      0x00\n        /* \"#utility.yul\":25167:25182   */\n      revert\n        /* \"#utility.yul\":25194:25292   */\n    tag_284:\n        /* \"#utility.yul\":25245:25251   */\n      0x00\n        /* \"#utility.yul\":25279:25284   */\n      dup2\n        /* \"#utility.yul\":25273:25285   */\n      mload\n        /* \"#utility.yul\":25263:25285   */\n      swap1\n      pop\n        /* \"#utility.yul\":25194:25292   */\n      swap2\n      swap1\n      pop\n      jump\t// out\n        /* \"#utility.yul\":25298:25466   */\n    tag_285:\n        /* \"#utility.yul\":25381:25392   */\n      0x00\n        /* \"#utility.yul\":25415:25421   */\n      dup3\n        /* \"#utility.yul\":25410:25413   */\n      dup3\n        /* \"#utility.yul\":25403:25422   */\n      mstore\n        /* \"#utility.yul\":25455:25459   */\n      0x20\n        /* \"#utility.yul\":25450:25453   */\n      dup3\n        /* \"#utility.yul\":25446:25460   */\n      add\n        /* \"#utility.yul\":25431:25460   */\n      swap1\n      pop\n        /* \"#utility.yul\":25298:25466   */\n      swap3\n      swap2\n      pop\n      pop\n      jump\t// out\n        /* \"#utility.yul\":25472:25845   */\n    tag_286:\n        /* \"#utility.yul\":25558:25561   */\n      0x00\n        /* \"#utility.yul\":25586:25624   */\n      tag_526\n        /* \"#utility.yul\":25618:25623   */\n      dup3\n        /* \"#utility.yul\":25586:25624   */\n      tag_284\n      jump\t// in\n    tag_526:\n        /* \"#utility.yul\":25640:25710   */\n      tag_527\n        /* \"#utility.yul\":25703:25709   */\n      dup2\n        /* \"#utility.yul\":25698:25701   */\n      dup6\n        /* \"#utility.yul\":25640:25710   */\n      tag_285\n      jump\t// in\n    tag_527:\n        /* \"#utility.yul\":25633:25710   */\n      swap4\n      pop\n        /* \"#utility.yul\":25719:25784   */\n      tag_528\n        /* \"#utility.yul\":25777:25783   */\n      dup2\n        /* \"#utility.yul\":25772:25775   */\n      dup6\n        /* \"#utility.yul\":25765:25769   */\n      0x20\n        /* \"#utility.yul\":25758:25763   */\n      dup7\n        /* \"#utility.yul\":25754:25770   */\n      add\n        /* \"#utility.yul\":25719:25784   */\n      tag_233\n      jump\t// in\n    tag_528:\n        /* \"#utility.yul\":25809:25838   */\n      tag_529\n        /* \"#utility.yul\":25831:25837   */\n      dup2\n        /* \"#utility.yul\":25809:25838   */\n      tag_234\n      jump\t// in\n    tag_529:\n        /* \"#utility.yul\":25804:25807   */\n      dup5\n        /* \"#utility.yul\":25800:25839   */\n      add\n        /* \"#utility.yul\":25793:25839   */\n      swap2\n      pop\n        /* \"#utility.yul\":25562:25845   */\n      pop\n        /* \"#utility.yul\":25472:25845   */\n      swap3\n      swap2\n      pop\n      pop\n      jump\t// out\n        /* \"#utility.yul\":25851:26491   */\n    tag_216:\n        /* \"#utility.yul\":26046:26050   */\n      0x00\n        /* \"#utility.yul\":26084:26087   */\n      0x80\n        /* \"#utility.yul\":26073:26082   */\n      dup3\n        /* \"#utility.yul\":26069:26088   */\n      add\n        /* \"#utility.yul\":26061:26088   */\n      swap1\n      pop\n        /* \"#utility.yul\":26098:26169   */\n      tag_531\n        /* \"#utility.yul\":26166:26167   */\n      0x00\n        /* \"#utility.yul\":26155:26164   */\n      dup4\n        /* \"#utility.yul\":26151:26168   */\n      add\n        /* \"#utility.yul\":26142:26148   */\n      dup8\n        /* \"#utility.yul\":26098:26169   */\n      tag_241\n      jump\t// in\n    tag_531:\n        /* \"#utility.yul\":26179:26251   */\n      tag_532\n        /* \"#utility.yul\":26247:26249   */\n      0x20\n        /* \"#utility.yul\":26236:26245   */\n      dup4\n        /* \"#utility.yul\":26232:26250   */\n      add\n        /* \"#utility.yul\":26223:26229   */\n      dup7\n        /* \"#utility.yul\":26179:26251   */\n      tag_241\n      jump\t// in\n    tag_532:\n        /* \"#utility.yul\":26261:26333   */\n      tag_533\n        /* \"#utility.yul\":26329:26331   */\n      0x40\n        /* \"#utility.yul\":26318:26327   */\n      dup4\n        /* \"#utility.yul\":26314:26332   */\n      add\n        /* \"#utility.yul\":26305:26311   */\n      dup6\n        /* \"#utility.yul\":26261:26333   */\n      tag_244\n      jump\t// in\n    tag_533:\n        /* \"#utility.yul\":26380:26389   */\n      dup2\n        /* \"#utility.yul\":26374:26378   */\n      dup2\n        /* \"#utility.yul\":26370:26390   */\n      sub\n        /* \"#utility.yul\":26365:26367   */\n      0x60\n        /* \"#utility.yul\":26354:26363   */\n      dup4\n        /* \"#utility.yul\":26350:26368   */\n      add\n        /* \"#utility.yul\":26343:26391   */\n      mstore\n        /* \"#utility.yul\":26408:26484   */\n      tag_534\n        /* \"#utility.yul\":26479:26483   */\n      dup2\n        /* \"#utility.yul\":26470:26476   */\n      dup5\n        /* \"#utility.yul\":26408:26484   */\n      tag_286\n      jump\t// in\n    tag_534:\n        /* \"#utility.yul\":26400:26484   */\n      swap1\n      pop\n        /* \"#utility.yul\":25851:26491   */\n      swap6\n      swap5\n      pop\n      pop\n      pop\n      pop\n      pop\n      jump\t// out\n        /* \"#utility.yul\":26497:26638   */\n    tag_287:\n        /* \"#utility.yul\":26553:26558   */\n      0x00\n        /* \"#utility.yul\":26584:26590   */\n      dup2\n        /* \"#utility.yul\":26578:26591   */\n      mload\n        /* \"#utility.yul\":26569:26591   */\n      swap1\n      pop\n        /* \"#utility.yul\":26600:26632   */\n      tag_536\n        /* \"#utility.yul\":26626:26631   */\n      dup2\n        /* \"#utility.yul\":26600:26632   */\n      tag_227\n      jump\t// in\n    tag_536:\n        /* \"#utility.yul\":26497:26638   */\n      swap3\n      swap2\n      pop\n      pop\n      jump\t// out\n        /* \"#utility.yul\":26644:26993   */\n    tag_220:\n        /* \"#utility.yul\":26713:26719   */\n      0x00\n        /* \"#utility.yul\":26762:26764   */\n      0x20\n        /* \"#utility.yul\":26750:26759   */\n      dup3\n        /* \"#utility.yul\":26741:26748   */\n      dup5\n        /* \"#utility.yul\":26737:26760   */\n      sub\n        /* \"#utility.yul\":26733:26765   */\n      slt\n        /* \"#utility.yul\":26730:26849   */\n      iszero\n      tag_538\n      jumpi\n        /* \"#utility.yul\":26768:26847   */\n      tag_539\n      tag_224\n      jump\t// in\n    tag_539:\n        /* \"#utility.yul\":26730:26849   */\n    tag_538:\n        /* \"#utility.yul\":26888:26889   */\n      0x00\n        /* \"#utility.yul\":26913:26976   */\n      tag_540\n        /* \"#utility.yul\":26968:26975   */\n      dup5\n        /* \"#utility.yul\":26959:26965   */\n      dup3\n        /* \"#utility.yul\":26948:26957   */\n      dup6\n        /* \"#utility.yul\":26944:26966   */\n      add\n        /* \"#utility.yul\":26913:26976   */\n      tag_287\n      jump\t// in\n    tag_540:\n        /* \"#utility.yul\":26903:26976   */\n      swap2\n      pop\n        /* \"#utility.yul\":26859:26986   */\n      pop\n        /* \"#utility.yul\":26644:26993   */\n      swap3\n      swap2\n      pop\n      pop\n      jump\t// out\n    stop\n    data_8382b382247cd07401a2ef2f394137c3f3b0972798bae0a9c78b0c261acbb56b 697066733a2f2f516d65536a53696e4870506e6d586d73704d6a776958794e367a533445397a63636172694752336a7863615774712f\n\n    auxdata: 0xa26469706673582212207001124dc2cdcd4a4a75a4e4cc16396b38c70fed6bc7f0ef58423601142e7b4564736f6c63430008120033\n}\n",
				"bytecode": {
					"linkReferences": {},
					"object": "60806040526127106006553480156200001757600080fd5b5060405162002a6138038062002a6183398181016040528101906200003d919062000200565b81818160009081620000509190620004d0565b508060019081620000629190620004d0565b5050505050620005b7565b6000604051905090565b600080fd5b600080fd5b600080fd5b600080fd5b6000601f19601f8301169050919050565b7f4e487b7100000000000000000000000000000000000000000000000000000000600052604160045260246000fd5b620000d6826200008b565b810181811067ffffffffffffffff82111715620000f857620000f76200009c565b5b80604052505050565b60006200010d6200006d565b90506200011b8282620000cb565b919050565b600067ffffffffffffffff8211156200013e576200013d6200009c565b5b62000149826200008b565b9050602081019050919050565b60005b838110156200017657808201518184015260208101905062000159565b60008484015250505050565b600062000199620001938462000120565b62000101565b905082815260208101848484011115620001b857620001b762000086565b5b620001c584828562000156565b509392505050565b600082601f830112620001e557620001e462000081565b5b8151620001f784826020860162000182565b91505092915050565b600080604083850312156200021a576200021962000077565b5b600083015167ffffffffffffffff8111156200023b576200023a6200007c565b5b6200024985828601620001cd565b925050602083015167ffffffffffffffff8111156200026d576200026c6200007c565b5b6200027b85828601620001cd565b9150509250929050565b600081519050919050565b7f4e487b7100000000000000000000000000000000000000000000000000000000600052602260045260246000fd5b60006002820490506001821680620002d857607f821691505b602082108103620002ee57620002ed62000290565b5b50919050565b60008190508160005260206000209050919050565b60006020601f8301049050919050565b600082821b905092915050565b600060088302620003587fffffffffffffffffffffffffffffffffffffffffffffffffffffffffffffffff8262000319565b62000364868362000319565b95508019841693508086168417925050509392505050565b6000819050919050565b6000819050919050565b6000620003b1620003ab620003a5846200037c565b62000386565b6200037c565b9050919050565b6000819050919050565b620003cd8362000390565b620003e5620003dc82620003b8565b84845462000326565b825550505050565b600090565b620003fc620003ed565b62000409818484620003c2565b505050565b5b81811015620004315762000425600082620003f2565b6001810190506200040f565b5050565b601f82111562000480576200044a81620002f4565b620004558462000309565b8101602085101562000465578190505b6200047d620004748562000309565b8301826200040e565b50505b505050565b600082821c905092915050565b6000620004a56000198460080262000485565b1980831691505092915050565b6000620004c0838362000492565b9150826002028217905092915050565b620004db8262000285565b67ffffffffffffffff811115620004f757620004f66200009c565b5b620005038254620002bf565b6200051082828562000435565b600060209050601f83116001811462000548576000841562000533578287015190505b6200053f8582620004b2565b865550620005af565b601f1984166200055886620002f4565b60005b8281101562000582578489015182556001820191506020850194506020810190506200055b565b86831015620005a257848901516200059e601f89168262000492565b8355505b6001600288020188555050505b505050505050565b61249a80620005c76000396000f3fe608060405234801561001057600080fd5b50600436106100f55760003560e01c80636352211e11610097578063a22cb46511610066578063a22cb46514610284578063b88d4fde146102a0578063c87b56dd146102bc578063e985e9c5146102ec576100f5565b80636352211e146101e85780636fdaddf11461021857806370a082311461023657806395d89b4114610266576100f5565b8063095ea7b3116100d3578063095ea7b31461017857806323b872dd1461019457806340c10f19146101b057806342842e0e146101cc576100f5565b806301ffc9a7146100fa57806306fdde031461012a578063081812fc14610148575b600080fd5b610114600480360381019061010f919061168e565b61031c565b60405161012191906116d6565b60405180910390f35b610132610456565b60405161013f9190611781565b60405180910390f35b610162600480360381019061015d91906117d9565b6104e4565b60405161016f9190611847565b60405180910390f35b610192600480360381019061018d919061188e565b6105c2565b005b6101ae60048036038101906101a991906118ce565b610709565b005b6101ca60048036038101906101c5919061188e565b610772565b005b6101e660048036038101906101e191906118ce565b6107d0565b005b61020260048036038101906101fd91906117d9565b6107f0565b60405161020f9190611847565b60405180910390f35b61022061089c565b60405161022d9190611930565b60405180910390f35b610250600480360381019061024b919061194b565b6108a2565b60405161025d9190611930565b60405180910390f35b61026e610959565b60405161027b9190611781565b60405180910390f35b61029e600480360381019061029991906119a4565b6109e7565b005b6102ba60048036038101906102b59190611b19565b610ae4565b005b6102d660048036038101906102d191906117d9565b610b4f565b6040516102e39190611781565b60405180910390f35b61030660048036038101906103019190611b9c565b610c50565b60405161031391906116d6565b60405180910390f35b60007f80ac58cd000000000000000000000000000000000000000000000000000000007bffffffffffffffffffffffffffffffffffffffffffffffffffffffff1916827bffffffffffffffffffffffffffffffffffffffffffffffffffffffff191614806103e757507f01ffc9a7000000000000000000000000000000000000000000000000000000007bffffffffffffffffffffffffffffffffffffffffffffffffffffffff1916827bffffffffffffffffffffffffffffffffffffffffffffffffffffffff1916145b8061044f57507f5b5e139f000000000000000000000000000000000000000000000000000000007bffffffffffffffffffffffffffffffffffffffffffffffffffffffff1916827bffffffffffffffffffffffffffffffffffffffffffffffffffffffff1916145b9050919050565b6000805461046390611c0b565b80601f016020809104026020016040519081016040528092919081815260200182805461048f90611c0b565b80156104dc5780601f106104b1576101008083540402835291602001916104dc565b820191906000526020600020905b8154815290600101906020018083116104bf57829003601f168201915b505050505081565b60008073ffffffffffffffffffffffffffffffffffffffff166002600084815260200190815260200160002060009054906101000a900473ffffffffffffffffffffffffffffffffffffffff1673ffffffffffffffffffffffffffffffffffffffff1603610587576040517f08c379a000000000000000000000000000000000000000000000000000000000815260040161057e90611c88565b60405180910390fd5b6004600083815260200190815260200160002060009054906101000a900473ffffffffffffffffffffffffffffffffffffffff169050919050565b60006002600083815260200190815260200160002060009054906101000a900473ffffffffffffffffffffffffffffffffffffffff1690503373ffffffffffffffffffffffffffffffffffffffff168173ffffffffffffffffffffffffffffffffffffffff1614806106ba5750600560008273ffffffffffffffffffffffffffffffffffffffff1673ffffffffffffffffffffffffffffffffffffffff16815260200190815260200160002060003373ffffffffffffffffffffffffffffffffffffffff1673ffffffffffffffffffffffffffffffffffffffff16815260200190815260200160002060009054906101000a900460ff165b6106f9576040517f08c379a00000000000000000000000000000000000000000000000000000000081526004016106f090611cf4565b60405180910390fd5b610704818484610ce4565b505050565b6000610714826107f0565b9050610721813384610d96565b610760576040517f08c379a000000000000000000000000000000000000000000000000000000000815260040161075790611d60565b60405180910390fd5b61076c81858585610eca565b50505050565b600081118015610783575060065481105b6107c2576040517f08c379a00000000000000000000000000000000000000000000000000000000081526004016107b990611dcc565b60405180910390fd5b6107cc8282611114565b5050565b6107eb83838360405180602001604052806000815250610ae4565b505050565b60006002600083815260200190815260200160002060009054906101000a900473ffffffffffffffffffffffffffffffffffffffff169050600073ffffffffffffffffffffffffffffffffffffffff168173ffffffffffffffffffffffffffffffffffffffff1603610897576040517f08c379a000000000000000000000000000000000000000000000000000000000815260040161088e90611e38565b60405180910390fd5b919050565b60065481565b60008073ffffffffffffffffffffffffffffffffffffffff168273ffffffffffffffffffffffffffffffffffffffff1603610912576040517f08c379a000000000000000000000000000000000000000000000000000000000815260040161090990611ea4565b60405180910390fd5b600360008373ffffffffffffffffffffffffffffffffffffffff1673ffffffffffffffffffffffffffffffffffffffff168152602001908152602001600020549050919050565b6001805461096690611c0b565b80601f016020809104026020016040519081016040528092919081815260200182805461099290611c0b565b80156109df5780601f106109b4576101008083540402835291602001916109df565b820191906000526020600020905b8154815290600101906020018083116109c257829003601f168201915b505050505081565b80600560003373ffffffffffffffffffffffffffffffffffffffff1673ffffffffffffffffffffffffffffffffffffffff16815260200190815260200160002060008473ffffffffffffffffffffffffffffffffffffffff1673ffffffffffffffffffffffffffffffffffffffff16815260200190815260200160002060006101000a81548160ff0219169083151502179055508173ffffffffffffffffffffffffffffffffffffffff163373ffffffffffffffffffffffffffffffffffffffff167f17307eab39ab6107e8899845ad3d59bd9653f200f220920489ca2b5937696c3183604051610ad891906116d6565b60405180910390a35050565b6000610aef836107f0565b9050610afc813385610d96565b610b3b576040517f08c379a0000000000000000000000000000000000000000000000000000000008152600401610b3290611d60565b60405180910390fd5b610b48818686868661132e565b5050505050565b6060600073ffffffffffffffffffffffffffffffffffffffff166002600084815260200190815260200160002060009054906101000a900473ffffffffffffffffffffffffffffffffffffffff1673ffffffffffffffffffffffffffffffffffffffff1603610bf3576040517f08c379a0000000000000000000000000000000000000000000000000000000008152600401610bea90611f10565b60405180910390fd5b6000610bfd61138c565b90506000815111610c1d5760405180602001604052806000815250610c48565b80610c27846113ac565b604051602001610c38929190611f6c565b6040516020818303038152906040525b915050919050565b6000600560008473ffffffffffffffffffffffffffffffffffffffff1673ffffffffffffffffffffffffffffffffffffffff16815260200190815260200160002060008373ffffffffffffffffffffffffffffffffffffffff1673ffffffffffffffffffffffffffffffffffffffff16815260200190815260200160002060009054906101000a900460ff16905092915050565b816004600083815260200190815260200160002060006101000a81548173ffffffffffffffffffffffffffffffffffffffff021916908373ffffffffffffffffffffffffffffffffffffffff160217905550808273ffffffffffffffffffffffffffffffffffffffff168473ffffffffffffffffffffffffffffffffffffffff167f8c5be1e5ebec7d5bd14f71427d1e84f3dd0314c0f7b2291e5b200ac8c7c3b92560405160405180910390a4505050565b60008373ffffffffffffffffffffffffffffffffffffffff168373ffffffffffffffffffffffffffffffffffffffff161480610e3057508273ffffffffffffffffffffffffffffffffffffffff166004600084815260200190815260200160002060009054906101000a900473ffffffffffffffffffffffffffffffffffffffff1673ffffffffffffffffffffffffffffffffffffffff16145b80610ec15750600560008573ffffffffffffffffffffffffffffffffffffffff1673ffffffffffffffffffffffffffffffffffffffff16815260200190815260200160002060008473ffffffffffffffffffffffffffffffffffffffff1673ffffffffffffffffffffffffffffffffffffffff16815260200190815260200160002060009054906101000a900460ff165b90509392505050565b8373ffffffffffffffffffffffffffffffffffffffff168373ffffffffffffffffffffffffffffffffffffffff1614610f38576040517f08c379a0000000000000000000000000000000000000000000000000000000008152600401610f2f90611fdc565b60405180910390fd5b600073ffffffffffffffffffffffffffffffffffffffff168273ffffffffffffffffffffffffffffffffffffffff1603610fa7576040517f08c379a0000000000000000000000000000000000000000000000000000000008152600401610f9e90612048565b60405180910390fd5b610fb384600083610ce4565b6001600360008573ffffffffffffffffffffffffffffffffffffffff1673ffffffffffffffffffffffffffffffffffffffff16815260200190815260200160002060008282546110039190612097565b925050819055506001600360008473ffffffffffffffffffffffffffffffffffffffff1673ffffffffffffffffffffffffffffffffffffffff168152602001908152602001600020600082825461105a91906120cb565b92505081905550816002600083815260200190815260200160002060006101000a81548173ffffffffffffffffffffffffffffffffffffffff021916908373ffffffffffffffffffffffffffffffffffffffff160217905550808273ffffffffffffffffffffffffffffffffffffffff168473ffffffffffffffffffffffffffffffffffffffff167fddf252ad1be2c89b69c2b068fc378daa952ba7f163c4a11628f55a4df523b3ef60405160405180910390a450505050565b600073ffffffffffffffffffffffffffffffffffffffff168273ffffffffffffffffffffffffffffffffffffffff1603611183576040517f08c379a000000000000000000000000000000000000000000000000000000000815260040161117a9061214b565b60405180910390fd5b600073ffffffffffffffffffffffffffffffffffffffff166002600083815260200190815260200160002060009054906101000a900473ffffffffffffffffffffffffffffffffffffffff1673ffffffffffffffffffffffffffffffffffffffff1614611225576040517f08c379a000000000000000000000000000000000000000000000000000000000815260040161121c906121b7565b60405180910390fd5b6001600360008473ffffffffffffffffffffffffffffffffffffffff1673ffffffffffffffffffffffffffffffffffffffff168152602001908152602001600020600082825461127591906120cb565b92505081905550816002600083815260200190815260200160002060006101000a81548173ffffffffffffffffffffffffffffffffffffffff021916908373ffffffffffffffffffffffffffffffffffffffff160217905550808273ffffffffffffffffffffffffffffffffffffffff16600073ffffffffffffffffffffffffffffffffffffffff167fddf252ad1be2c89b69c2b068fc378daa952ba7f163c4a11628f55a4df523b3ef60405160405180910390a45050565b61133a85858585610eca565b6113468484848461150c565b611385576040517f08c379a000000000000000000000000000000000000000000000000000000000815260040161137c90612223565b60405180910390fd5b5050505050565b606060405180606001604052806036815260200161242f60369139905090565b6060600082036113f3576040518060400160405280600181526020017f30000000000000000000000000000000000000000000000000000000000000008152509050611507565b600082905060005b6000821461142557808061140e90612243565b915050600a8261141e91906122ba565b91506113fb565b60008167ffffffffffffffff811115611441576114406119ee565b5b6040519080825280601f01601f1916602001820160405280156114735781602001600182028036833780820191505090505b5090505b600085146115005760018261148c9190612097565b9150600a8561149b91906122eb565b60306114a791906120cb565b60f81b8183815181106114bd576114bc61231c565b5b60200101907effffffffffffffffffffffffffffffffffffffffffffffffffffffffffffff1916908160001a905350600a856114f991906122ba565b9450611477565b8093505050505b919050565b600061152d8473ffffffffffffffffffffffffffffffffffffffff1661160f565b156116025763150b7a0260e01b7bffffffffffffffffffffffffffffffffffffffffffffffffffffffff19168473ffffffffffffffffffffffffffffffffffffffff1663150b7a02338887876040518563ffffffff1660e01b815260040161159894939291906123a0565b6020604051808303816000875af11580156115b7573d6000803e3d6000fd5b505050506040513d601f19601f820116820180604052508101906115db9190612401565b7bffffffffffffffffffffffffffffffffffffffffffffffffffffffff1916149050611607565b600190505b949350505050565b600080823b905060008111915050919050565b6000604051905090565b600080fd5b600080fd5b60007fffffffff0000000000000000000000000000000000000000000000000000000082169050919050565b61166b81611636565b811461167657600080fd5b50565b60008135905061168881611662565b92915050565b6000602082840312156116a4576116a361162c565b5b60006116b284828501611679565b91505092915050565b60008115159050919050565b6116d0816116bb565b82525050565b60006020820190506116eb60008301846116c7565b92915050565b600081519050919050565b600082825260208201905092915050565b60005b8381101561172b578082015181840152602081019050611710565b60008484015250505050565b6000601f19601f8301169050919050565b6000611753826116f1565b61175d81856116fc565b935061176d81856020860161170d565b61177681611737565b840191505092915050565b6000602082019050818103600083015261179b8184611748565b905092915050565b6000819050919050565b6117b6816117a3565b81146117c157600080fd5b50565b6000813590506117d3816117ad565b92915050565b6000602082840312156117ef576117ee61162c565b5b60006117fd848285016117c4565b91505092915050565b600073ffffffffffffffffffffffffffffffffffffffff82169050919050565b600061183182611806565b9050919050565b61184181611826565b82525050565b600060208201905061185c6000830184611838565b92915050565b61186b81611826565b811461187657600080fd5b50565b60008135905061188881611862565b92915050565b600080604083850312156118a5576118a461162c565b5b60006118b385828601611879565b92505060206118c4858286016117c4565b9150509250929050565b6000806000606084860312156118e7576118e661162c565b5b60006118f586828701611879565b935050602061190686828701611879565b9250506040611917868287016117c4565b9150509250925092565b61192a816117a3565b82525050565b60006020820190506119456000830184611921565b92915050565b6000602082840312156119615761196061162c565b5b600061196f84828501611879565b91505092915050565b611981816116bb565b811461198c57600080fd5b50565b60008135905061199e81611978565b92915050565b600080604083850312156119bb576119ba61162c565b5b60006119c985828601611879565b92505060206119da8582860161198f565b9150509250929050565b600080fd5b600080fd5b7f4e487b7100000000000000000000000000000000000000000000000000000000600052604160045260246000fd5b611a2682611737565b810181811067ffffffffffffffff82111715611a4557611a446119ee565b5b80604052505050565b6000611a58611622565b9050611a648282611a1d565b919050565b600067ffffffffffffffff821115611a8457611a836119ee565b5b611a8d82611737565b9050602081019050919050565b82818337600083830152505050565b6000611abc611ab784611a69565b611a4e565b905082815260208101848484011115611ad857611ad76119e9565b5b611ae3848285611a9a565b509392505050565b600082601f830112611b0057611aff6119e4565b5b8135611b10848260208601611aa9565b91505092915050565b60008060008060808587031215611b3357611b3261162c565b5b6000611b4187828801611879565b9450506020611b5287828801611879565b9350506040611b63878288016117c4565b925050606085013567ffffffffffffffff811115611b8457611b83611631565b5b611b9087828801611aeb565b91505092959194509250565b60008060408385031215611bb357611bb261162c565b5b6000611bc185828601611879565b9250506020611bd285828601611879565b9150509250929050565b7f4e487b7100000000000000000000000000000000000000000000000000000000600052602260045260246000fd5b60006002820490506001821680611c2357607f821691505b602082108103611c3657611c35611bdc565b5b50919050565b7f746f6b656e206e6f742076616c69640000000000000000000000000000000000600082015250565b6000611c72600f836116fc565b9150611c7d82611c3c565b602082019050919050565b60006020820190508181036000830152611ca181611c65565b9050919050565b7f6e6f74206f776e6572206f72206f70657261746f720000000000000000000000600082015250565b6000611cde6015836116fc565b9150611ce982611ca8565b602082019050919050565b60006020820190508181036000830152611d0d81611cd1565b9050919050565b7f6e6f74206f776e6572206e6f7220617070726f76656400000000000000000000600082015250565b6000611d4a6016836116fc565b9150611d5582611d14565b602082019050919050565b60006020820190508181036000830152611d7981611d3d565b9050919050565b7f6f7574206f662072616e67650000000000000000000000000000000000000000600082015250565b6000611db6600c836116fc565b9150611dc182611d80565b602082019050919050565b60006020820190508181036000830152611de581611da9565b9050919050565b7f746f6b656e20646f65736e277420657869737400000000000000000000000000600082015250565b6000611e226013836116fc565b9150611e2d82611dec565b602082019050919050565b60006020820190508181036000830152611e5181611e15565b9050919050565b7f6f776e6572203d207a65726f2061646472657373000000000000000000000000600082015250565b6000611e8e6014836116fc565b9150611e9982611e58565b602082019050919050565b60006020820190508181036000830152611ebd81611e81565b9050919050565b7f546f6b656e206e6f742065786973740000000000000000000000000000000000600082015250565b6000611efa600f836116fc565b9150611f0582611ec4565b602082019050919050565b60006020820190508181036000830152611f2981611eed565b9050919050565b600081905092915050565b6000611f46826116f1565b611f508185611f30565b9350611f6081856020860161170d565b80840191505092915050565b6000611f788285611f3b565b9150611f848284611f3b565b91508190509392505050565b7f66726f6d206e6f74206f776e6572000000000000000000000000000000000000600082015250565b6000611fc6600e836116fc565b9150611fd182611f90565b602082019050919050565b60006020820190508181036000830152611ff581611fb9565b9050919050565b7f7472616e7366657220746f207a65726f20616464726573730000000000000000600082015250565b60006120326018836116fc565b915061203d82611ffc565b602082019050919050565b6000602082019050818103600083015261206181612025565b9050919050565b7f4e487b7100000000000000000000000000000000000000000000000000000000600052601160045260246000fd5b60006120a2826117a3565b91506120ad836117a3565b92508282039050818111156120c5576120c4612068565b5b92915050565b60006120d6826117a3565b91506120e1836117a3565b92508282019050808211156120f9576120f8612068565b5b92915050565b7f6d696e7420746f207a65726f2061646472657373000000000000000000000000600082015250565b60006121356014836116fc565b9150612140826120ff565b602082019050919050565b6000602082019050818103600083015261216481612128565b9050919050565b7f746f6b656e206265656e206d696e746564000000000000000000000000000000600082015250565b60006121a16011836116fc565b91506121ac8261216b565b602082019050919050565b600060208201905081810360008301526121d081612194565b9050919050565b7f6e6f742045524337323152656365697665720000000000000000000000000000600082015250565b600061220d6012836116fc565b9150612218826121d7565b602082019050919050565b6000602082019050818103600083015261223c81612200565b9050919050565b600061224e826117a3565b91507fffffffffffffffffffffffffffffffffffffffffffffffffffffffffffffffff82036122805761227f612068565b5b600182019050919050565b7f4e487b7100000000000000000000000000000000000000000000000000000000600052601260045260246000fd5b60006122c5826117a3565b91506122d0836117a3565b9250826122e0576122df61228b565b5b828204905092915050565b60006122f6826117a3565b9150612301836117a3565b9250826123115761231061228b565b5b828206905092915050565b7f4e487b7100000000000000000000000000000000000000000000000000000000600052603260045260246000fd5b600081519050919050565b600082825260208201905092915050565b60006123728261234b565b61237c8185612356565b935061238c81856020860161170d565b61239581611737565b840191505092915050565b60006080820190506123b56000830187611838565b6123c26020830186611838565b6123cf6040830185611921565b81810360608301526123e18184612367565b905095945050505050565b6000815190506123fb81611662565b92915050565b6000602082840312156124175761241661162c565b5b6000612425848285016123ec565b9150509291505056fe697066733a2f2f516d65536a53696e4870506e6d586d73704d6a776958794e367a533445397a63636172694752336a7863615774712fa26469706673582212207001124dc2cdcd4a4a75a4e4cc16396b38c70fed6bc7f0ef58423601142e7b4564736f6c63430008120033",
					"opcodes": "PUSH1 0x80 PUSH1 0x40 MSTORE PUSH2 0x2710 PUSH1 0x6 SSTORE CALLVALUE DUP1 ISZERO PUSH3 0x17 JUMPI PUSH1 0x0 DUP1 REVERT JUMPDEST POP PUSH1 0x40 MLOAD PUSH3 0x2A61 CODESIZE SUB DUP1 PUSH3 0x2A61 DUP4 CODECOPY DUP2 DUP2 ADD PUSH1 0x40 MSTORE DUP2 ADD SWAP1 PUSH3 0x3D SWAP2 SWAP1 PUSH3 0x200 JUMP JUMPDEST DUP2 DUP2 DUP2 PUSH1 0x0 SWAP1 DUP2 PUSH3 0x50 SWAP2 SWAP1 PUSH3 0x4D0 JUMP JUMPDEST POP DUP1 PUSH1 0x1 SWAP1 DUP2 PUSH3 0x62 SWAP2 SWAP1 PUSH3 0x4D0 JUMP JUMPDEST POP POP POP POP POP PUSH3 0x5B7 JUMP JUMPDEST PUSH1 0x0 PUSH1 0x40 MLOAD SWAP1 POP SWAP1 JUMP JUMPDEST PUSH1 0x0 DUP1 REVERT JUMPDEST PUSH1 0x0 DUP1 REVERT JUMPDEST PUSH1 0x0 DUP1 REVERT JUMPDEST PUSH1 0x0 DUP1 REVERT JUMPDEST PUSH1 0x0 PUSH1 0x1F NOT PUSH1 0x1F DUP4 ADD AND SWAP1 POP SWAP2 SWAP1 POP JUMP JUMPDEST PUSH32 0x4E487B7100000000000000000000000000000000000000000000000000000000 PUSH1 0x0 MSTORE PUSH1 0x41 PUSH1 0x4 MSTORE PUSH1 0x24 PUSH1 0x0 REVERT JUMPDEST PUSH3 0xD6 DUP3 PUSH3 0x8B JUMP JUMPDEST DUP2 ADD DUP2 DUP2 LT PUSH8 0xFFFFFFFFFFFFFFFF DUP3 GT OR ISZERO PUSH3 0xF8 JUMPI PUSH3 0xF7 PUSH3 0x9C JUMP JUMPDEST JUMPDEST DUP1 PUSH1 0x40 MSTORE POP POP POP JUMP JUMPDEST PUSH1 0x0 PUSH3 0x10D PUSH3 0x6D JUMP JUMPDEST SWAP1 POP PUSH3 0x11B DUP3 DUP3 PUSH3 0xCB JUMP JUMPDEST SWAP2 SWAP1 POP JUMP JUMPDEST PUSH1 0x0 PUSH8 0xFFFFFFFFFFFFFFFF DUP3 GT ISZERO PUSH3 0x13E JUMPI PUSH3 0x13D PUSH3 0x9C JUMP JUMPDEST JUMPDEST PUSH3 0x149 DUP3 PUSH3 0x8B JUMP JUMPDEST SWAP1 POP PUSH1 0x20 DUP2 ADD SWAP1 POP SWAP2 SWAP1 POP JUMP JUMPDEST PUSH1 0x0 JUMPDEST DUP4 DUP2 LT ISZERO PUSH3 0x176 JUMPI DUP1 DUP3 ADD MLOAD DUP2 DUP5 ADD MSTORE PUSH1 0x20 DUP2 ADD SWAP1 POP PUSH3 0x159 JUMP JUMPDEST PUSH1 0x0 DUP5 DUP5 ADD MSTORE POP POP POP POP JUMP JUMPDEST PUSH1 0x0 PUSH3 0x199 PUSH3 0x193 DUP5 PUSH3 0x120 JUMP JUMPDEST PUSH3 0x101 JUMP JUMPDEST SWAP1 POP DUP3 DUP2 MSTORE PUSH1 0x20 DUP2 ADD DUP5 DUP5 DUP5 ADD GT ISZERO PUSH3 0x1B8 JUMPI PUSH3 0x1B7 PUSH3 0x86 JUMP JUMPDEST JUMPDEST PUSH3 0x1C5 DUP5 DUP3 DUP6 PUSH3 0x156 JUMP JUMPDEST POP SWAP4 SWAP3 POP POP POP JUMP JUMPDEST PUSH1 0x0 DUP3 PUSH1 0x1F DUP4 ADD SLT PUSH3 0x1E5 JUMPI PUSH3 0x1E4 PUSH3 0x81 JUMP JUMPDEST JUMPDEST DUP2 MLOAD PUSH3 0x1F7 DUP5 DUP3 PUSH1 0x20 DUP7 ADD PUSH3 0x182 JUMP JUMPDEST SWAP2 POP POP SWAP3 SWAP2 POP POP JUMP JUMPDEST PUSH1 0x0 DUP1 PUSH1 0x40 DUP4 DUP6 SUB SLT ISZERO PUSH3 0x21A JUMPI PUSH3 0x219 PUSH3 0x77 JUMP JUMPDEST JUMPDEST PUSH1 0x0 DUP4 ADD MLOAD PUSH8 0xFFFFFFFFFFFFFFFF DUP2 GT ISZERO PUSH3 0x23B JUMPI PUSH3 0x23A PUSH3 0x7C JUMP JUMPDEST JUMPDEST PUSH3 0x249 DUP6 DUP3 DUP7 ADD PUSH3 0x1CD JUMP JUMPDEST SWAP3 POP POP PUSH1 0x20 DUP4 ADD MLOAD PUSH8 0xFFFFFFFFFFFFFFFF DUP2 GT ISZERO PUSH3 0x26D JUMPI PUSH3 0x26C PUSH3 0x7C JUMP JUMPDEST JUMPDEST PUSH3 0x27B DUP6 DUP3 DUP7 ADD PUSH3 0x1CD JUMP JUMPDEST SWAP2 POP POP SWAP3 POP SWAP3 SWAP1 POP JUMP JUMPDEST PUSH1 0x0 DUP2 MLOAD SWAP1 POP SWAP2 SWAP1 POP JUMP JUMPDEST PUSH32 0x4E487B7100000000000000000000000000000000000000000000000000000000 PUSH1 0x0 MSTORE PUSH1 0x22 PUSH1 0x4 MSTORE PUSH1 0x24 PUSH1 0x0 REVERT JUMPDEST PUSH1 0x0 PUSH1 0x2 DUP3 DIV SWAP1 POP PUSH1 0x1 DUP3 AND DUP1 PUSH3 0x2D8 JUMPI PUSH1 0x7F DUP3 AND SWAP2 POP JUMPDEST PUSH1 0x20 DUP3 LT DUP2 SUB PUSH3 0x2EE JUMPI PUSH3 0x2ED PUSH3 0x290 JUMP JUMPDEST JUMPDEST POP SWAP2 SWAP1 POP JUMP JUMPDEST PUSH1 0x0 DUP2 SWAP1 POP DUP2 PUSH1 0x0 MSTORE PUSH1 0x20 PUSH1 0x0 KECCAK256 SWAP1 POP SWAP2 SWAP1 POP JUMP JUMPDEST PUSH1 0x0 PUSH1 0x20 PUSH1 0x1F DUP4 ADD DIV SWAP1 POP SWAP2 SWAP1 POP JUMP JUMPDEST PUSH1 0x0 DUP3 DUP3 SHL SWAP1 POP SWAP3 SWAP2 POP POP JUMP JUMPDEST PUSH1 0x0 PUSH1 0x8 DUP4 MUL PUSH3 0x358 PUSH32 0xFFFFFFFFFFFFFFFFFFFFFFFFFFFFFFFFFFFFFFFFFFFFFFFFFFFFFFFFFFFFFFFF DUP3 PUSH3 0x319 JUMP JUMPDEST PUSH3 0x364 DUP7 DUP4 PUSH3 0x319 JUMP JUMPDEST SWAP6 POP DUP1 NOT DUP5 AND SWAP4 POP DUP1 DUP7 AND DUP5 OR SWAP3 POP POP POP SWAP4 SWAP3 POP POP POP JUMP JUMPDEST PUSH1 0x0 DUP2 SWAP1 POP SWAP2 SWAP1 POP JUMP JUMPDEST PUSH1 0x0 DUP2 SWAP1 POP SWAP2 SWAP1 POP JUMP JUMPDEST PUSH1 0x0 PUSH3 0x3B1 PUSH3 0x3AB PUSH3 0x3A5 DUP5 PUSH3 0x37C JUMP JUMPDEST PUSH3 0x386 JUMP JUMPDEST PUSH3 0x37C JUMP JUMPDEST SWAP1 POP SWAP2 SWAP1 POP JUMP JUMPDEST PUSH1 0x0 DUP2 SWAP1 POP SWAP2 SWAP1 POP JUMP JUMPDEST PUSH3 0x3CD DUP4 PUSH3 0x390 JUMP JUMPDEST PUSH3 0x3E5 PUSH3 0x3DC DUP3 PUSH3 0x3B8 JUMP JUMPDEST DUP5 DUP5 SLOAD PUSH3 0x326 JUMP JUMPDEST DUP3 SSTORE POP POP POP POP JUMP JUMPDEST PUSH1 0x0 SWAP1 JUMP JUMPDEST PUSH3 0x3FC PUSH3 0x3ED JUMP JUMPDEST PUSH3 0x409 DUP2 DUP5 DUP5 PUSH3 0x3C2 JUMP JUMPDEST POP POP POP JUMP JUMPDEST JUMPDEST DUP2 DUP2 LT ISZERO PUSH3 0x431 JUMPI PUSH3 0x425 PUSH1 0x0 DUP3 PUSH3 0x3F2 JUMP JUMPDEST PUSH1 0x1 DUP2 ADD SWAP1 POP PUSH3 0x40F JUMP JUMPDEST POP POP JUMP JUMPDEST PUSH1 0x1F DUP3 GT ISZERO PUSH3 0x480 JUMPI PUSH3 0x44A DUP2 PUSH3 0x2F4 JUMP JUMPDEST PUSH3 0x455 DUP5 PUSH3 0x309 JUMP JUMPDEST DUP2 ADD PUSH1 0x20 DUP6 LT ISZERO PUSH3 0x465 JUMPI DUP2 SWAP1 POP JUMPDEST PUSH3 0x47D PUSH3 0x474 DUP6 PUSH3 0x309 JUMP JUMPDEST DUP4 ADD DUP3 PUSH3 0x40E JUMP JUMPDEST POP POP JUMPDEST POP POP POP JUMP JUMPDEST PUSH1 0x0 DUP3 DUP3 SHR SWAP1 POP SWAP3 SWAP2 POP POP JUMP JUMPDEST PUSH1 0x0 PUSH3 0x4A5 PUSH1 0x0 NOT DUP5 PUSH1 0x8 MUL PUSH3 0x485 JUMP JUMPDEST NOT DUP1 DUP4 AND SWAP2 POP POP SWAP3 SWAP2 POP POP JUMP JUMPDEST PUSH1 0x0 PUSH3 0x4C0 DUP4 DUP4 PUSH3 0x492 JUMP JUMPDEST SWAP2 POP DUP3 PUSH1 0x2 MUL DUP3 OR SWAP1 POP SWAP3 SWAP2 POP POP JUMP JUMPDEST PUSH3 0x4DB DUP3 PUSH3 0x285 JUMP JUMPDEST PUSH8 0xFFFFFFFFFFFFFFFF DUP2 GT ISZERO PUSH3 0x4F7 JUMPI PUSH3 0x4F6 PUSH3 0x9C JUMP JUMPDEST JUMPDEST PUSH3 0x503 DUP3 SLOAD PUSH3 0x2BF JUMP JUMPDEST PUSH3 0x510 DUP3 DUP3 DUP6 PUSH3 0x435 JUMP JUMPDEST PUSH1 0x0 PUSH1 0x20 SWAP1 POP PUSH1 0x1F DUP4 GT PUSH1 0x1 DUP2 EQ PUSH3 0x548 JUMPI PUSH1 0x0 DUP5 ISZERO PUSH3 0x533 JUMPI DUP3 DUP8 ADD MLOAD SWAP1 POP JUMPDEST PUSH3 0x53F DUP6 DUP3 PUSH3 0x4B2 JUMP JUMPDEST DUP7 SSTORE POP PUSH3 0x5AF JUMP JUMPDEST PUSH1 0x1F NOT DUP5 AND PUSH3 0x558 DUP7 PUSH3 0x2F4 JUMP JUMPDEST PUSH1 0x0 JUMPDEST DUP3 DUP2 LT ISZERO PUSH3 0x582 JUMPI DUP5 DUP10 ADD MLOAD DUP3 SSTORE PUSH1 0x1 DUP3 ADD SWAP2 POP PUSH1 0x20 DUP6 ADD SWAP5 POP PUSH1 0x20 DUP2 ADD SWAP1 POP PUSH3 0x55B JUMP JUMPDEST DUP7 DUP4 LT ISZERO PUSH3 0x5A2 JUMPI DUP5 DUP10 ADD MLOAD PUSH3 0x59E PUSH1 0x1F DUP10 AND DUP3 PUSH3 0x492 JUMP JUMPDEST DUP4 SSTORE POP JUMPDEST PUSH1 0x1 PUSH1 0x2 DUP9 MUL ADD DUP9 SSTORE POP POP POP JUMPDEST POP POP POP POP POP POP JUMP JUMPDEST PUSH2 0x249A DUP1 PUSH3 0x5C7 PUSH1 0x0 CODECOPY PUSH1 0x0 RETURN INVALID PUSH1 0x80 PUSH1 0x40 MSTORE CALLVALUE DUP1 ISZERO PUSH2 0x10 JUMPI PUSH1 0x0 DUP1 REVERT JUMPDEST POP PUSH1 0x4 CALLDATASIZE LT PUSH2 0xF5 JUMPI PUSH1 0x0 CALLDATALOAD PUSH1 0xE0 SHR DUP1 PUSH4 0x6352211E GT PUSH2 0x97 JUMPI DUP1 PUSH4 0xA22CB465 GT PUSH2 0x66 JUMPI DUP1 PUSH4 0xA22CB465 EQ PUSH2 0x284 JUMPI DUP1 PUSH4 0xB88D4FDE EQ PUSH2 0x2A0 JUMPI DUP1 PUSH4 0xC87B56DD EQ PUSH2 0x2BC JUMPI DUP1 PUSH4 0xE985E9C5 EQ PUSH2 0x2EC JUMPI PUSH2 0xF5 JUMP JUMPDEST DUP1 PUSH4 0x6352211E EQ PUSH2 0x1E8 JUMPI DUP1 PUSH4 0x6FDADDF1 EQ PUSH2 0x218 JUMPI DUP1 PUSH4 0x70A08231 EQ PUSH2 0x236 JUMPI DUP1 PUSH4 0x95D89B41 EQ PUSH2 0x266 JUMPI PUSH2 0xF5 JUMP JUMPDEST DUP1 PUSH4 0x95EA7B3 GT PUSH2 0xD3 JUMPI DUP1 PUSH4 0x95EA7B3 EQ PUSH2 0x178 JUMPI DUP1 PUSH4 0x23B872DD EQ PUSH2 0x194 JUMPI DUP1 PUSH4 0x40C10F19 EQ PUSH2 0x1B0 JUMPI DUP1 PUSH4 0x42842E0E EQ PUSH2 0x1CC JUMPI PUSH2 0xF5 JUMP JUMPDEST DUP1 PUSH4 0x1FFC9A7 EQ PUSH2 0xFA JUMPI DUP1 PUSH4 0x6FDDE03 EQ PUSH2 0x12A JUMPI DUP1 PUSH4 0x81812FC EQ PUSH2 0x148 JUMPI JUMPDEST PUSH1 0x0 DUP1 REVERT JUMPDEST PUSH2 0x114 PUSH1 0x4 DUP1 CALLDATASIZE SUB DUP2 ADD SWAP1 PUSH2 0x10F SWAP2 SWAP1 PUSH2 0x168E JUMP JUMPDEST PUSH2 0x31C JUMP JUMPDEST PUSH1 0x40 MLOAD PUSH2 0x121 SWAP2 SWAP1 PUSH2 0x16D6 JUMP JUMPDEST PUSH1 0x40 MLOAD DUP1 SWAP2 SUB SWAP1 RETURN JUMPDEST PUSH2 0x132 PUSH2 0x456 JUMP JUMPDEST PUSH1 0x40 MLOAD PUSH2 0x13F SWAP2 SWAP1 PUSH2 0x1781 JUMP JUMPDEST PUSH1 0x40 MLOAD DUP1 SWAP2 SUB SWAP1 RETURN JUMPDEST PUSH2 0x162 PUSH1 0x4 DUP1 CALLDATASIZE SUB DUP2 ADD SWAP1 PUSH2 0x15D SWAP2 SWAP1 PUSH2 0x17D9 JUMP JUMPDEST PUSH2 0x4E4 JUMP JUMPDEST PUSH1 0x40 MLOAD PUSH2 0x16F SWAP2 SWAP1 PUSH2 0x1847 JUMP JUMPDEST PUSH1 0x40 MLOAD DUP1 SWAP2 SUB SWAP1 RETURN JUMPDEST PUSH2 0x192 PUSH1 0x4 DUP1 CALLDATASIZE SUB DUP2 ADD SWAP1 PUSH2 0x18D SWAP2 SWAP1 PUSH2 0x188E JUMP JUMPDEST PUSH2 0x5C2 JUMP JUMPDEST STOP JUMPDEST PUSH2 0x1AE PUSH1 0x4 DUP1 CALLDATASIZE SUB DUP2 ADD SWAP1 PUSH2 0x1A9 SWAP2 SWAP1 PUSH2 0x18CE JUMP JUMPDEST PUSH2 0x709 JUMP JUMPDEST STOP JUMPDEST PUSH2 0x1CA PUSH1 0x4 DUP1 CALLDATASIZE SUB DUP2 ADD SWAP1 PUSH2 0x1C5 SWAP2 SWAP1 PUSH2 0x188E JUMP JUMPDEST PUSH2 0x772 JUMP JUMPDEST STOP JUMPDEST PUSH2 0x1E6 PUSH1 0x4 DUP1 CALLDATASIZE SUB DUP2 ADD SWAP1 PUSH2 0x1E1 SWAP2 SWAP1 PUSH2 0x18CE JUMP JUMPDEST PUSH2 0x7D0 JUMP JUMPDEST STOP JUMPDEST PUSH2 0x202 PUSH1 0x4 DUP1 CALLDATASIZE SUB DUP2 ADD SWAP1 PUSH2 0x1FD SWAP2 SWAP1 PUSH2 0x17D9 JUMP JUMPDEST PUSH2 0x7F0 JUMP JUMPDEST PUSH1 0x40 MLOAD PUSH2 0x20F SWAP2 SWAP1 PUSH2 0x1847 JUMP JUMPDEST PUSH1 0x40 MLOAD DUP1 SWAP2 SUB SWAP1 RETURN JUMPDEST PUSH2 0x220 PUSH2 0x89C JUMP JUMPDEST PUSH1 0x40 MLOAD PUSH2 0x22D SWAP2 SWAP1 PUSH2 0x1930 JUMP JUMPDEST PUSH1 0x40 MLOAD DUP1 SWAP2 SUB SWAP1 RETURN JUMPDEST PUSH2 0x250 PUSH1 0x4 DUP1 CALLDATASIZE SUB DUP2 ADD SWAP1 PUSH2 0x24B SWAP2 SWAP1 PUSH2 0x194B JUMP JUMPDEST PUSH2 0x8A2 JUMP JUMPDEST PUSH1 0x40 MLOAD PUSH2 0x25D SWAP2 SWAP1 PUSH2 0x1930 JUMP JUMPDEST PUSH1 0x40 MLOAD DUP1 SWAP2 SUB SWAP1 RETURN JUMPDEST PUSH2 0x26E PUSH2 0x959 JUMP JUMPDEST PUSH1 0x40 MLOAD PUSH2 0x27B SWAP2 SWAP1 PUSH2 0x1781 JUMP JUMPDEST PUSH1 0x40 MLOAD DUP1 SWAP2 SUB SWAP1 RETURN JUMPDEST PUSH2 0x29E PUSH1 0x4 DUP1 CALLDATASIZE SUB DUP2 ADD SWAP1 PUSH2 0x299 SWAP2 SWAP1 PUSH2 0x19A4 JUMP JUMPDEST PUSH2 0x9E7 JUMP JUMPDEST STOP JUMPDEST PUSH2 0x2BA PUSH1 0x4 DUP1 CALLDATASIZE SUB DUP2 ADD SWAP1 PUSH2 0x2B5 SWAP2 SWAP1 PUSH2 0x1B19 JUMP JUMPDEST PUSH2 0xAE4 JUMP JUMPDEST STOP JUMPDEST PUSH2 0x2D6 PUSH1 0x4 DUP1 CALLDATASIZE SUB DUP2 ADD SWAP1 PUSH2 0x2D1 SWAP2 SWAP1 PUSH2 0x17D9 JUMP JUMPDEST PUSH2 0xB4F JUMP JUMPDEST PUSH1 0x40 MLOAD PUSH2 0x2E3 SWAP2 SWAP1 PUSH2 0x1781 JUMP JUMPDEST PUSH1 0x40 MLOAD DUP1 SWAP2 SUB SWAP1 RETURN JUMPDEST PUSH2 0x306 PUSH1 0x4 DUP1 CALLDATASIZE SUB DUP2 ADD SWAP1 PUSH2 0x301 SWAP2 SWAP1 PUSH2 0x1B9C JUMP JUMPDEST PUSH2 0xC50 JUMP JUMPDEST PUSH1 0x40 MLOAD PUSH2 0x313 SWAP2 SWAP1 PUSH2 0x16D6 JUMP JUMPDEST PUSH1 0x40 MLOAD DUP1 SWAP2 SUB SWAP1 RETURN JUMPDEST PUSH1 0x0 PUSH32 0x80AC58CD00000000000000000000000000000000000000000000000000000000 PUSH28 0xFFFFFFFFFFFFFFFFFFFFFFFFFFFFFFFFFFFFFFFFFFFFFFFFFFFFFFFF NOT AND DUP3 PUSH28 0xFFFFFFFFFFFFFFFFFFFFFFFFFFFFFFFFFFFFFFFFFFFFFFFFFFFFFFFF NOT AND EQ DUP1 PUSH2 0x3E7 JUMPI POP PUSH32 0x1FFC9A700000000000000000000000000000000000000000000000000000000 PUSH28 0xFFFFFFFFFFFFFFFFFFFFFFFFFFFFFFFFFFFFFFFFFFFFFFFFFFFFFFFF NOT AND DUP3 PUSH28 0xFFFFFFFFFFFFFFFFFFFFFFFFFFFFFFFFFFFFFFFFFFFFFFFFFFFFFFFF NOT AND EQ JUMPDEST DUP1 PUSH2 0x44F JUMPI POP PUSH32 0x5B5E139F00000000000000000000000000000000000000000000000000000000 PUSH28 0xFFFFFFFFFFFFFFFFFFFFFFFFFFFFFFFFFFFFFFFFFFFFFFFFFFFFFFFF NOT AND DUP3 PUSH28 0xFFFFFFFFFFFFFFFFFFFFFFFFFFFFFFFFFFFFFFFFFFFFFFFFFFFFFFFF NOT AND EQ JUMPDEST SWAP1 POP SWAP2 SWAP1 POP JUMP JUMPDEST PUSH1 0x0 DUP1 SLOAD PUSH2 0x463 SWAP1 PUSH2 0x1C0B JUMP JUMPDEST DUP1 PUSH1 0x1F ADD PUSH1 0x20 DUP1 SWAP2 DIV MUL PUSH1 0x20 ADD PUSH1 0x40 MLOAD SWAP1 DUP2 ADD PUSH1 0x40 MSTORE DUP1 SWAP3 SWAP2 SWAP1 DUP2 DUP2 MSTORE PUSH1 0x20 ADD DUP3 DUP1 SLOAD PUSH2 0x48F SWAP1 PUSH2 0x1C0B JUMP JUMPDEST DUP1 ISZERO PUSH2 0x4DC JUMPI DUP1 PUSH1 0x1F LT PUSH2 0x4B1 JUMPI PUSH2 0x100 DUP1 DUP4 SLOAD DIV MUL DUP4 MSTORE SWAP2 PUSH1 0x20 ADD SWAP2 PUSH2 0x4DC JUMP JUMPDEST DUP3 ADD SWAP2 SWAP1 PUSH1 0x0 MSTORE PUSH1 0x20 PUSH1 0x0 KECCAK256 SWAP1 JUMPDEST DUP2 SLOAD DUP2 MSTORE SWAP1 PUSH1 0x1 ADD SWAP1 PUSH1 0x20 ADD DUP1 DUP4 GT PUSH2 0x4BF JUMPI DUP3 SWAP1 SUB PUSH1 0x1F AND DUP3 ADD SWAP2 JUMPDEST POP POP POP POP POP DUP2 JUMP JUMPDEST PUSH1 0x0 DUP1 PUSH20 0xFFFFFFFFFFFFFFFFFFFFFFFFFFFFFFFFFFFFFFFF AND PUSH1 0x2 PUSH1 0x0 DUP5 DUP2 MSTORE PUSH1 0x20 ADD SWAP1 DUP2 MSTORE PUSH1 0x20 ADD PUSH1 0x0 KECCAK256 PUSH1 0x0 SWAP1 SLOAD SWAP1 PUSH2 0x100 EXP SWAP1 DIV PUSH20 0xFFFFFFFFFFFFFFFFFFFFFFFFFFFFFFFFFFFFFFFF AND PUSH20 0xFFFFFFFFFFFFFFFFFFFFFFFFFFFFFFFFFFFFFFFF AND SUB PUSH2 0x587 JUMPI PUSH1 0x40 MLOAD PUSH32 0x8C379A000000000000000000000000000000000000000000000000000000000 DUP2 MSTORE PUSH1 0x4 ADD PUSH2 0x57E SWAP1 PUSH2 0x1C88 JUMP JUMPDEST PUSH1 0x40 MLOAD DUP1 SWAP2 SUB SWAP1 REVERT JUMPDEST PUSH1 0x4 PUSH1 0x0 DUP4 DUP2 MSTORE PUSH1 0x20 ADD SWAP1 DUP2 MSTORE PUSH1 0x20 ADD PUSH1 0x0 KECCAK256 PUSH1 0x0 SWAP1 SLOAD SWAP1 PUSH2 0x100 EXP SWAP1 DIV PUSH20 0xFFFFFFFFFFFFFFFFFFFFFFFFFFFFFFFFFFFFFFFF AND SWAP1 POP SWAP2 SWAP1 POP JUMP JUMPDEST PUSH1 0x0 PUSH1 0x2 PUSH1 0x0 DUP4 DUP2 MSTORE PUSH1 0x20 ADD SWAP1 DUP2 MSTORE PUSH1 0x20 ADD PUSH1 0x0 KECCAK256 PUSH1 0x0 SWAP1 SLOAD SWAP1 PUSH2 0x100 EXP SWAP1 DIV PUSH20 0xFFFFFFFFFFFFFFFFFFFFFFFFFFFFFFFFFFFFFFFF AND SWAP1 POP CALLER PUSH20 0xFFFFFFFFFFFFFFFFFFFFFFFFFFFFFFFFFFFFFFFF AND DUP2 PUSH20 0xFFFFFFFFFFFFFFFFFFFFFFFFFFFFFFFFFFFFFFFF AND EQ DUP1 PUSH2 0x6BA JUMPI POP PUSH1 0x5 PUSH1 0x0 DUP3 PUSH20 0xFFFFFFFFFFFFFFFFFFFFFFFFFFFFFFFFFFFFFFFF AND PUSH20 0xFFFFFFFFFFFFFFFFFFFFFFFFFFFFFFFFFFFFFFFF AND DUP2 MSTORE PUSH1 0x20 ADD SWAP1 DUP2 MSTORE PUSH1 0x20 ADD PUSH1 0x0 KECCAK256 PUSH1 0x0 CALLER PUSH20 0xFFFFFFFFFFFFFFFFFFFFFFFFFFFFFFFFFFFFFFFF AND PUSH20 0xFFFFFFFFFFFFFFFFFFFFFFFFFFFFFFFFFFFFFFFF AND DUP2 MSTORE PUSH1 0x20 ADD SWAP1 DUP2 MSTORE PUSH1 0x20 ADD PUSH1 0x0 KECCAK256 PUSH1 0x0 SWAP1 SLOAD SWAP1 PUSH2 0x100 EXP SWAP1 DIV PUSH1 0xFF AND JUMPDEST PUSH2 0x6F9 JUMPI PUSH1 0x40 MLOAD PUSH32 0x8C379A000000000000000000000000000000000000000000000000000000000 DUP2 MSTORE PUSH1 0x4 ADD PUSH2 0x6F0 SWAP1 PUSH2 0x1CF4 JUMP JUMPDEST PUSH1 0x40 MLOAD DUP1 SWAP2 SUB SWAP1 REVERT JUMPDEST PUSH2 0x704 DUP2 DUP5 DUP5 PUSH2 0xCE4 JUMP JUMPDEST POP POP POP JUMP JUMPDEST PUSH1 0x0 PUSH2 0x714 DUP3 PUSH2 0x7F0 JUMP JUMPDEST SWAP1 POP PUSH2 0x721 DUP2 CALLER DUP5 PUSH2 0xD96 JUMP JUMPDEST PUSH2 0x760 JUMPI PUSH1 0x40 MLOAD PUSH32 0x8C379A000000000000000000000000000000000000000000000000000000000 DUP2 MSTORE PUSH1 0x4 ADD PUSH2 0x757 SWAP1 PUSH2 0x1D60 JUMP JUMPDEST PUSH1 0x40 MLOAD DUP1 SWAP2 SUB SWAP1 REVERT JUMPDEST PUSH2 0x76C DUP2 DUP6 DUP6 DUP6 PUSH2 0xECA JUMP JUMPDEST POP POP POP POP JUMP JUMPDEST PUSH1 0x0 DUP2 GT DUP1 ISZERO PUSH2 0x783 JUMPI POP PUSH1 0x6 SLOAD DUP2 LT JUMPDEST PUSH2 0x7C2 JUMPI PUSH1 0x40 MLOAD PUSH32 0x8C379A000000000000000000000000000000000000000000000000000000000 DUP2 MSTORE PUSH1 0x4 ADD PUSH2 0x7B9 SWAP1 PUSH2 0x1DCC JUMP JUMPDEST PUSH1 0x40 MLOAD DUP1 SWAP2 SUB SWAP1 REVERT JUMPDEST PUSH2 0x7CC DUP3 DUP3 PUSH2 0x1114 JUMP JUMPDEST POP POP JUMP JUMPDEST PUSH2 0x7EB DUP4 DUP4 DUP4 PUSH1 0x40 MLOAD DUP1 PUSH1 0x20 ADD PUSH1 0x40 MSTORE DUP1 PUSH1 0x0 DUP2 MSTORE POP PUSH2 0xAE4 JUMP JUMPDEST POP POP POP JUMP JUMPDEST PUSH1 0x0 PUSH1 0x2 PUSH1 0x0 DUP4 DUP2 MSTORE PUSH1 0x20 ADD SWAP1 DUP2 MSTORE PUSH1 0x20 ADD PUSH1 0x0 KECCAK256 PUSH1 0x0 SWAP1 SLOAD SWAP1 PUSH2 0x100 EXP SWAP1 DIV PUSH20 0xFFFFFFFFFFFFFFFFFFFFFFFFFFFFFFFFFFFFFFFF AND SWAP1 POP PUSH1 0x0 PUSH20 0xFFFFFFFFFFFFFFFFFFFFFFFFFFFFFFFFFFFFFFFF AND DUP2 PUSH20 0xFFFFFFFFFFFFFFFFFFFFFFFFFFFFFFFFFFFFFFFF AND SUB PUSH2 0x897 JUMPI PUSH1 0x40 MLOAD PUSH32 0x8C379A000000000000000000000000000000000000000000000000000000000 DUP2 MSTORE PUSH1 0x4 ADD PUSH2 0x88E SWAP1 PUSH2 0x1E38 JUMP JUMPDEST PUSH1 0x40 MLOAD DUP1 SWAP2 SUB SWAP1 REVERT JUMPDEST SWAP2 SWAP1 POP JUMP JUMPDEST PUSH1 0x6 SLOAD DUP2 JUMP JUMPDEST PUSH1 0x0 DUP1 PUSH20 0xFFFFFFFFFFFFFFFFFFFFFFFFFFFFFFFFFFFFFFFF AND DUP3 PUSH20 0xFFFFFFFFFFFFFFFFFFFFFFFFFFFFFFFFFFFFFFFF AND SUB PUSH2 0x912 JUMPI PUSH1 0x40 MLOAD PUSH32 0x8C379A000000000000000000000000000000000000000000000000000000000 DUP2 MSTORE PUSH1 0x4 ADD PUSH2 0x909 SWAP1 PUSH2 0x1EA4 JUMP JUMPDEST PUSH1 0x40 MLOAD DUP1 SWAP2 SUB SWAP1 REVERT JUMPDEST PUSH1 0x3 PUSH1 0x0 DUP4 PUSH20 0xFFFFFFFFFFFFFFFFFFFFFFFFFFFFFFFFFFFFFFFF AND PUSH20 0xFFFFFFFFFFFFFFFFFFFFFFFFFFFFFFFFFFFFFFFF AND DUP2 MSTORE PUSH1 0x20 ADD SWAP1 DUP2 MSTORE PUSH1 0x20 ADD PUSH1 0x0 KECCAK256 SLOAD SWAP1 POP SWAP2 SWAP1 POP JUMP JUMPDEST PUSH1 0x1 DUP1 SLOAD PUSH2 0x966 SWAP1 PUSH2 0x1C0B JUMP JUMPDEST DUP1 PUSH1 0x1F ADD PUSH1 0x20 DUP1 SWAP2 DIV MUL PUSH1 0x20 ADD PUSH1 0x40 MLOAD SWAP1 DUP2 ADD PUSH1 0x40 MSTORE DUP1 SWAP3 SWAP2 SWAP1 DUP2 DUP2 MSTORE PUSH1 0x20 ADD DUP3 DUP1 SLOAD PUSH2 0x992 SWAP1 PUSH2 0x1C0B JUMP JUMPDEST DUP1 ISZERO PUSH2 0x9DF JUMPI DUP1 PUSH1 0x1F LT PUSH2 0x9B4 JUMPI PUSH2 0x100 DUP1 DUP4 SLOAD DIV MUL DUP4 MSTORE SWAP2 PUSH1 0x20 ADD SWAP2 PUSH2 0x9DF JUMP JUMPDEST DUP3 ADD SWAP2 SWAP1 PUSH1 0x0 MSTORE PUSH1 0x20 PUSH1 0x0 KECCAK256 SWAP1 JUMPDEST DUP2 SLOAD DUP2 MSTORE SWAP1 PUSH1 0x1 ADD SWAP1 PUSH1 0x20 ADD DUP1 DUP4 GT PUSH2 0x9C2 JUMPI DUP3 SWAP1 SUB PUSH1 0x1F AND DUP3 ADD SWAP2 JUMPDEST POP POP POP POP POP DUP2 JUMP JUMPDEST DUP1 PUSH1 0x5 PUSH1 0x0 CALLER PUSH20 0xFFFFFFFFFFFFFFFFFFFFFFFFFFFFFFFFFFFFFFFF AND PUSH20 0xFFFFFFFFFFFFFFFFFFFFFFFFFFFFFFFFFFFFFFFF AND DUP2 MSTORE PUSH1 0x20 ADD SWAP1 DUP2 MSTORE PUSH1 0x20 ADD PUSH1 0x0 KECCAK256 PUSH1 0x0 DUP5 PUSH20 0xFFFFFFFFFFFFFFFFFFFFFFFFFFFFFFFFFFFFFFFF AND PUSH20 0xFFFFFFFFFFFFFFFFFFFFFFFFFFFFFFFFFFFFFFFF AND DUP2 MSTORE PUSH1 0x20 ADD SWAP1 DUP2 MSTORE PUSH1 0x20 ADD PUSH1 0x0 KECCAK256 PUSH1 0x0 PUSH2 0x100 EXP DUP2 SLOAD DUP2 PUSH1 0xFF MUL NOT AND SWAP1 DUP4 ISZERO ISZERO MUL OR SWAP1 SSTORE POP DUP2 PUSH20 0xFFFFFFFFFFFFFFFFFFFFFFFFFFFFFFFFFFFFFFFF AND CALLER PUSH20 0xFFFFFFFFFFFFFFFFFFFFFFFFFFFFFFFFFFFFFFFF AND PUSH32 0x17307EAB39AB6107E8899845AD3D59BD9653F200F220920489CA2B5937696C31 DUP4 PUSH1 0x40 MLOAD PUSH2 0xAD8 SWAP2 SWAP1 PUSH2 0x16D6 JUMP JUMPDEST PUSH1 0x40 MLOAD DUP1 SWAP2 SUB SWAP1 LOG3 POP POP JUMP JUMPDEST PUSH1 0x0 PUSH2 0xAEF DUP4 PUSH2 0x7F0 JUMP JUMPDEST SWAP1 POP PUSH2 0xAFC DUP2 CALLER DUP6 PUSH2 0xD96 JUMP JUMPDEST PUSH2 0xB3B JUMPI PUSH1 0x40 MLOAD PUSH32 0x8C379A000000000000000000000000000000000000000000000000000000000 DUP2 MSTORE PUSH1 0x4 ADD PUSH2 0xB32 SWAP1 PUSH2 0x1D60 JUMP JUMPDEST PUSH1 0x40 MLOAD DUP1 SWAP2 SUB SWAP1 REVERT JUMPDEST PUSH2 0xB48 DUP2 DUP7 DUP7 DUP7 DUP7 PUSH2 0x132E JUMP JUMPDEST POP POP POP POP POP JUMP JUMPDEST PUSH1 0x60 PUSH1 0x0 PUSH20 0xFFFFFFFFFFFFFFFFFFFFFFFFFFFFFFFFFFFFFFFF AND PUSH1 0x2 PUSH1 0x0 DUP5 DUP2 MSTORE PUSH1 0x20 ADD SWAP1 DUP2 MSTORE PUSH1 0x20 ADD PUSH1 0x0 KECCAK256 PUSH1 0x0 SWAP1 SLOAD SWAP1 PUSH2 0x100 EXP SWAP1 DIV PUSH20 0xFFFFFFFFFFFFFFFFFFFFFFFFFFFFFFFFFFFFFFFF AND PUSH20 0xFFFFFFFFFFFFFFFFFFFFFFFFFFFFFFFFFFFFFFFF AND SUB PUSH2 0xBF3 JUMPI PUSH1 0x40 MLOAD PUSH32 0x8C379A000000000000000000000000000000000000000000000000000000000 DUP2 MSTORE PUSH1 0x4 ADD PUSH2 0xBEA SWAP1 PUSH2 0x1F10 JUMP JUMPDEST PUSH1 0x40 MLOAD DUP1 SWAP2 SUB SWAP1 REVERT JUMPDEST PUSH1 0x0 PUSH2 0xBFD PUSH2 0x138C JUMP JUMPDEST SWAP1 POP PUSH1 0x0 DUP2 MLOAD GT PUSH2 0xC1D JUMPI PUSH1 0x40 MLOAD DUP1 PUSH1 0x20 ADD PUSH1 0x40 MSTORE DUP1 PUSH1 0x0 DUP2 MSTORE POP PUSH2 0xC48 JUMP JUMPDEST DUP1 PUSH2 0xC27 DUP5 PUSH2 0x13AC JUMP JUMPDEST PUSH1 0x40 MLOAD PUSH1 0x20 ADD PUSH2 0xC38 SWAP3 SWAP2 SWAP1 PUSH2 0x1F6C JUMP JUMPDEST PUSH1 0x40 MLOAD PUSH1 0x20 DUP2 DUP4 SUB SUB DUP2 MSTORE SWAP1 PUSH1 0x40 MSTORE JUMPDEST SWAP2 POP POP SWAP2 SWAP1 POP JUMP JUMPDEST PUSH1 0x0 PUSH1 0x5 PUSH1 0x0 DUP5 PUSH20 0xFFFFFFFFFFFFFFFFFFFFFFFFFFFFFFFFFFFFFFFF AND PUSH20 0xFFFFFFFFFFFFFFFFFFFFFFFFFFFFFFFFFFFFFFFF AND DUP2 MSTORE PUSH1 0x20 ADD SWAP1 DUP2 MSTORE PUSH1 0x20 ADD PUSH1 0x0 KECCAK256 PUSH1 0x0 DUP4 PUSH20 0xFFFFFFFFFFFFFFFFFFFFFFFFFFFFFFFFFFFFFFFF AND PUSH20 0xFFFFFFFFFFFFFFFFFFFFFFFFFFFFFFFFFFFFFFFF AND DUP2 MSTORE PUSH1 0x20 ADD SWAP1 DUP2 MSTORE PUSH1 0x20 ADD PUSH1 0x0 KECCAK256 PUSH1 0x0 SWAP1 SLOAD SWAP1 PUSH2 0x100 EXP SWAP1 DIV PUSH1 0xFF AND SWAP1 POP SWAP3 SWAP2 POP POP JUMP JUMPDEST DUP2 PUSH1 0x4 PUSH1 0x0 DUP4 DUP2 MSTORE PUSH1 0x20 ADD SWAP1 DUP2 MSTORE PUSH1 0x20 ADD PUSH1 0x0 KECCAK256 PUSH1 0x0 PUSH2 0x100 EXP DUP2 SLOAD DUP2 PUSH20 0xFFFFFFFFFFFFFFFFFFFFFFFFFFFFFFFFFFFFFFFF MUL NOT AND SWAP1 DUP4 PUSH20 0xFFFFFFFFFFFFFFFFFFFFFFFFFFFFFFFFFFFFFFFF AND MUL OR SWAP1 SSTORE POP DUP1 DUP3 PUSH20 0xFFFFFFFFFFFFFFFFFFFFFFFFFFFFFFFFFFFFFFFF AND DUP5 PUSH20 0xFFFFFFFFFFFFFFFFFFFFFFFFFFFFFFFFFFFFFFFF AND PUSH32 0x8C5BE1E5EBEC7D5BD14F71427D1E84F3DD0314C0F7B2291E5B200AC8C7C3B925 PUSH1 0x40 MLOAD PUSH1 0x40 MLOAD DUP1 SWAP2 SUB SWAP1 LOG4 POP POP POP JUMP JUMPDEST PUSH1 0x0 DUP4 PUSH20 0xFFFFFFFFFFFFFFFFFFFFFFFFFFFFFFFFFFFFFFFF AND DUP4 PUSH20 0xFFFFFFFFFFFFFFFFFFFFFFFFFFFFFFFFFFFFFFFF AND EQ DUP1 PUSH2 0xE30 JUMPI POP DUP3 PUSH20 0xFFFFFFFFFFFFFFFFFFFFFFFFFFFFFFFFFFFFFFFF AND PUSH1 0x4 PUSH1 0x0 DUP5 DUP2 MSTORE PUSH1 0x20 ADD SWAP1 DUP2 MSTORE PUSH1 0x20 ADD PUSH1 0x0 KECCAK256 PUSH1 0x0 SWAP1 SLOAD SWAP1 PUSH2 0x100 EXP SWAP1 DIV PUSH20 0xFFFFFFFFFFFFFFFFFFFFFFFFFFFFFFFFFFFFFFFF AND PUSH20 0xFFFFFFFFFFFFFFFFFFFFFFFFFFFFFFFFFFFFFFFF AND EQ JUMPDEST DUP1 PUSH2 0xEC1 JUMPI POP PUSH1 0x5 PUSH1 0x0 DUP6 PUSH20 0xFFFFFFFFFFFFFFFFFFFFFFFFFFFFFFFFFFFFFFFF AND PUSH20 0xFFFFFFFFFFFFFFFFFFFFFFFFFFFFFFFFFFFFFFFF AND DUP2 MSTORE PUSH1 0x20 ADD SWAP1 DUP2 MSTORE PUSH1 0x20 ADD PUSH1 0x0 KECCAK256 PUSH1 0x0 DUP5 PUSH20 0xFFFFFFFFFFFFFFFFFFFFFFFFFFFFFFFFFFFFFFFF AND PUSH20 0xFFFFFFFFFFFFFFFFFFFFFFFFFFFFFFFFFFFFFFFF AND DUP2 MSTORE PUSH1 0x20 ADD SWAP1 DUP2 MSTORE PUSH1 0x20 ADD PUSH1 0x0 KECCAK256 PUSH1 0x0 SWAP1 SLOAD SWAP1 PUSH2 0x100 EXP SWAP1 DIV PUSH1 0xFF AND JUMPDEST SWAP1 POP SWAP4 SWAP3 POP POP POP JUMP JUMPDEST DUP4 PUSH20 0xFFFFFFFFFFFFFFFFFFFFFFFFFFFFFFFFFFFFFFFF AND DUP4 PUSH20 0xFFFFFFFFFFFFFFFFFFFFFFFFFFFFFFFFFFFFFFFF AND EQ PUSH2 0xF38 JUMPI PUSH1 0x40 MLOAD PUSH32 0x8C379A000000000000000000000000000000000000000000000000000000000 DUP2 MSTORE PUSH1 0x4 ADD PUSH2 0xF2F SWAP1 PUSH2 0x1FDC JUMP JUMPDEST PUSH1 0x40 MLOAD DUP1 SWAP2 SUB SWAP1 REVERT JUMPDEST PUSH1 0x0 PUSH20 0xFFFFFFFFFFFFFFFFFFFFFFFFFFFFFFFFFFFFFFFF AND DUP3 PUSH20 0xFFFFFFFFFFFFFFFFFFFFFFFFFFFFFFFFFFFFFFFF AND SUB PUSH2 0xFA7 JUMPI PUSH1 0x40 MLOAD PUSH32 0x8C379A000000000000000000000000000000000000000000000000000000000 DUP2 MSTORE PUSH1 0x4 ADD PUSH2 0xF9E SWAP1 PUSH2 0x2048 JUMP JUMPDEST PUSH1 0x40 MLOAD DUP1 SWAP2 SUB SWAP1 REVERT JUMPDEST PUSH2 0xFB3 DUP5 PUSH1 0x0 DUP4 PUSH2 0xCE4 JUMP JUMPDEST PUSH1 0x1 PUSH1 0x3 PUSH1 0x0 DUP6 PUSH20 0xFFFFFFFFFFFFFFFFFFFFFFFFFFFFFFFFFFFFFFFF AND PUSH20 0xFFFFFFFFFFFFFFFFFFFFFFFFFFFFFFFFFFFFFFFF AND DUP2 MSTORE PUSH1 0x20 ADD SWAP1 DUP2 MSTORE PUSH1 0x20 ADD PUSH1 0x0 KECCAK256 PUSH1 0x0 DUP3 DUP3 SLOAD PUSH2 0x1003 SWAP2 SWAP1 PUSH2 0x2097 JUMP JUMPDEST SWAP3 POP POP DUP2 SWAP1 SSTORE POP PUSH1 0x1 PUSH1 0x3 PUSH1 0x0 DUP5 PUSH20 0xFFFFFFFFFFFFFFFFFFFFFFFFFFFFFFFFFFFFFFFF AND PUSH20 0xFFFFFFFFFFFFFFFFFFFFFFFFFFFFFFFFFFFFFFFF AND DUP2 MSTORE PUSH1 0x20 ADD SWAP1 DUP2 MSTORE PUSH1 0x20 ADD PUSH1 0x0 KECCAK256 PUSH1 0x0 DUP3 DUP3 SLOAD PUSH2 0x105A SWAP2 SWAP1 PUSH2 0x20CB JUMP JUMPDEST SWAP3 POP POP DUP2 SWAP1 SSTORE POP DUP2 PUSH1 0x2 PUSH1 0x0 DUP4 DUP2 MSTORE PUSH1 0x20 ADD SWAP1 DUP2 MSTORE PUSH1 0x20 ADD PUSH1 0x0 KECCAK256 PUSH1 0x0 PUSH2 0x100 EXP DUP2 SLOAD DUP2 PUSH20 0xFFFFFFFFFFFFFFFFFFFFFFFFFFFFFFFFFFFFFFFF MUL NOT AND SWAP1 DUP4 PUSH20 0xFFFFFFFFFFFFFFFFFFFFFFFFFFFFFFFFFFFFFFFF AND MUL OR SWAP1 SSTORE POP DUP1 DUP3 PUSH20 0xFFFFFFFFFFFFFFFFFFFFFFFFFFFFFFFFFFFFFFFF AND DUP5 PUSH20 0xFFFFFFFFFFFFFFFFFFFFFFFFFFFFFFFFFFFFFFFF AND PUSH32 0xDDF252AD1BE2C89B69C2B068FC378DAA952BA7F163C4A11628F55A4DF523B3EF PUSH1 0x40 MLOAD PUSH1 0x40 MLOAD DUP1 SWAP2 SUB SWAP1 LOG4 POP POP POP POP JUMP JUMPDEST PUSH1 0x0 PUSH20 0xFFFFFFFFFFFFFFFFFFFFFFFFFFFFFFFFFFFFFFFF AND DUP3 PUSH20 0xFFFFFFFFFFFFFFFFFFFFFFFFFFFFFFFFFFFFFFFF AND SUB PUSH2 0x1183 JUMPI PUSH1 0x40 MLOAD PUSH32 0x8C379A000000000000000000000000000000000000000000000000000000000 DUP2 MSTORE PUSH1 0x4 ADD PUSH2 0x117A SWAP1 PUSH2 0x214B JUMP JUMPDEST PUSH1 0x40 MLOAD DUP1 SWAP2 SUB SWAP1 REVERT JUMPDEST PUSH1 0x0 PUSH20 0xFFFFFFFFFFFFFFFFFFFFFFFFFFFFFFFFFFFFFFFF AND PUSH1 0x2 PUSH1 0x0 DUP4 DUP2 MSTORE PUSH1 0x20 ADD SWAP1 DUP2 MSTORE PUSH1 0x20 ADD PUSH1 0x0 KECCAK256 PUSH1 0x0 SWAP1 SLOAD SWAP1 PUSH2 0x100 EXP SWAP1 DIV PUSH20 0xFFFFFFFFFFFFFFFFFFFFFFFFFFFFFFFFFFFFFFFF AND PUSH20 0xFFFFFFFFFFFFFFFFFFFFFFFFFFFFFFFFFFFFFFFF AND EQ PUSH2 0x1225 JUMPI PUSH1 0x40 MLOAD PUSH32 0x8C379A000000000000000000000000000000000000000000000000000000000 DUP2 MSTORE PUSH1 0x4 ADD PUSH2 0x121C SWAP1 PUSH2 0x21B7 JUMP JUMPDEST PUSH1 0x40 MLOAD DUP1 SWAP2 SUB SWAP1 REVERT JUMPDEST PUSH1 0x1 PUSH1 0x3 PUSH1 0x0 DUP5 PUSH20 0xFFFFFFFFFFFFFFFFFFFFFFFFFFFFFFFFFFFFFFFF AND PUSH20 0xFFFFFFFFFFFFFFFFFFFFFFFFFFFFFFFFFFFFFFFF AND DUP2 MSTORE PUSH1 0x20 ADD SWAP1 DUP2 MSTORE PUSH1 0x20 ADD PUSH1 0x0 KECCAK256 PUSH1 0x0 DUP3 DUP3 SLOAD PUSH2 0x1275 SWAP2 SWAP1 PUSH2 0x20CB JUMP JUMPDEST SWAP3 POP POP DUP2 SWAP1 SSTORE POP DUP2 PUSH1 0x2 PUSH1 0x0 DUP4 DUP2 MSTORE PUSH1 0x20 ADD SWAP1 DUP2 MSTORE PUSH1 0x20 ADD PUSH1 0x0 KECCAK256 PUSH1 0x0 PUSH2 0x100 EXP DUP2 SLOAD DUP2 PUSH20 0xFFFFFFFFFFFFFFFFFFFFFFFFFFFFFFFFFFFFFFFF MUL NOT AND SWAP1 DUP4 PUSH20 0xFFFFFFFFFFFFFFFFFFFFFFFFFFFFFFFFFFFFFFFF AND MUL OR SWAP1 SSTORE POP DUP1 DUP3 PUSH20 0xFFFFFFFFFFFFFFFFFFFFFFFFFFFFFFFFFFFFFFFF AND PUSH1 0x0 PUSH20 0xFFFFFFFFFFFFFFFFFFFFFFFFFFFFFFFFFFFFFFFF AND PUSH32 0xDDF252AD1BE2C89B69C2B068FC378DAA952BA7F163C4A11628F55A4DF523B3EF PUSH1 0x40 MLOAD PUSH1 0x40 MLOAD DUP1 SWAP2 SUB SWAP1 LOG4 POP POP JUMP JUMPDEST PUSH2 0x133A DUP6 DUP6 DUP6 DUP6 PUSH2 0xECA JUMP JUMPDEST PUSH2 0x1346 DUP5 DUP5 DUP5 DUP5 PUSH2 0x150C JUMP JUMPDEST PUSH2 0x1385 JUMPI PUSH1 0x40 MLOAD PUSH32 0x8C379A000000000000000000000000000000000000000000000000000000000 DUP2 MSTORE PUSH1 0x4 ADD PUSH2 0x137C SWAP1 PUSH2 0x2223 JUMP JUMPDEST PUSH1 0x40 MLOAD DUP1 SWAP2 SUB SWAP1 REVERT JUMPDEST POP POP POP POP POP JUMP JUMPDEST PUSH1 0x60 PUSH1 0x40 MLOAD DUP1 PUSH1 0x60 ADD PUSH1 0x40 MSTORE DUP1 PUSH1 0x36 DUP2 MSTORE PUSH1 0x20 ADD PUSH2 0x242F PUSH1 0x36 SWAP2 CODECOPY SWAP1 POP SWAP1 JUMP JUMPDEST PUSH1 0x60 PUSH1 0x0 DUP3 SUB PUSH2 0x13F3 JUMPI PUSH1 0x40 MLOAD DUP1 PUSH1 0x40 ADD PUSH1 0x40 MSTORE DUP1 PUSH1 0x1 DUP2 MSTORE PUSH1 0x20 ADD PUSH32 0x3000000000000000000000000000000000000000000000000000000000000000 DUP2 MSTORE POP SWAP1 POP PUSH2 0x1507 JUMP JUMPDEST PUSH1 0x0 DUP3 SWAP1 POP PUSH1 0x0 JUMPDEST PUSH1 0x0 DUP3 EQ PUSH2 0x1425 JUMPI DUP1 DUP1 PUSH2 0x140E SWAP1 PUSH2 0x2243 JUMP JUMPDEST SWAP2 POP POP PUSH1 0xA DUP3 PUSH2 0x141E SWAP2 SWAP1 PUSH2 0x22BA JUMP JUMPDEST SWAP2 POP PUSH2 0x13FB JUMP JUMPDEST PUSH1 0x0 DUP2 PUSH8 0xFFFFFFFFFFFFFFFF DUP2 GT ISZERO PUSH2 0x1441 JUMPI PUSH2 0x1440 PUSH2 0x19EE JUMP JUMPDEST JUMPDEST PUSH1 0x40 MLOAD SWAP1 DUP1 DUP3 MSTORE DUP1 PUSH1 0x1F ADD PUSH1 0x1F NOT AND PUSH1 0x20 ADD DUP3 ADD PUSH1 0x40 MSTORE DUP1 ISZERO PUSH2 0x1473 JUMPI DUP2 PUSH1 0x20 ADD PUSH1 0x1 DUP3 MUL DUP1 CALLDATASIZE DUP4 CALLDATACOPY DUP1 DUP3 ADD SWAP2 POP POP SWAP1 POP JUMPDEST POP SWAP1 POP JUMPDEST PUSH1 0x0 DUP6 EQ PUSH2 0x1500 JUMPI PUSH1 0x1 DUP3 PUSH2 0x148C SWAP2 SWAP1 PUSH2 0x2097 JUMP JUMPDEST SWAP2 POP PUSH1 0xA DUP6 PUSH2 0x149B SWAP2 SWAP1 PUSH2 0x22EB JUMP JUMPDEST PUSH1 0x30 PUSH2 0x14A7 SWAP2 SWAP1 PUSH2 0x20CB JUMP JUMPDEST PUSH1 0xF8 SHL DUP2 DUP4 DUP2 MLOAD DUP2 LT PUSH2 0x14BD JUMPI PUSH2 0x14BC PUSH2 0x231C JUMP JUMPDEST JUMPDEST PUSH1 0x20 ADD ADD SWAP1 PUSH31 0xFFFFFFFFFFFFFFFFFFFFFFFFFFFFFFFFFFFFFFFFFFFFFFFFFFFFFFFFFFFFFF NOT AND SWAP1 DUP2 PUSH1 0x0 BYTE SWAP1 MSTORE8 POP PUSH1 0xA DUP6 PUSH2 0x14F9 SWAP2 SWAP1 PUSH2 0x22BA JUMP JUMPDEST SWAP5 POP PUSH2 0x1477 JUMP JUMPDEST DUP1 SWAP4 POP POP POP POP JUMPDEST SWAP2 SWAP1 POP JUMP JUMPDEST PUSH1 0x0 PUSH2 0x152D DUP5 PUSH20 0xFFFFFFFFFFFFFFFFFFFFFFFFFFFFFFFFFFFFFFFF AND PUSH2 0x160F JUMP JUMPDEST ISZERO PUSH2 0x1602 JUMPI PUSH4 0x150B7A02 PUSH1 0xE0 SHL PUSH28 0xFFFFFFFFFFFFFFFFFFFFFFFFFFFFFFFFFFFFFFFFFFFFFFFFFFFFFFFF NOT AND DUP5 PUSH20 0xFFFFFFFFFFFFFFFFFFFFFFFFFFFFFFFFFFFFFFFF AND PUSH4 0x150B7A02 CALLER DUP9 DUP8 DUP8 PUSH1 0x40 MLOAD DUP6 PUSH4 0xFFFFFFFF AND PUSH1 0xE0 SHL DUP2 MSTORE PUSH1 0x4 ADD PUSH2 0x1598 SWAP5 SWAP4 SWAP3 SWAP2 SWAP1 PUSH2 0x23A0 JUMP JUMPDEST PUSH1 0x20 PUSH1 0x40 MLOAD DUP1 DUP4 SUB DUP2 PUSH1 0x0 DUP8 GAS CALL ISZERO DUP1 ISZERO PUSH2 0x15B7 JUMPI RETURNDATASIZE PUSH1 0x0 DUP1 RETURNDATACOPY RETURNDATASIZE PUSH1 0x0 REVERT JUMPDEST POP POP POP POP PUSH1 0x40 MLOAD RETURNDATASIZE PUSH1 0x1F NOT PUSH1 0x1F DUP3 ADD AND DUP3 ADD DUP1 PUSH1 0x40 MSTORE POP DUP2 ADD SWAP1 PUSH2 0x15DB SWAP2 SWAP1 PUSH2 0x2401 JUMP JUMPDEST PUSH28 0xFFFFFFFFFFFFFFFFFFFFFFFFFFFFFFFFFFFFFFFFFFFFFFFFFFFFFFFF NOT AND EQ SWAP1 POP PUSH2 0x1607 JUMP JUMPDEST PUSH1 0x1 SWAP1 POP JUMPDEST SWAP5 SWAP4 POP POP POP POP JUMP JUMPDEST PUSH1 0x0 DUP1 DUP3 EXTCODESIZE SWAP1 POP PUSH1 0x0 DUP2 GT SWAP2 POP POP SWAP2 SWAP1 POP JUMP JUMPDEST PUSH1 0x0 PUSH1 0x40 MLOAD SWAP1 POP SWAP1 JUMP JUMPDEST PUSH1 0x0 DUP1 REVERT JUMPDEST PUSH1 0x0 DUP1 REVERT JUMPDEST PUSH1 0x0 PUSH32 0xFFFFFFFF00000000000000000000000000000000000000000000000000000000 DUP3 AND SWAP1 POP SWAP2 SWAP1 POP JUMP JUMPDEST PUSH2 0x166B DUP2 PUSH2 0x1636 JUMP JUMPDEST DUP2 EQ PUSH2 0x1676 JUMPI PUSH1 0x0 DUP1 REVERT JUMPDEST POP JUMP JUMPDEST PUSH1 0x0 DUP2 CALLDATALOAD SWAP1 POP PUSH2 0x1688 DUP2 PUSH2 0x1662 JUMP JUMPDEST SWAP3 SWAP2 POP POP JUMP JUMPDEST PUSH1 0x0 PUSH1 0x20 DUP3 DUP5 SUB SLT ISZERO PUSH2 0x16A4 JUMPI PUSH2 0x16A3 PUSH2 0x162C JUMP JUMPDEST JUMPDEST PUSH1 0x0 PUSH2 0x16B2 DUP5 DUP3 DUP6 ADD PUSH2 0x1679 JUMP JUMPDEST SWAP2 POP POP SWAP3 SWAP2 POP POP JUMP JUMPDEST PUSH1 0x0 DUP2 ISZERO ISZERO SWAP1 POP SWAP2 SWAP1 POP JUMP JUMPDEST PUSH2 0x16D0 DUP2 PUSH2 0x16BB JUMP JUMPDEST DUP3 MSTORE POP POP JUMP JUMPDEST PUSH1 0x0 PUSH1 0x20 DUP3 ADD SWAP1 POP PUSH2 0x16EB PUSH1 0x0 DUP4 ADD DUP5 PUSH2 0x16C7 JUMP JUMPDEST SWAP3 SWAP2 POP POP JUMP JUMPDEST PUSH1 0x0 DUP2 MLOAD SWAP1 POP SWAP2 SWAP1 POP JUMP JUMPDEST PUSH1 0x0 DUP3 DUP3 MSTORE PUSH1 0x20 DUP3 ADD SWAP1 POP SWAP3 SWAP2 POP POP JUMP JUMPDEST PUSH1 0x0 JUMPDEST DUP4 DUP2 LT ISZERO PUSH2 0x172B JUMPI DUP1 DUP3 ADD MLOAD DUP2 DUP5 ADD MSTORE PUSH1 0x20 DUP2 ADD SWAP1 POP PUSH2 0x1710 JUMP JUMPDEST PUSH1 0x0 DUP5 DUP5 ADD MSTORE POP POP POP POP JUMP JUMPDEST PUSH1 0x0 PUSH1 0x1F NOT PUSH1 0x1F DUP4 ADD AND SWAP1 POP SWAP2 SWAP1 POP JUMP JUMPDEST PUSH1 0x0 PUSH2 0x1753 DUP3 PUSH2 0x16F1 JUMP JUMPDEST PUSH2 0x175D DUP2 DUP6 PUSH2 0x16FC JUMP JUMPDEST SWAP4 POP PUSH2 0x176D DUP2 DUP6 PUSH1 0x20 DUP7 ADD PUSH2 0x170D JUMP JUMPDEST PUSH2 0x1776 DUP2 PUSH2 0x1737 JUMP JUMPDEST DUP5 ADD SWAP2 POP POP SWAP3 SWAP2 POP POP JUMP JUMPDEST PUSH1 0x0 PUSH1 0x20 DUP3 ADD SWAP1 POP DUP2 DUP2 SUB PUSH1 0x0 DUP4 ADD MSTORE PUSH2 0x179B DUP2 DUP5 PUSH2 0x1748 JUMP JUMPDEST SWAP1 POP SWAP3 SWAP2 POP POP JUMP JUMPDEST PUSH1 0x0 DUP2 SWAP1 POP SWAP2 SWAP1 POP JUMP JUMPDEST PUSH2 0x17B6 DUP2 PUSH2 0x17A3 JUMP JUMPDEST DUP2 EQ PUSH2 0x17C1 JUMPI PUSH1 0x0 DUP1 REVERT JUMPDEST POP JUMP JUMPDEST PUSH1 0x0 DUP2 CALLDATALOAD SWAP1 POP PUSH2 0x17D3 DUP2 PUSH2 0x17AD JUMP JUMPDEST SWAP3 SWAP2 POP POP JUMP JUMPDEST PUSH1 0x0 PUSH1 0x20 DUP3 DUP5 SUB SLT ISZERO PUSH2 0x17EF JUMPI PUSH2 0x17EE PUSH2 0x162C JUMP JUMPDEST JUMPDEST PUSH1 0x0 PUSH2 0x17FD DUP5 DUP3 DUP6 ADD PUSH2 0x17C4 JUMP JUMPDEST SWAP2 POP POP SWAP3 SWAP2 POP POP JUMP JUMPDEST PUSH1 0x0 PUSH20 0xFFFFFFFFFFFFFFFFFFFFFFFFFFFFFFFFFFFFFFFF DUP3 AND SWAP1 POP SWAP2 SWAP1 POP JUMP JUMPDEST PUSH1 0x0 PUSH2 0x1831 DUP3 PUSH2 0x1806 JUMP JUMPDEST SWAP1 POP SWAP2 SWAP1 POP JUMP JUMPDEST PUSH2 0x1841 DUP2 PUSH2 0x1826 JUMP JUMPDEST DUP3 MSTORE POP POP JUMP JUMPDEST PUSH1 0x0 PUSH1 0x20 DUP3 ADD SWAP1 POP PUSH2 0x185C PUSH1 0x0 DUP4 ADD DUP5 PUSH2 0x1838 JUMP JUMPDEST SWAP3 SWAP2 POP POP JUMP JUMPDEST PUSH2 0x186B DUP2 PUSH2 0x1826 JUMP JUMPDEST DUP2 EQ PUSH2 0x1876 JUMPI PUSH1 0x0 DUP1 REVERT JUMPDEST POP JUMP JUMPDEST PUSH1 0x0 DUP2 CALLDATALOAD SWAP1 POP PUSH2 0x1888 DUP2 PUSH2 0x1862 JUMP JUMPDEST SWAP3 SWAP2 POP POP JUMP JUMPDEST PUSH1 0x0 DUP1 PUSH1 0x40 DUP4 DUP6 SUB SLT ISZERO PUSH2 0x18A5 JUMPI PUSH2 0x18A4 PUSH2 0x162C JUMP JUMPDEST JUMPDEST PUSH1 0x0 PUSH2 0x18B3 DUP6 DUP3 DUP7 ADD PUSH2 0x1879 JUMP JUMPDEST SWAP3 POP POP PUSH1 0x20 PUSH2 0x18C4 DUP6 DUP3 DUP7 ADD PUSH2 0x17C4 JUMP JUMPDEST SWAP2 POP POP SWAP3 POP SWAP3 SWAP1 POP JUMP JUMPDEST PUSH1 0x0 DUP1 PUSH1 0x0 PUSH1 0x60 DUP5 DUP7 SUB SLT ISZERO PUSH2 0x18E7 JUMPI PUSH2 0x18E6 PUSH2 0x162C JUMP JUMPDEST JUMPDEST PUSH1 0x0 PUSH2 0x18F5 DUP7 DUP3 DUP8 ADD PUSH2 0x1879 JUMP JUMPDEST SWAP4 POP POP PUSH1 0x20 PUSH2 0x1906 DUP7 DUP3 DUP8 ADD PUSH2 0x1879 JUMP JUMPDEST SWAP3 POP POP PUSH1 0x40 PUSH2 0x1917 DUP7 DUP3 DUP8 ADD PUSH2 0x17C4 JUMP JUMPDEST SWAP2 POP POP SWAP3 POP SWAP3 POP SWAP3 JUMP JUMPDEST PUSH2 0x192A DUP2 PUSH2 0x17A3 JUMP JUMPDEST DUP3 MSTORE POP POP JUMP JUMPDEST PUSH1 0x0 PUSH1 0x20 DUP3 ADD SWAP1 POP PUSH2 0x1945 PUSH1 0x0 DUP4 ADD DUP5 PUSH2 0x1921 JUMP JUMPDEST SWAP3 SWAP2 POP POP JUMP JUMPDEST PUSH1 0x0 PUSH1 0x20 DUP3 DUP5 SUB SLT ISZERO PUSH2 0x1961 JUMPI PUSH2 0x1960 PUSH2 0x162C JUMP JUMPDEST JUMPDEST PUSH1 0x0 PUSH2 0x196F DUP5 DUP3 DUP6 ADD PUSH2 0x1879 JUMP JUMPDEST SWAP2 POP POP SWAP3 SWAP2 POP POP JUMP JUMPDEST PUSH2 0x1981 DUP2 PUSH2 0x16BB JUMP JUMPDEST DUP2 EQ PUSH2 0x198C JUMPI PUSH1 0x0 DUP1 REVERT JUMPDEST POP JUMP JUMPDEST PUSH1 0x0 DUP2 CALLDATALOAD SWAP1 POP PUSH2 0x199E DUP2 PUSH2 0x1978 JUMP JUMPDEST SWAP3 SWAP2 POP POP JUMP JUMPDEST PUSH1 0x0 DUP1 PUSH1 0x40 DUP4 DUP6 SUB SLT ISZERO PUSH2 0x19BB JUMPI PUSH2 0x19BA PUSH2 0x162C JUMP JUMPDEST JUMPDEST PUSH1 0x0 PUSH2 0x19C9 DUP6 DUP3 DUP7 ADD PUSH2 0x1879 JUMP JUMPDEST SWAP3 POP POP PUSH1 0x20 PUSH2 0x19DA DUP6 DUP3 DUP7 ADD PUSH2 0x198F JUMP JUMPDEST SWAP2 POP POP SWAP3 POP SWAP3 SWAP1 POP JUMP JUMPDEST PUSH1 0x0 DUP1 REVERT JUMPDEST PUSH1 0x0 DUP1 REVERT JUMPDEST PUSH32 0x4E487B7100000000000000000000000000000000000000000000000000000000 PUSH1 0x0 MSTORE PUSH1 0x41 PUSH1 0x4 MSTORE PUSH1 0x24 PUSH1 0x0 REVERT JUMPDEST PUSH2 0x1A26 DUP3 PUSH2 0x1737 JUMP JUMPDEST DUP2 ADD DUP2 DUP2 LT PUSH8 0xFFFFFFFFFFFFFFFF DUP3 GT OR ISZERO PUSH2 0x1A45 JUMPI PUSH2 0x1A44 PUSH2 0x19EE JUMP JUMPDEST JUMPDEST DUP1 PUSH1 0x40 MSTORE POP POP POP JUMP JUMPDEST PUSH1 0x0 PUSH2 0x1A58 PUSH2 0x1622 JUMP JUMPDEST SWAP1 POP PUSH2 0x1A64 DUP3 DUP3 PUSH2 0x1A1D JUMP JUMPDEST SWAP2 SWAP1 POP JUMP JUMPDEST PUSH1 0x0 PUSH8 0xFFFFFFFFFFFFFFFF DUP3 GT ISZERO PUSH2 0x1A84 JUMPI PUSH2 0x1A83 PUSH2 0x19EE JUMP JUMPDEST JUMPDEST PUSH2 0x1A8D DUP3 PUSH2 0x1737 JUMP JUMPDEST SWAP1 POP PUSH1 0x20 DUP2 ADD SWAP1 POP SWAP2 SWAP1 POP JUMP JUMPDEST DUP3 DUP2 DUP4 CALLDATACOPY PUSH1 0x0 DUP4 DUP4 ADD MSTORE POP POP POP JUMP JUMPDEST PUSH1 0x0 PUSH2 0x1ABC PUSH2 0x1AB7 DUP5 PUSH2 0x1A69 JUMP JUMPDEST PUSH2 0x1A4E JUMP JUMPDEST SWAP1 POP DUP3 DUP2 MSTORE PUSH1 0x20 DUP2 ADD DUP5 DUP5 DUP5 ADD GT ISZERO PUSH2 0x1AD8 JUMPI PUSH2 0x1AD7 PUSH2 0x19E9 JUMP JUMPDEST JUMPDEST PUSH2 0x1AE3 DUP5 DUP3 DUP6 PUSH2 0x1A9A JUMP JUMPDEST POP SWAP4 SWAP3 POP POP POP JUMP JUMPDEST PUSH1 0x0 DUP3 PUSH1 0x1F DUP4 ADD SLT PUSH2 0x1B00 JUMPI PUSH2 0x1AFF PUSH2 0x19E4 JUMP JUMPDEST JUMPDEST DUP2 CALLDATALOAD PUSH2 0x1B10 DUP5 DUP3 PUSH1 0x20 DUP7 ADD PUSH2 0x1AA9 JUMP JUMPDEST SWAP2 POP POP SWAP3 SWAP2 POP POP JUMP JUMPDEST PUSH1 0x0 DUP1 PUSH1 0x0 DUP1 PUSH1 0x80 DUP6 DUP8 SUB SLT ISZERO PUSH2 0x1B33 JUMPI PUSH2 0x1B32 PUSH2 0x162C JUMP JUMPDEST JUMPDEST PUSH1 0x0 PUSH2 0x1B41 DUP8 DUP3 DUP9 ADD PUSH2 0x1879 JUMP JUMPDEST SWAP5 POP POP PUSH1 0x20 PUSH2 0x1B52 DUP8 DUP3 DUP9 ADD PUSH2 0x1879 JUMP JUMPDEST SWAP4 POP POP PUSH1 0x40 PUSH2 0x1B63 DUP8 DUP3 DUP9 ADD PUSH2 0x17C4 JUMP JUMPDEST SWAP3 POP POP PUSH1 0x60 DUP6 ADD CALLDATALOAD PUSH8 0xFFFFFFFFFFFFFFFF DUP2 GT ISZERO PUSH2 0x1B84 JUMPI PUSH2 0x1B83 PUSH2 0x1631 JUMP JUMPDEST JUMPDEST PUSH2 0x1B90 DUP8 DUP3 DUP9 ADD PUSH2 0x1AEB JUMP JUMPDEST SWAP2 POP POP SWAP3 SWAP6 SWAP2 SWAP5 POP SWAP3 POP JUMP JUMPDEST PUSH1 0x0 DUP1 PUSH1 0x40 DUP4 DUP6 SUB SLT ISZERO PUSH2 0x1BB3 JUMPI PUSH2 0x1BB2 PUSH2 0x162C JUMP JUMPDEST JUMPDEST PUSH1 0x0 PUSH2 0x1BC1 DUP6 DUP3 DUP7 ADD PUSH2 0x1879 JUMP JUMPDEST SWAP3 POP POP PUSH1 0x20 PUSH2 0x1BD2 DUP6 DUP3 DUP7 ADD PUSH2 0x1879 JUMP JUMPDEST SWAP2 POP POP SWAP3 POP SWAP3 SWAP1 POP JUMP JUMPDEST PUSH32 0x4E487B7100000000000000000000000000000000000000000000000000000000 PUSH1 0x0 MSTORE PUSH1 0x22 PUSH1 0x4 MSTORE PUSH1 0x24 PUSH1 0x0 REVERT JUMPDEST PUSH1 0x0 PUSH1 0x2 DUP3 DIV SWAP1 POP PUSH1 0x1 DUP3 AND DUP1 PUSH2 0x1C23 JUMPI PUSH1 0x7F DUP3 AND SWAP2 POP JUMPDEST PUSH1 0x20 DUP3 LT DUP2 SUB PUSH2 0x1C36 JUMPI PUSH2 0x1C35 PUSH2 0x1BDC JUMP JUMPDEST JUMPDEST POP SWAP2 SWAP1 POP JUMP JUMPDEST PUSH32 0x746F6B656E206E6F742076616C69640000000000000000000000000000000000 PUSH1 0x0 DUP3 ADD MSTORE POP JUMP JUMPDEST PUSH1 0x0 PUSH2 0x1C72 PUSH1 0xF DUP4 PUSH2 0x16FC JUMP JUMPDEST SWAP2 POP PUSH2 0x1C7D DUP3 PUSH2 0x1C3C JUMP JUMPDEST PUSH1 0x20 DUP3 ADD SWAP1 POP SWAP2 SWAP1 POP JUMP JUMPDEST PUSH1 0x0 PUSH1 0x20 DUP3 ADD SWAP1 POP DUP2 DUP2 SUB PUSH1 0x0 DUP4 ADD MSTORE PUSH2 0x1CA1 DUP2 PUSH2 0x1C65 JUMP JUMPDEST SWAP1 POP SWAP2 SWAP1 POP JUMP JUMPDEST PUSH32 0x6E6F74206F776E6572206F72206F70657261746F720000000000000000000000 PUSH1 0x0 DUP3 ADD MSTORE POP JUMP JUMPDEST PUSH1 0x0 PUSH2 0x1CDE PUSH1 0x15 DUP4 PUSH2 0x16FC JUMP JUMPDEST SWAP2 POP PUSH2 0x1CE9 DUP3 PUSH2 0x1CA8 JUMP JUMPDEST PUSH1 0x20 DUP3 ADD SWAP1 POP SWAP2 SWAP1 POP JUMP JUMPDEST PUSH1 0x0 PUSH1 0x20 DUP3 ADD SWAP1 POP DUP2 DUP2 SUB PUSH1 0x0 DUP4 ADD MSTORE PUSH2 0x1D0D DUP2 PUSH2 0x1CD1 JUMP JUMPDEST SWAP1 POP SWAP2 SWAP1 POP JUMP JUMPDEST PUSH32 0x6E6F74206F776E6572206E6F7220617070726F76656400000000000000000000 PUSH1 0x0 DUP3 ADD MSTORE POP JUMP JUMPDEST PUSH1 0x0 PUSH2 0x1D4A PUSH1 0x16 DUP4 PUSH2 0x16FC JUMP JUMPDEST SWAP2 POP PUSH2 0x1D55 DUP3 PUSH2 0x1D14 JUMP JUMPDEST PUSH1 0x20 DUP3 ADD SWAP1 POP SWAP2 SWAP1 POP JUMP JUMPDEST PUSH1 0x0 PUSH1 0x20 DUP3 ADD SWAP1 POP DUP2 DUP2 SUB PUSH1 0x0 DUP4 ADD MSTORE PUSH2 0x1D79 DUP2 PUSH2 0x1D3D JUMP JUMPDEST SWAP1 POP SWAP2 SWAP1 POP JUMP JUMPDEST PUSH32 0x6F7574206F662072616E67650000000000000000000000000000000000000000 PUSH1 0x0 DUP3 ADD MSTORE POP JUMP JUMPDEST PUSH1 0x0 PUSH2 0x1DB6 PUSH1 0xC DUP4 PUSH2 0x16FC JUMP JUMPDEST SWAP2 POP PUSH2 0x1DC1 DUP3 PUSH2 0x1D80 JUMP JUMPDEST PUSH1 0x20 DUP3 ADD SWAP1 POP SWAP2 SWAP1 POP JUMP JUMPDEST PUSH1 0x0 PUSH1 0x20 DUP3 ADD SWAP1 POP DUP2 DUP2 SUB PUSH1 0x0 DUP4 ADD MSTORE PUSH2 0x1DE5 DUP2 PUSH2 0x1DA9 JUMP JUMPDEST SWAP1 POP SWAP2 SWAP1 POP JUMP JUMPDEST PUSH32 0x746F6B656E20646F65736E277420657869737400000000000000000000000000 PUSH1 0x0 DUP3 ADD MSTORE POP JUMP JUMPDEST PUSH1 0x0 PUSH2 0x1E22 PUSH1 0x13 DUP4 PUSH2 0x16FC JUMP JUMPDEST SWAP2 POP PUSH2 0x1E2D DUP3 PUSH2 0x1DEC JUMP JUMPDEST PUSH1 0x20 DUP3 ADD SWAP1 POP SWAP2 SWAP1 POP JUMP JUMPDEST PUSH1 0x0 PUSH1 0x20 DUP3 ADD SWAP1 POP DUP2 DUP2 SUB PUSH1 0x0 DUP4 ADD MSTORE PUSH2 0x1E51 DUP2 PUSH2 0x1E15 JUMP JUMPDEST SWAP1 POP SWAP2 SWAP1 POP JUMP JUMPDEST PUSH32 0x6F776E6572203D207A65726F2061646472657373000000000000000000000000 PUSH1 0x0 DUP3 ADD MSTORE POP JUMP JUMPDEST PUSH1 0x0 PUSH2 0x1E8E PUSH1 0x14 DUP4 PUSH2 0x16FC JUMP JUMPDEST SWAP2 POP PUSH2 0x1E99 DUP3 PUSH2 0x1E58 JUMP JUMPDEST PUSH1 0x20 DUP3 ADD SWAP1 POP SWAP2 SWAP1 POP JUMP JUMPDEST PUSH1 0x0 PUSH1 0x20 DUP3 ADD SWAP1 POP DUP2 DUP2 SUB PUSH1 0x0 DUP4 ADD MSTORE PUSH2 0x1EBD DUP2 PUSH2 0x1E81 JUMP JUMPDEST SWAP1 POP SWAP2 SWAP1 POP JUMP JUMPDEST PUSH32 0x546F6B656E206E6F742065786973740000000000000000000000000000000000 PUSH1 0x0 DUP3 ADD MSTORE POP JUMP JUMPDEST PUSH1 0x0 PUSH2 0x1EFA PUSH1 0xF DUP4 PUSH2 0x16FC JUMP JUMPDEST SWAP2 POP PUSH2 0x1F05 DUP3 PUSH2 0x1EC4 JUMP JUMPDEST PUSH1 0x20 DUP3 ADD SWAP1 POP SWAP2 SWAP1 POP JUMP JUMPDEST PUSH1 0x0 PUSH1 0x20 DUP3 ADD SWAP1 POP DUP2 DUP2 SUB PUSH1 0x0 DUP4 ADD MSTORE PUSH2 0x1F29 DUP2 PUSH2 0x1EED JUMP JUMPDEST SWAP1 POP SWAP2 SWAP1 POP JUMP JUMPDEST PUSH1 0x0 DUP2 SWAP1 POP SWAP3 SWAP2 POP POP JUMP JUMPDEST PUSH1 0x0 PUSH2 0x1F46 DUP3 PUSH2 0x16F1 JUMP JUMPDEST PUSH2 0x1F50 DUP2 DUP6 PUSH2 0x1F30 JUMP JUMPDEST SWAP4 POP PUSH2 0x1F60 DUP2 DUP6 PUSH1 0x20 DUP7 ADD PUSH2 0x170D JUMP JUMPDEST DUP1 DUP5 ADD SWAP2 POP POP SWAP3 SWAP2 POP POP JUMP JUMPDEST PUSH1 0x0 PUSH2 0x1F78 DUP3 DUP6 PUSH2 0x1F3B JUMP JUMPDEST SWAP2 POP PUSH2 0x1F84 DUP3 DUP5 PUSH2 0x1F3B JUMP JUMPDEST SWAP2 POP DUP2 SWAP1 POP SWAP4 SWAP3 POP POP POP JUMP JUMPDEST PUSH32 0x66726F6D206E6F74206F776E6572000000000000000000000000000000000000 PUSH1 0x0 DUP3 ADD MSTORE POP JUMP JUMPDEST PUSH1 0x0 PUSH2 0x1FC6 PUSH1 0xE DUP4 PUSH2 0x16FC JUMP JUMPDEST SWAP2 POP PUSH2 0x1FD1 DUP3 PUSH2 0x1F90 JUMP JUMPDEST PUSH1 0x20 DUP3 ADD SWAP1 POP SWAP2 SWAP1 POP JUMP JUMPDEST PUSH1 0x0 PUSH1 0x20 DUP3 ADD SWAP1 POP DUP2 DUP2 SUB PUSH1 0x0 DUP4 ADD MSTORE PUSH2 0x1FF5 DUP2 PUSH2 0x1FB9 JUMP JUMPDEST SWAP1 POP SWAP2 SWAP1 POP JUMP JUMPDEST PUSH32 0x7472616E7366657220746F207A65726F20616464726573730000000000000000 PUSH1 0x0 DUP3 ADD MSTORE POP JUMP JUMPDEST PUSH1 0x0 PUSH2 0x2032 PUSH1 0x18 DUP4 PUSH2 0x16FC JUMP JUMPDEST SWAP2 POP PUSH2 0x203D DUP3 PUSH2 0x1FFC JUMP JUMPDEST PUSH1 0x20 DUP3 ADD SWAP1 POP SWAP2 SWAP1 POP JUMP JUMPDEST PUSH1 0x0 PUSH1 0x20 DUP3 ADD SWAP1 POP DUP2 DUP2 SUB PUSH1 0x0 DUP4 ADD MSTORE PUSH2 0x2061 DUP2 PUSH2 0x2025 JUMP JUMPDEST SWAP1 POP SWAP2 SWAP1 POP JUMP JUMPDEST PUSH32 0x4E487B7100000000000000000000000000000000000000000000000000000000 PUSH1 0x0 MSTORE PUSH1 0x11 PUSH1 0x4 MSTORE PUSH1 0x24 PUSH1 0x0 REVERT JUMPDEST PUSH1 0x0 PUSH2 0x20A2 DUP3 PUSH2 0x17A3 JUMP JUMPDEST SWAP2 POP PUSH2 0x20AD DUP4 PUSH2 0x17A3 JUMP JUMPDEST SWAP3 POP DUP3 DUP3 SUB SWAP1 POP DUP2 DUP2 GT ISZERO PUSH2 0x20C5 JUMPI PUSH2 0x20C4 PUSH2 0x2068 JUMP JUMPDEST JUMPDEST SWAP3 SWAP2 POP POP JUMP JUMPDEST PUSH1 0x0 PUSH2 0x20D6 DUP3 PUSH2 0x17A3 JUMP JUMPDEST SWAP2 POP PUSH2 0x20E1 DUP4 PUSH2 0x17A3 JUMP JUMPDEST SWAP3 POP DUP3 DUP3 ADD SWAP1 POP DUP1 DUP3 GT ISZERO PUSH2 0x20F9 JUMPI PUSH2 0x20F8 PUSH2 0x2068 JUMP JUMPDEST JUMPDEST SWAP3 SWAP2 POP POP JUMP JUMPDEST PUSH32 0x6D696E7420746F207A65726F2061646472657373000000000000000000000000 PUSH1 0x0 DUP3 ADD MSTORE POP JUMP JUMPDEST PUSH1 0x0 PUSH2 0x2135 PUSH1 0x14 DUP4 PUSH2 0x16FC JUMP JUMPDEST SWAP2 POP PUSH2 0x2140 DUP3 PUSH2 0x20FF JUMP JUMPDEST PUSH1 0x20 DUP3 ADD SWAP1 POP SWAP2 SWAP1 POP JUMP JUMPDEST PUSH1 0x0 PUSH1 0x20 DUP3 ADD SWAP1 POP DUP2 DUP2 SUB PUSH1 0x0 DUP4 ADD MSTORE PUSH2 0x2164 DUP2 PUSH2 0x2128 JUMP JUMPDEST SWAP1 POP SWAP2 SWAP1 POP JUMP JUMPDEST PUSH32 0x746F6B656E206265656E206D696E746564000000000000000000000000000000 PUSH1 0x0 DUP3 ADD MSTORE POP JUMP JUMPDEST PUSH1 0x0 PUSH2 0x21A1 PUSH1 0x11 DUP4 PUSH2 0x16FC JUMP JUMPDEST SWAP2 POP PUSH2 0x21AC DUP3 PUSH2 0x216B JUMP JUMPDEST PUSH1 0x20 DUP3 ADD SWAP1 POP SWAP2 SWAP1 POP JUMP JUMPDEST PUSH1 0x0 PUSH1 0x20 DUP3 ADD SWAP1 POP DUP2 DUP2 SUB PUSH1 0x0 DUP4 ADD MSTORE PUSH2 0x21D0 DUP2 PUSH2 0x2194 JUMP JUMPDEST SWAP1 POP SWAP2 SWAP1 POP JUMP JUMPDEST PUSH32 0x6E6F742045524337323152656365697665720000000000000000000000000000 PUSH1 0x0 DUP3 ADD MSTORE POP JUMP JUMPDEST PUSH1 0x0 PUSH2 0x220D PUSH1 0x12 DUP4 PUSH2 0x16FC JUMP JUMPDEST SWAP2 POP PUSH2 0x2218 DUP3 PUSH2 0x21D7 JUMP JUMPDEST PUSH1 0x20 DUP3 ADD SWAP1 POP SWAP2 SWAP1 POP JUMP JUMPDEST PUSH1 0x0 PUSH1 0x20 DUP3 ADD SWAP1 POP DUP2 DUP2 SUB PUSH1 0x0 DUP4 ADD MSTORE PUSH2 0x223C DUP2 PUSH2 0x2200 JUMP JUMPDEST SWAP1 POP SWAP2 SWAP1 POP JUMP JUMPDEST PUSH1 0x0 PUSH2 0x224E DUP3 PUSH2 0x17A3 JUMP JUMPDEST SWAP2 POP PUSH32 0xFFFFFFFFFFFFFFFFFFFFFFFFFFFFFFFFFFFFFFFFFFFFFFFFFFFFFFFFFFFFFFFF DUP3 SUB PUSH2 0x2280 JUMPI PUSH2 0x227F PUSH2 0x2068 JUMP JUMPDEST JUMPDEST PUSH1 0x1 DUP3 ADD SWAP1 POP SWAP2 SWAP1 POP JUMP JUMPDEST PUSH32 0x4E487B7100000000000000000000000000000000000000000000000000000000 PUSH1 0x0 MSTORE PUSH1 0x12 PUSH1 0x4 MSTORE PUSH1 0x24 PUSH1 0x0 REVERT JUMPDEST PUSH1 0x0 PUSH2 0x22C5 DUP3 PUSH2 0x17A3 JUMP JUMPDEST SWAP2 POP PUSH2 0x22D0 DUP4 PUSH2 0x17A3 JUMP JUMPDEST SWAP3 POP DUP3 PUSH2 0x22E0 JUMPI PUSH2 0x22DF PUSH2 0x228B JUMP JUMPDEST JUMPDEST DUP3 DUP3 DIV SWAP1 POP SWAP3 SWAP2 POP POP JUMP JUMPDEST PUSH1 0x0 PUSH2 0x22F6 DUP3 PUSH2 0x17A3 JUMP JUMPDEST SWAP2 POP PUSH2 0x2301 DUP4 PUSH2 0x17A3 JUMP JUMPDEST SWAP3 POP DUP3 PUSH2 0x2311 JUMPI PUSH2 0x2310 PUSH2 0x228B JUMP JUMPDEST JUMPDEST DUP3 DUP3 MOD SWAP1 POP SWAP3 SWAP2 POP POP JUMP JUMPDEST PUSH32 0x4E487B7100000000000000000000000000000000000000000000000000000000 PUSH1 0x0 MSTORE PUSH1 0x32 PUSH1 0x4 MSTORE PUSH1 0x24 PUSH1 0x0 REVERT JUMPDEST PUSH1 0x0 DUP2 MLOAD SWAP1 POP SWAP2 SWAP1 POP JUMP JUMPDEST PUSH1 0x0 DUP3 DUP3 MSTORE PUSH1 0x20 DUP3 ADD SWAP1 POP SWAP3 SWAP2 POP POP JUMP JUMPDEST PUSH1 0x0 PUSH2 0x2372 DUP3 PUSH2 0x234B JUMP JUMPDEST PUSH2 0x237C DUP2 DUP6 PUSH2 0x2356 JUMP JUMPDEST SWAP4 POP PUSH2 0x238C DUP2 DUP6 PUSH1 0x20 DUP7 ADD PUSH2 0x170D JUMP JUMPDEST PUSH2 0x2395 DUP2 PUSH2 0x1737 JUMP JUMPDEST DUP5 ADD SWAP2 POP POP SWAP3 SWAP2 POP POP JUMP JUMPDEST PUSH1 0x0 PUSH1 0x80 DUP3 ADD SWAP1 POP PUSH2 0x23B5 PUSH1 0x0 DUP4 ADD DUP8 PUSH2 0x1838 JUMP JUMPDEST PUSH2 0x23C2 PUSH1 0x20 DUP4 ADD DUP7 PUSH2 0x1838 JUMP JUMPDEST PUSH2 0x23CF PUSH1 0x40 DUP4 ADD DUP6 PUSH2 0x1921 JUMP JUMPDEST DUP2 DUP2 SUB PUSH1 0x60 DUP4 ADD MSTORE PUSH2 0x23E1 DUP2 DUP5 PUSH2 0x2367 JUMP JUMPDEST SWAP1 POP SWAP6 SWAP5 POP POP POP POP POP JUMP JUMPDEST PUSH1 0x0 DUP2 MLOAD SWAP1 POP PUSH2 0x23FB DUP2 PUSH2 0x1662 JUMP JUMPDEST SWAP3 SWAP2 POP POP JUMP JUMPDEST PUSH1 0x0 PUSH1 0x20 DUP3 DUP5 SUB SLT ISZERO PUSH2 0x2417 JUMPI PUSH2 0x2416 PUSH2 0x162C JUMP JUMPDEST JUMPDEST PUSH1 0x0 PUSH2 0x2425 DUP5 DUP3 DUP6 ADD PUSH2 0x23EC JUMP JUMPDEST SWAP2 POP POP SWAP3 SWAP2 POP POP JUMP INVALID PUSH10 0x7066733A2F2F516D6553 PUSH11 0x53696E4870506E6D586D73 PUSH17 0x4D6A776958794E367A533445397A636361 PUSH19 0x694752336A7863615774712FA2646970667358 0x22 SLT KECCAK256 PUSH17 0x1124DC2CDCD4A4A75A4E4CC16396B38C7 0xF 0xED PUSH12 0xC7F0EF58423601142E7B4564 PUSH20 0x6F6C634300081200330000000000000000000000 "
				},
				"gasEstimates": {
					"creation": {
						"codeDepositCost": "1874000",
						"executionCost": "infinite",
						"totalCost": "infinite"
					},
					"external": {
						"MAX_NFT()": "2474",
						"approve(address,uint256)": "31556",
						"balanceOf(address)": "2943",
						"getApproved(uint256)": "5182",
						"isApprovedForAll(address,address)": "infinite",
						"mint(address,uint256)": "infinite",
						"name()": "infinite",
						"ownerOf(uint256)": "2976",
						"safeTransferFrom(address,address,uint256)": "infinite",
						"safeTransferFrom(address,address,uint256,bytes)": "infinite",
						"setApprovalForAll(address,bool)": "infinite",
						"supportsInterface(bytes4)": "754",
						"symbol()": "infinite",
						"tokenURI(uint256)": "infinite",
						"transferFrom(address,address,uint256)": "infinite"
					},
					"internal": {
						"_baseURI()": "infinite"
					}
				},
				"methodIdentifiers": {
					"MAX_NFT()": "6fdaddf1",
					"approve(address,uint256)": "095ea7b3",
					"balanceOf(address)": "70a08231",
					"getApproved(uint256)": "081812fc",
					"isApprovedForAll(address,address)": "e985e9c5",
					"mint(address,uint256)": "40c10f19",
					"name()": "06fdde03",
					"ownerOf(uint256)": "6352211e",
					"safeTransferFrom(address,address,uint256)": "42842e0e",
					"safeTransferFrom(address,address,uint256,bytes)": "b88d4fde",
					"setApprovalForAll(address,bool)": "a22cb465",
					"supportsInterface(bytes4)": "01ffc9a7",
					"symbol()": "95d89b41",
					"tokenURI(uint256)": "c87b56dd",
					"transferFrom(address,address,uint256)": "23b872dd"
				}
			},
			"storageLayout": {
				"storage": [
					{
						"astId": 39,
						"contract": "contracts/MKNFT.sol:MKNFT",
						"label": "name",
						"offset": 0,
						"slot": "0",
						"type": "t_string_storage"
					},
					{
						"astId": 42,
						"contract": "contracts/MKNFT.sol:MKNFT",
						"label": "symbol",
						"offset": 0,
						"slot": "1",
						"type": "t_string_storage"
					},
					{
						"astId": 46,
						"contract": "contracts/MKNFT.sol:MKNFT",
						"label": "_owners",
						"offset": 0,
						"slot": "2",
						"type": "t_mapping(t_uint256,t_address)"
					},
					{
						"astId": 50,
						"contract": "contracts/MKNFT.sol:MKNFT",
						"label": "_balances",
						"offset": 0,
						"slot": "3",
						"type": "t_mapping(t_address,t_uint256)"
					},
					{
						"astId": 54,
						"contract": "contracts/MKNFT.sol:MKNFT",
						"label": "_tokenApprovals",
						"offset": 0,
						"slot": "4",
						"type": "t_mapping(t_uint256,t_address)"
					},
					{
						"astId": 60,
						"contract": "contracts/MKNFT.sol:MKNFT",
						"label": "_operatorApprovals",
						"offset": 0,
						"slot": "5",
						"type": "t_mapping(t_address,t_mapping(t_address,t_bool))"
					},
					{
						"astId": 696,
						"contract": "contracts/MKNFT.sol:MKNFT",
						"label": "MAX_NFT",
						"offset": 0,
						"slot": "6",
						"type": "t_uint256"
					}
				],
				"types": {
					"t_address": {
						"encoding": "inplace",
						"label": "address",
						"numberOfBytes": "20"
					},
					"t_bool": {
						"encoding": "inplace",
						"label": "bool",
						"numberOfBytes": "1"
					},
					"t_mapping(t_address,t_bool)": {
						"encoding": "mapping",
						"key": "t_address",
						"label": "mapping(address => bool)",
						"numberOfBytes": "32",
						"value": "t_bool"
					},
					"t_mapping(t_address,t_mapping(t_address,t_bool))": {
						"encoding": "mapping",
						"key": "t_address",
						"label": "mapping(address => mapping(address => bool))",
						"numberOfBytes": "32",
						"value": "t_mapping(t_address,t_bool)"
					},
					"t_mapping(t_address,t_uint256)": {
						"encoding": "mapping",
						"key": "t_address",
						"label": "mapping(address => uint256)",
						"numberOfBytes": "32",
						"value": "t_uint256"
					},
					"t_mapping(t_uint256,t_address)": {
						"encoding": "mapping",
						"key": "t_uint256",
						"label": "mapping(uint256 => address)",
						"numberOfBytes": "32",
						"value": "t_address"
					},
					"t_string_storage": {
						"encoding": "bytes",
						"label": "string",
						"numberOfBytes": "32"
					},
					"t_uint256": {
						"encoding": "inplace",
						"label": "uint256",
						"numberOfBytes": "32"
					}
				}
			},
			"userdoc": {
				"kind": "user",
				"methods": {
					"safeTransferFrom(address,address,uint256,bytes)": {
						"notice": "实现IERC721的safeTransferFrom，安全转账，调用了_safeTransfer函数。"
					},
					"tokenURI(uint256)": {
						"notice": "实现IERC721Metadata的tokenURI函数，查询metadata。"
					}
				},
				"version": 1
			}
		}
	}
}